{
  "transactions": [
    {
      "hash": "0x2eb414b9ac71fe1bfcf16b5c7202d6215f065476a16a4104a33d103748580742",
      "transactionType": "CALL",
      "contractName": null,
      "contractAddress": "0x453a3fdbccc2476eaaa13c01cb17761eec9a0d28",
      "function": "mint(address,uint256)",
      "arguments": [
        "0x4b992F2Fbf714C0fCBb23baC5130Ace48CaD00cd",
        "200000000000000000000000"
      ],
      "transaction": {
        "from": "0x4b992f2fbf714c0fcbb23bac5130ace48cad00cd",
        "to": "0x453a3fdbccc2476eaaa13c01cb17761eec9a0d28",
        "gas": "0xb816",
        "value": "0x0",
        "input": "0x40c10f190000000000000000000000004b992f2fbf714c0fcbb23bac5130ace48cad00cd000000000000000000000000000000000000000000002a5a058fc295ed000000",
        "nonce": "0x656",
        "chainId": "0x515"
      },
      "additionalContracts": [],
      "isFixedGasLimit": false
    },
    {
      "hash": "0x0a7d555efcccc100b4c07c20425931c312218ada640576767fbe781d13a2588c",
      "transactionType": "CALL",
      "contractName": null,
      "contractAddress": "0xde08e00a44bbb424efdb7ce7cdbd437581cdf9d5",
      "function": "mint(address,uint256)",
      "arguments": [
        "0x4b992F2Fbf714C0fCBb23baC5130Ace48CaD00cd",
        "200000000000000000000000"
      ],
      "transaction": {
        "from": "0x4b992f2fbf714c0fcbb23bac5130ace48cad00cd",
        "to": "0xde08e00a44bbb424efdb7ce7cdbd437581cdf9d5",
        "gas": "0xb816",
        "value": "0x0",
        "input": "0x40c10f190000000000000000000000004b992f2fbf714c0fcbb23bac5130ace48cad00cd000000000000000000000000000000000000000000002a5a058fc295ed000000",
        "nonce": "0x657",
        "chainId": "0x515"
      },
      "additionalContracts": [],
      "isFixedGasLimit": false
    },
    {
      "hash": "0x0b2ddc75bc1f6254b9c042ccef1760d9fa25f5bf5d125d17d9163e6522761929",
      "transactionType": "CALL",
      "contractName": null,
      "contractAddress": "0x453a3fdbccc2476eaaa13c01cb17761eec9a0d28",
      "function": "mint(address,uint256)",
      "arguments": [
        "0xe05fcC23807536bEe418f142D19fa0d21BB0cfF7",
        "50000000000000000000000"
      ],
      "transaction": {
        "from": "0x4b992f2fbf714c0fcbb23bac5130ace48cad00cd",
        "to": "0x453a3fdbccc2476eaaa13c01cb17761eec9a0d28",
        "gas": "0xb836",
        "value": "0x0",
        "input": "0x40c10f19000000000000000000000000e05fcc23807536bee418f142d19fa0d21bb0cff7000000000000000000000000000000000000000000000a968163f0a57b400000",
        "nonce": "0x658",
        "chainId": "0x515"
      },
      "additionalContracts": [],
      "isFixedGasLimit": false
    },
    {
      "hash": "0x016dd62bd41c2ca3746d619e530026cb95ea4e22622044234666c7e56c73aff2",
      "transactionType": "CALL",
      "contractName": null,
      "contractAddress": "0xde08e00a44bbb424efdb7ce7cdbd437581cdf9d5",
      "function": "mint(address,uint256)",
      "arguments": [
        "0xe05fcC23807536bEe418f142D19fa0d21BB0cfF7",
        "50000000000000000000000"
      ],
      "transaction": {
        "from": "0x4b992f2fbf714c0fcbb23bac5130ace48cad00cd",
        "to": "0xde08e00a44bbb424efdb7ce7cdbd437581cdf9d5",
        "gas": "0xb836",
        "value": "0x0",
        "input": "0x40c10f19000000000000000000000000e05fcc23807536bee418f142d19fa0d21bb0cff7000000000000000000000000000000000000000000000a968163f0a57b400000",
        "nonce": "0x659",
        "chainId": "0x515"
      },
      "additionalContracts": [],
      "isFixedGasLimit": false
    },
    {
      "hash": "0x93650c243b4c49ea8d01c5696c1b53391ca05826c91724909854ca4703e2e6bd",
      "transactionType": "CALL",
      "contractName": null,
      "contractAddress": "0x453a3fdbccc2476eaaa13c01cb17761eec9a0d28",
      "function": "approve(address,uint256)",
      "arguments": [
        "0x000000000022D473030F116dDEE9F6B43aC78BA3",
        "115792089237316195423570985008687907853269984665640564039457584007913129639935"
      ],
      "transaction": {
        "from": "0x4b992f2fbf714c0fcbb23bac5130ace48cad00cd",
        "to": "0x453a3fdbccc2476eaaa13c01cb17761eec9a0d28",
        "gas": "0x8f1d",
        "value": "0x0",
        "input": "0x095ea7b3000000000000000000000000000000000022d473030f116ddee9f6b43ac78ba3ffffffffffffffffffffffffffffffffffffffffffffffffffffffffffffffff",
        "nonce": "0x65a",
        "chainId": "0x515"
      },
      "additionalContracts": [],
      "isFixedGasLimit": false
    },
    {
      "hash": "0x63e619058122f4003d184f2944fbc297c996dd7df3d2d89d63094c5adf953822",
      "transactionType": "CALL",
      "contractName": null,
      "contractAddress": "0x453a3fdbccc2476eaaa13c01cb17761eec9a0d28",
      "function": "approve(address,uint256)",
      "arguments": [
        "0x9cD2b0a732dd5e023a5539921e0FD1c30E198Dba",
        "115792089237316195423570985008687907853269984665640564039457584007913129639935"
      ],
      "transaction": {
        "from": "0x4b992f2fbf714c0fcbb23bac5130ace48cad00cd",
        "to": "0x453a3fdbccc2476eaaa13c01cb17761eec9a0d28",
        "gas": "0x97e1",
        "value": "0x0",
        "input": "0x095ea7b30000000000000000000000009cd2b0a732dd5e023a5539921e0fd1c30e198dbaffffffffffffffffffffffffffffffffffffffffffffffffffffffffffffffff",
        "nonce": "0x65b",
        "chainId": "0x515"
      },
      "additionalContracts": [],
      "isFixedGasLimit": false
    },
    {
      "hash": "0x980c2ea0318f9b2a9bd9528fdd7000905ed519f54be94eed56dedb1931808f9d",
      "transactionType": "CALL",
      "contractName": null,
      "contractAddress": "0x000000000022d473030f116ddee9f6b43ac78ba3",
      "function": "approve(address,address,uint160,uint48)",
      "arguments": [
        "0x453a3FDBCCC2476Eaaa13c01CB17761eEc9a0d28",
        "0xf969Aee60879C54bAAed9F3eD26147Db216Fd664",
        "1461501637330902918203684832716283019655932542975",
        "281474976710655"
      ],
      "transaction": {
        "from": "0x4b992f2fbf714c0fcbb23bac5130ace48cad00cd",
        "to": "0x000000000022d473030f116ddee9f6b43ac78ba3",
        "gas": "0x96a0",
        "value": "0x0",
        "input": "0x87517c45000000000000000000000000453a3fdbccc2476eaaa13c01cb17761eec9a0d28000000000000000000000000f969aee60879c54baaed9f3ed26147db216fd664000000000000000000000000ffffffffffffffffffffffffffffffffffffffff0000000000000000000000000000000000000000000000000000ffffffffffff",
        "nonce": "0x65c",
        "chainId": "0x515"
      },
      "additionalContracts": [],
      "isFixedGasLimit": false
    },
    {
      "hash": "0xd6fc0d84cbe6cd721babf46ab8f83ac1208a46558335dbc3a07e8dcafdc33614",
      "transactionType": "CALL",
      "contractName": null,
      "contractAddress": "0x000000000022d473030f116ddee9f6b43ac78ba3",
      "function": "approve(address,address,uint160,uint48)",
      "arguments": [
        "0x453a3FDBCCC2476Eaaa13c01CB17761eEc9a0d28",
        "0x00B036B58a818B1BC34d502D3fE730Db729e62AC",
        "1461501637330902918203684832716283019655932542975",
        "281474976710655"
      ],
      "transaction": {
        "from": "0x4b992f2fbf714c0fcbb23bac5130ace48cad00cd",
        "to": "0x000000000022d473030f116ddee9f6b43ac78ba3",
        "gas": "0x9f6c",
        "value": "0x0",
        "input": "0x87517c45000000000000000000000000453a3fdbccc2476eaaa13c01cb17761eec9a0d2800000000000000000000000000b036b58a818b1bc34d502d3fe730db729e62ac000000000000000000000000ffffffffffffffffffffffffffffffffffffffff0000000000000000000000000000000000000000000000000000ffffffffffff",
        "nonce": "0x65d",
        "chainId": "0x515"
      },
      "additionalContracts": [],
      "isFixedGasLimit": false
    },
    {
      "hash": "0xcdf797414af2e7b565736fffba8c96958d93a1c0ce5412848eab86c33102ad46",
      "transactionType": "CALL",
      "contractName": null,
      "contractAddress": "0xde08e00a44bbb424efdb7ce7cdbd437581cdf9d5",
      "function": "approve(address,uint256)",
      "arguments": [
        "0x000000000022D473030F116dDEE9F6B43aC78BA3",
        "115792089237316195423570985008687907853269984665640564039457584007913129639935"
      ],
      "transaction": {
        "from": "0x4b992f2fbf714c0fcbb23bac5130ace48cad00cd",
        "to": "0xde08e00a44bbb424efdb7ce7cdbd437581cdf9d5",
        "gas": "0x8f1d",
        "value": "0x0",
        "input": "0x095ea7b3000000000000000000000000000000000022d473030f116ddee9f6b43ac78ba3ffffffffffffffffffffffffffffffffffffffffffffffffffffffffffffffff",
        "nonce": "0x65e",
        "chainId": "0x515"
      },
      "additionalContracts": [],
      "isFixedGasLimit": false
    },
    {
      "hash": "0x080a49da1d0b5ab3c30c8fcc342ef8be6d77d0af93e0b652d4bebdb8cf1f03cf",
      "transactionType": "CALL",
      "contractName": null,
      "contractAddress": "0xde08e00a44bbb424efdb7ce7cdbd437581cdf9d5",
      "function": "approve(address,uint256)",
      "arguments": [
        "0x9cD2b0a732dd5e023a5539921e0FD1c30E198Dba",
        "115792089237316195423570985008687907853269984665640564039457584007913129639935"
      ],
      "transaction": {
        "from": "0x4b992f2fbf714c0fcbb23bac5130ace48cad00cd",
        "to": "0xde08e00a44bbb424efdb7ce7cdbd437581cdf9d5",
        "gas": "0x97e1",
        "value": "0x0",
        "input": "0x095ea7b30000000000000000000000009cd2b0a732dd5e023a5539921e0fd1c30e198dbaffffffffffffffffffffffffffffffffffffffffffffffffffffffffffffffff",
        "nonce": "0x65f",
        "chainId": "0x515"
      },
      "additionalContracts": [],
      "isFixedGasLimit": false
    },
    {
      "hash": "0x669f42d48e91c08e24788652bba7b77e8fb48f30c6c966490d54963eae3ba887",
      "transactionType": "CALL",
      "contractName": null,
      "contractAddress": "0x000000000022d473030f116ddee9f6b43ac78ba3",
      "function": "approve(address,address,uint160,uint48)",
      "arguments": [
        "0xdE08e00A44bBB424EFdB7Ce7cDBD437581cdf9d5",
        "0xf969Aee60879C54bAAed9F3eD26147Db216Fd664",
        "1461501637330902918203684832716283019655932542975",
        "281474976710655"
      ],
      "transaction": {
        "from": "0x4b992f2fbf714c0fcbb23bac5130ace48cad00cd",
        "to": "0x000000000022d473030f116ddee9f6b43ac78ba3",
        "gas": "0x96a0",
        "value": "0x0",
        "input": "0x87517c45000000000000000000000000de08e00a44bbb424efdb7ce7cdbd437581cdf9d5000000000000000000000000f969aee60879c54baaed9f3ed26147db216fd664000000000000000000000000ffffffffffffffffffffffffffffffffffffffff0000000000000000000000000000000000000000000000000000ffffffffffff",
        "nonce": "0x660",
        "chainId": "0x515"
      },
      "additionalContracts": [],
      "isFixedGasLimit": false
    },
    {
      "hash": "0x67197b81870a942c715825578a6d30517552393560a3893fd8feaa93b7f28e28",
      "transactionType": "CALL",
      "contractName": null,
      "contractAddress": "0x000000000022d473030f116ddee9f6b43ac78ba3",
      "function": "approve(address,address,uint160,uint48)",
      "arguments": [
        "0xdE08e00A44bBB424EFdB7Ce7cDBD437581cdf9d5",
        "0x00B036B58a818B1BC34d502D3fE730Db729e62AC",
        "1461501637330902918203684832716283019655932542975",
        "281474976710655"
      ],
      "transaction": {
        "from": "0x4b992f2fbf714c0fcbb23bac5130ace48cad00cd",
        "to": "0x000000000022d473030f116ddee9f6b43ac78ba3",
        "gas": "0x9f6c",
        "value": "0x0",
        "input": "0x87517c45000000000000000000000000de08e00a44bbb424efdb7ce7cdbd437581cdf9d500000000000000000000000000b036b58a818b1bc34d502d3fe730db729e62ac000000000000000000000000ffffffffffffffffffffffffffffffffffffffff0000000000000000000000000000000000000000000000000000ffffffffffff",
        "nonce": "0x661",
        "chainId": "0x515"
      },
      "additionalContracts": [],
      "isFixedGasLimit": false
    },
    {
      "hash": "0x207f0162740ccb29288bcd10fd70347222f6c72b07c33ec3bf9b1b3e42bda42f",
      "transactionType": "CALL",
      "contractName": null,
      "contractAddress": "0x1468b3931fa11c20dea40dcfd1dbdccf8cc4a7ce",
      "function": "setPoolSplit(bytes32,uint16,uint16,address)",
      "arguments": [
        "0xc0ac8571814cbcd40a92e08108250971af6b21b121898dc7ddbaeee3c6b25a0b",
        "9000",
        "1000",
        "0x4b992F2Fbf714C0fCBb23baC5130Ace48CaD00cd"
      ],
      "transaction": {
        "from": "0x4b992f2fbf714c0fcbb23bac5130ace48cad00cd",
        "to": "0x1468b3931fa11c20dea40dcfd1dbdccf8cc4a7ce",
        "gas": "0xa935",
        "value": "0x0",
        "input": "0xd8fedaabc0ac8571814cbcd40a92e08108250971af6b21b121898dc7ddbaeee3c6b25a0b000000000000000000000000000000000000000000000000000000000000232800000000000000000000000000000000000000000000000000000000000003e80000000000000000000000004b992f2fbf714c0fcbb23bac5130ace48cad00cd",
        "nonce": "0x662",
        "chainId": "0x515"
      },
      "additionalContracts": [],
      "isFixedGasLimit": false
    },
    {
      "hash": "0x2098836df9dba46db9f6b04e63b805baf9d3903ce7db4bd49663223a4f9c541a",
      "transactionType": "CALL",
      "contractName": null,
      "contractAddress": "0x3fdf7f893e7e8aabc9829c9080058e7d06ee40c4",
      "function": "setPoolRevenueConfig((address,address,uint24,int24,address),(bool,address,uint16,uint128,uint8,uint64))",
      "arguments": [
        "(0x453a3FDBCCC2476Eaaa13c01CB17761eEc9a0d28, 0xdE08e00A44bBB424EFdB7Ce7cDBD437581cdf9d5, 3000, 60, 0x3fDF7f893e7E8AABc9829c9080058e7d06eE40C4)",
        "(true, 0xdE08e00A44bBB424EFdB7Ce7cDBD437581cdf9d5, 500, 30000000000000000, 0, 1)"
      ],
      "transaction": {
        "from": "0x4b992f2fbf714c0fcbb23bac5130ace48cad00cd",
        "to": "0x3fdf7f893e7e8aabc9829c9080058e7d06ee40c4",
        "gas": "0xc8d3",
        "value": "0x0",
        "input": "0x76e2e31f000000000000000000000000453a3fdbccc2476eaaa13c01cb17761eec9a0d28000000000000000000000000de08e00a44bbb424efdb7ce7cdbd437581cdf9d50000000000000000000000000000000000000000000000000000000000000bb8000000000000000000000000000000000000000000000000000000000000003c0000000000000000000000003fdf7f893e7e8aabc9829c9080058e7d06ee40c40000000000000000000000000000000000000000000000000000000000000001000000000000000000000000de08e00a44bbb424efdb7ce7cdbd437581cdf9d500000000000000000000000000000000000000000000000000000000000001f4000000000000000000000000000000000000000000000000006a94d74f43000000000000000000000000000000000000000000000000000000000000000000000000000000000000000000000000000000000000000000000000000000000001",
        "nonce": "0x663",
        "chainId": "0x515"
      },
      "additionalContracts": [],
      "isFixedGasLimit": false
    },
    {
      "hash": "0x6345d96814c0471408e743b0f296eb42ee42ab5ee3eb580a97f1d30b5d52191f",
      "transactionType": "CALL",
      "contractName": null,
      "contractAddress": "0xf969aee60879c54baaed9f3ed26147db216fd664",
      "function": "modifyLiquidities(bytes,uint256)",
      "arguments": [
        "0x000000000000000000000000000000000000000000000000000000000000004000000000000000000000000000000000000000000000000000000000000000800000000000000000000000000000000000000000000000000000000000000004020d14140000000000000000000000000000000000000000000000000000000000000000000000000000000000000000000000000000000000000000000000040000000000000000000000000000000000000000000000000000000000000080000000000000000000000000000000000000000000000000000000000000024000000000000000000000000000000000000000000000000000000000000002a0000000000000000000000000000000000000000000000000000000000000030000000000000000000000000000000000000000000000000000000000000001a0000000000000000000000000453a3fdbccc2476eaaa13c01cb17761eec9a0d28000000000000000000000000de08e00a44bbb424efdb7ce7cdbd437581cdf9d50000000000000000000000000000000000000000000000000000000000000bb8000000000000000000000000000000000000000000000000000000000000003c0000000000000000000000003fdf7f893e7e8aabc9829c9080058e7d06ee40c4fffffffffffffffffffffffffffffffffffffffffffffffffffffffffff2764c00000000000000000000000000000000000000000000000000000000000d89b40000000000000000000000000000000000000000000000056bc75e2d6310000000000000000000000000000000000000ffffffffffffffffffffffffffffffff00000000000000000000000000000000ffffffffffffffffffffffffffffffff0000000000000000000000004b992f2fbf714c0fcbb23bac5130ace48cad00cd000000000000000000000000000000000000000000000000000000000000018000000000000000000000000000000000000000000000000000000000000000000000000000000000000000000000000000000000000000000000000000000040000000000000000000000000453a3fdbccc2476eaaa13c01cb17761eec9a0d28000000000000000000000000de08e00a44bbb424efdb7ce7cdbd437581cdf9d50000000000000000000000000000000000000000000000000000000000000040000000000000000000000000453a3fdbccc2476eaaa13c01cb17761eec9a0d280000000000000000000000004b992f2fbf714c0fcbb23bac5130ace48cad00cd0000000000000000000000000000000000000000000000000000000000000040000000000000000000000000de08e00a44bbb424efdb7ce7cdbd437581cdf9d50000000000000000000000004b992f2fbf714c0fcbb23bac5130ace48cad00cd",
        "1773841243"
      ],
      "transaction": {
        "from": "0x4b992f2fbf714c0fcbb23bac5130ace48cad00cd",
        "to": "0xf969aee60879c54baaed9f3ed26147db216fd664",
        "gas": "0x56c51",
        "value": "0x0",
        "input": "0xdd46508f00000000000000000000000000000000000000000000000000000000000000400000000000000000000000000000000000000000000000000000000069baab5b0000000000000000000000000000000000000000000000000000000000000400000000000000000000000000000000000000000000000000000000000000004000000000000000000000000000000000000000000000000000000000000000800000000000000000000000000000000000000000000000000000000000000004020d14140000000000000000000000000000000000000000000000000000000000000000000000000000000000000000000000000000000000000000000000040000000000000000000000000000000000000000000000000000000000000080000000000000000000000000000000000000000000000000000000000000024000000000000000000000000000000000000000000000000000000000000002a0000000000000000000000000000000000000000000000000000000000000030000000000000000000000000000000000000000000000000000000000000001a0000000000000000000000000453a3fdbccc2476eaaa13c01cb17761eec9a0d28000000000000000000000000de08e00a44bbb424efdb7ce7cdbd437581cdf9d50000000000000000000000000000000000000000000000000000000000000bb8000000000000000000000000000000000000000000000000000000000000003c0000000000000000000000003fdf7f893e7e8aabc9829c9080058e7d06ee40c4fffffffffffffffffffffffffffffffffffffffffffffffffffffffffff2764c00000000000000000000000000000000000000000000000000000000000d89b40000000000000000000000000000000000000000000000056bc75e2d6310000000000000000000000000000000000000ffffffffffffffffffffffffffffffff00000000000000000000000000000000ffffffffffffffffffffffffffffffff0000000000000000000000004b992f2fbf714c0fcbb23bac5130ace48cad00cd000000000000000000000000000000000000000000000000000000000000018000000000000000000000000000000000000000000000000000000000000000000000000000000000000000000000000000000000000000000000000000000040000000000000000000000000453a3fdbccc2476eaaa13c01cb17761eec9a0d28000000000000000000000000de08e00a44bbb424efdb7ce7cdbd437581cdf9d50000000000000000000000000000000000000000000000000000000000000040000000000000000000000000453a3fdbccc2476eaaa13c01cb17761eec9a0d280000000000000000000000004b992f2fbf714c0fcbb23bac5130ace48cad00cd0000000000000000000000000000000000000000000000000000000000000040000000000000000000000000de08e00a44bbb424efdb7ce7cdbd437581cdf9d50000000000000000000000004b992f2fbf714c0fcbb23bac5130ace48cad00cd",
        "nonce": "0x664",
        "chainId": "0x515"
      },
      "additionalContracts": [],
      "isFixedGasLimit": false
    },
    {
      "hash": "0x35fed9b74cf390d62c4316582f21852f3b6033360b2b197e54760cd27c0a3d8e",
      "transactionType": "CALL",
      "contractName": null,
      "contractAddress": "0x453a3fdbccc2476eaaa13c01cb17761eec9a0d28",
      "function": "approve(address,uint256)",
      "arguments": [
        "0x000000000022D473030F116dDEE9F6B43aC78BA3",
        "115792089237316195423570985008687907853269984665640564039457584007913129639935"
      ],
      "transaction": {
        "from": "0xe05fcc23807536bee418f142d19fa0d21bb0cff7",
        "to": "0x453a3fdbccc2476eaaa13c01cb17761eec9a0d28",
        "gas": "0x8f1d",
        "value": "0x0",
        "input": "0x095ea7b3000000000000000000000000000000000022d473030f116ddee9f6b43ac78ba3ffffffffffffffffffffffffffffffffffffffffffffffffffffffffffffffff",
        "nonce": "0xe",
        "chainId": "0x515"
      },
      "additionalContracts": [],
      "isFixedGasLimit": false
    },
    {
      "hash": "0x845184ce019c92a0d24b272de3c3c6df6f048446f1434293a93012d494c9b012",
      "transactionType": "CALL",
      "contractName": null,
      "contractAddress": "0x453a3fdbccc2476eaaa13c01cb17761eec9a0d28",
      "function": "approve(address,uint256)",
      "arguments": [
        "0x9cD2b0a732dd5e023a5539921e0FD1c30E198Dba",
        "115792089237316195423570985008687907853269984665640564039457584007913129639935"
      ],
      "transaction": {
        "from": "0xe05fcc23807536bee418f142d19fa0d21bb0cff7",
        "to": "0x453a3fdbccc2476eaaa13c01cb17761eec9a0d28",
        "gas": "0x97e1",
        "value": "0x0",
        "input": "0x095ea7b30000000000000000000000009cd2b0a732dd5e023a5539921e0fd1c30e198dbaffffffffffffffffffffffffffffffffffffffffffffffffffffffffffffffff",
        "nonce": "0xf",
        "chainId": "0x515"
      },
      "additionalContracts": [],
      "isFixedGasLimit": false
    },
    {
      "hash": "0x0a855653dd21337c9a05b547614deda922e37fab99fb29c284ef090c8e17efd4",
      "transactionType": "CALL",
      "contractName": null,
      "contractAddress": "0x000000000022d473030f116ddee9f6b43ac78ba3",
      "function": "approve(address,address,uint160,uint48)",
      "arguments": [
        "0x453a3FDBCCC2476Eaaa13c01CB17761eEc9a0d28",
        "0xf969Aee60879C54bAAed9F3eD26147Db216Fd664",
        "1461501637330902918203684832716283019655932542975",
        "281474976710655"
      ],
      "transaction": {
        "from": "0xe05fcc23807536bee418f142d19fa0d21bb0cff7",
        "to": "0x000000000022d473030f116ddee9f6b43ac78ba3",
        "gas": "0x96a0",
        "value": "0x0",
        "input": "0x87517c45000000000000000000000000453a3fdbccc2476eaaa13c01cb17761eec9a0d28000000000000000000000000f969aee60879c54baaed9f3ed26147db216fd664000000000000000000000000ffffffffffffffffffffffffffffffffffffffff0000000000000000000000000000000000000000000000000000ffffffffffff",
        "nonce": "0x10",
        "chainId": "0x515"
      },
      "additionalContracts": [],
      "isFixedGasLimit": false
    },
    {
      "hash": "0xd82a3ab9a2741443b4cd849a74119dbc7a51d21bd9d0b99c0b057b9cb62c0cd5",
      "transactionType": "CALL",
      "contractName": null,
      "contractAddress": "0x000000000022d473030f116ddee9f6b43ac78ba3",
      "function": "approve(address,address,uint160,uint48)",
      "arguments": [
        "0x453a3FDBCCC2476Eaaa13c01CB17761eEc9a0d28",
        "0x00B036B58a818B1BC34d502D3fE730Db729e62AC",
        "1461501637330902918203684832716283019655932542975",
        "281474976710655"
      ],
      "transaction": {
        "from": "0xe05fcc23807536bee418f142d19fa0d21bb0cff7",
        "to": "0x000000000022d473030f116ddee9f6b43ac78ba3",
        "gas": "0x9f6c",
        "value": "0x0",
        "input": "0x87517c45000000000000000000000000453a3fdbccc2476eaaa13c01cb17761eec9a0d2800000000000000000000000000b036b58a818b1bc34d502d3fe730db729e62ac000000000000000000000000ffffffffffffffffffffffffffffffffffffffff0000000000000000000000000000000000000000000000000000ffffffffffff",
        "nonce": "0x11",
        "chainId": "0x515"
      },
      "additionalContracts": [],
      "isFixedGasLimit": false
    },
    {
      "hash": "0xabb6be60619139f56aeb64904eead41ea20c76517a3adf72047850986ef577c8",
      "transactionType": "CALL",
      "contractName": null,
      "contractAddress": "0xde08e00a44bbb424efdb7ce7cdbd437581cdf9d5",
      "function": "approve(address,uint256)",
      "arguments": [
        "0x000000000022D473030F116dDEE9F6B43aC78BA3",
        "115792089237316195423570985008687907853269984665640564039457584007913129639935"
      ],
      "transaction": {
        "from": "0xe05fcc23807536bee418f142d19fa0d21bb0cff7",
        "to": "0xde08e00a44bbb424efdb7ce7cdbd437581cdf9d5",
        "gas": "0x8f1d",
        "value": "0x0",
        "input": "0x095ea7b3000000000000000000000000000000000022d473030f116ddee9f6b43ac78ba3ffffffffffffffffffffffffffffffffffffffffffffffffffffffffffffffff",
        "nonce": "0x12",
        "chainId": "0x515"
      },
      "additionalContracts": [],
      "isFixedGasLimit": false
    },
    {
      "hash": "0xa7762e64edb5a9ffc7910933fb34ba2e6b8ae0470e1ae5337bd1cd1ff0de35e8",
      "transactionType": "CALL",
      "contractName": null,
      "contractAddress": "0xde08e00a44bbb424efdb7ce7cdbd437581cdf9d5",
      "function": "approve(address,uint256)",
      "arguments": [
        "0x9cD2b0a732dd5e023a5539921e0FD1c30E198Dba",
        "115792089237316195423570985008687907853269984665640564039457584007913129639935"
      ],
      "transaction": {
        "from": "0xe05fcc23807536bee418f142d19fa0d21bb0cff7",
        "to": "0xde08e00a44bbb424efdb7ce7cdbd437581cdf9d5",
        "gas": "0x97e1",
        "value": "0x0",
        "input": "0x095ea7b30000000000000000000000009cd2b0a732dd5e023a5539921e0fd1c30e198dbaffffffffffffffffffffffffffffffffffffffffffffffffffffffffffffffff",
        "nonce": "0x13",
        "chainId": "0x515"
      },
      "additionalContracts": [],
      "isFixedGasLimit": false
    },
    {
      "hash": "0xf728c215d302996f141ea7706e2c1d81121e3fd097a00d9fb25a19971bf2e1b5",
      "transactionType": "CALL",
      "contractName": null,
      "contractAddress": "0x000000000022d473030f116ddee9f6b43ac78ba3",
      "function": "approve(address,address,uint160,uint48)",
      "arguments": [
        "0xdE08e00A44bBB424EFdB7Ce7cDBD437581cdf9d5",
        "0xf969Aee60879C54bAAed9F3eD26147Db216Fd664",
        "1461501637330902918203684832716283019655932542975",
        "281474976710655"
      ],
      "transaction": {
        "from": "0xe05fcc23807536bee418f142d19fa0d21bb0cff7",
        "to": "0x000000000022d473030f116ddee9f6b43ac78ba3",
        "gas": "0x96a0",
        "value": "0x0",
        "input": "0x87517c45000000000000000000000000de08e00a44bbb424efdb7ce7cdbd437581cdf9d5000000000000000000000000f969aee60879c54baaed9f3ed26147db216fd664000000000000000000000000ffffffffffffffffffffffffffffffffffffffff0000000000000000000000000000000000000000000000000000ffffffffffff",
        "nonce": "0x14",
        "chainId": "0x515"
      },
      "additionalContracts": [],
      "isFixedGasLimit": false
    },
    {
      "hash": "0xad1f0e93ac326dffa7c9f8ad7ba10a3cd05681489b26ef71a4c42c1f4e9180d2",
      "transactionType": "CALL",
      "contractName": null,
      "contractAddress": "0x000000000022d473030f116ddee9f6b43ac78ba3",
      "function": "approve(address,address,uint160,uint48)",
      "arguments": [
        "0xdE08e00A44bBB424EFdB7Ce7cDBD437581cdf9d5",
        "0x00B036B58a818B1BC34d502D3fE730Db729e62AC",
        "1461501637330902918203684832716283019655932542975",
        "281474976710655"
      ],
      "transaction": {
        "from": "0xe05fcc23807536bee418f142d19fa0d21bb0cff7",
        "to": "0x000000000022d473030f116ddee9f6b43ac78ba3",
        "gas": "0x9f6c",
        "value": "0x0",
        "input": "0x87517c45000000000000000000000000de08e00a44bbb424efdb7ce7cdbd437581cdf9d500000000000000000000000000b036b58a818b1bc34d502d3fe730db729e62ac000000000000000000000000ffffffffffffffffffffffffffffffffffffffff0000000000000000000000000000000000000000000000000000ffffffffffff",
        "nonce": "0x15",
        "chainId": "0x515"
      },
      "additionalContracts": [],
      "isFixedGasLimit": false
    },
    {
      "hash": "0x83ce15df51039e71dd7fafcbddc650ef4180122392e4ac958e42a74e4ca243c9",
      "transactionType": "CALL",
      "contractName": null,
      "contractAddress": "0xde08e00a44bbb424efdb7ce7cdbd437581cdf9d5",
      "function": "approve(address,uint256)",
      "arguments": [
        "0xC64A3aC9Ba9C3D69beC599ABe4910AC17cA61dbf",
        "115792089237316195423570985008687907853269984665640564039457584007913129639935"
      ],
      "transaction": {
        "from": "0xe05fcc23807536bee418f142d19fa0d21bb0cff7",
        "to": "0xde08e00a44bbb424efdb7ce7cdbd437581cdf9d5",
        "gas": "0x97e1",
        "value": "0x0",
        "input": "0x095ea7b3000000000000000000000000c64a3ac9ba9c3d69bec599abe4910ac17ca61dbfffffffffffffffffffffffffffffffffffffffffffffffffffffffffffffffff",
        "nonce": "0x16",
        "chainId": "0x515"
      },
      "additionalContracts": [],
      "isFixedGasLimit": false
    },
    {
      "hash": "0x79e81502fda9c785c0baf424857651f8d4ea0868d40537ff8bd12bebfe21a163",
      "transactionType": "CALL",
      "contractName": null,
      "contractAddress": "0xc64a3ac9ba9c3d69bec599abe4910ac17ca61dbf",
      "function": "deposit(uint256,address,uint256)",
      "arguments": [
        "20000000000000000000",
        "0xe05fcC23807536bEe418f142D19fa0d21BB0cfF7",
        "0"
      ],
      "transaction": {
        "from": "0xe05fcc23807536bee418f142d19fa0d21bb0cff7",
        "to": "0xc64a3ac9ba9c3d69bec599abe4910ac17ca61dbf",
        "gas": "0x151ca",
        "value": "0x0",
        "input": "0xbc157ac1000000000000000000000000000000000000000000000001158e460913d00000000000000000000000000000e05fcc23807536bee418f142d19fa0d21bb0cff70000000000000000000000000000000000000000000000000000000000000000",
        "nonce": "0x17",
        "chainId": "0x515"
      },
      "additionalContracts": [],
      "isFixedGasLimit": false
    },
    {
      "hash": "0xcab92523142a99d888953ab064b296ad124785738c98f343e58d5fe7350feeaa",
      "transactionType": "CALL",
      "contractName": null,
      "contractAddress": "0x9cd2b0a732dd5e023a5539921e0fd1c30e198dba",
      "function": "swapExactTokensForTokens(uint256,uint256,bool,(address,address,uint24,int24,address),bytes,address,uint256)",
      "arguments": [
        "10000000000000000000",
        "0",
        "true",
        "(0x453a3FDBCCC2476Eaaa13c01CB17761eEc9a0d28, 0xdE08e00A44bBB424EFdB7Ce7cDBD437581cdf9d5, 3000, 60, 0x3fDF7f893e7E8AABc9829c9080058e7d06eE40C4)",
        "0x",
        "0xe05fcC23807536bEe418f142D19fa0d21BB0cfF7",
        "1773840643"
      ],
      "transaction": {
        "from": "0xe05fcc23807536bee418f142d19fa0d21bb0cff7",
        "to": "0x9cd2b0a732dd5e023a5539921e0fd1c30e198dba",
        "gas": "0x374cd",
        "value": "0x0",
        "input": "0xb1a0d5710000000000000000000000000000000000000000000000008ac7230489e8000000000000000000000000000000000000000000000000000000000000000000000000000000000000000000000000000000000000000000000000000000000001000000000000000000000000453a3fdbccc2476eaaa13c01cb17761eec9a0d28000000000000000000000000de08e00a44bbb424efdb7ce7cdbd437581cdf9d50000000000000000000000000000000000000000000000000000000000000bb8000000000000000000000000000000000000000000000000000000000000003c0000000000000000000000003fdf7f893e7e8aabc9829c9080058e7d06ee40c40000000000000000000000000000000000000000000000000000000000000160000000000000000000000000e05fcc23807536bee418f142d19fa0d21bb0cff70000000000000000000000000000000000000000000000000000000069baa9030000000000000000000000000000000000000000000000000000000000000000",
        "nonce": "0x18",
        "chainId": "0x515"
      },
      "additionalContracts": [],
      "isFixedGasLimit": false
    },
    {
      "hash": "0x15842f71ad53912d10f188f3f1b1333119cc4329eba52b0addeb2c3d228db510",
      "transactionType": "CALL",
      "contractName": null,
      "contractAddress": "0x9cd2b0a732dd5e023a5539921e0fd1c30e198dba",
      "function": "swapExactTokensForTokens(uint256,uint256,bool,(address,address,uint24,int24,address),bytes,address,uint256)",
      "arguments": [
        "10000000000000000000",
        "0",
        "true",
        "(0x453a3FDBCCC2476Eaaa13c01CB17761eEc9a0d28, 0xdE08e00A44bBB424EFdB7Ce7cDBD437581cdf9d5, 3000, 60, 0x3fDF7f893e7E8AABc9829c9080058e7d06eE40C4)",
        "0x",
        "0xe05fcC23807536bEe418f142D19fa0d21BB0cfF7",
        "1773840643"
      ],
      "transaction": {
        "from": "0xe05fcc23807536bee418f142d19fa0d21bb0cff7",
        "to": "0x9cd2b0a732dd5e023a5539921e0fd1c30e198dba",
        "gas": "0x3a902",
        "value": "0x0",
        "input": "0xb1a0d5710000000000000000000000000000000000000000000000008ac7230489e8000000000000000000000000000000000000000000000000000000000000000000000000000000000000000000000000000000000000000000000000000000000001000000000000000000000000453a3fdbccc2476eaaa13c01cb17761eec9a0d28000000000000000000000000de08e00a44bbb424efdb7ce7cdbd437581cdf9d50000000000000000000000000000000000000000000000000000000000000bb8000000000000000000000000000000000000000000000000000000000000003c0000000000000000000000003fdf7f893e7e8aabc9829c9080058e7d06ee40c40000000000000000000000000000000000000000000000000000000000000160000000000000000000000000e05fcc23807536bee418f142d19fa0d21bb0cff70000000000000000000000000000000000000000000000000000000069baa9030000000000000000000000000000000000000000000000000000000000000000",
        "nonce": "0x19",
        "chainId": "0x515"
      },
      "additionalContracts": [],
      "isFixedGasLimit": false
    },
    {
      "hash": "0xfb527268ed780eb2b8b74cbe5bc2d59ab494fe3d63ad981da9b6d0af7d17cd67",
      "transactionType": "CALL",
      "contractName": null,
      "contractAddress": "0xc64a3ac9ba9c3d69bec599abe4910ac17ca61dbf",
      "function": "acquireNFT(bytes32,uint256)",
      "arguments": [
        "0xc0ac8571814cbcd40a92e08108250971af6b21b121898dc7ddbaeee3c6b25a0b",
        "115792089237316195423570985008687907853269984665640564039457584007913129639935"
      ],
      "transaction": {
        "from": "0xe05fcc23807536bee418f142d19fa0d21bb0cff7",
        "to": "0xc64a3ac9ba9c3d69bec599abe4910ac17ca61dbf",
        "gas": "0x54875",
        "value": "0x0",
        "input": "0xacd2e8fac0ac8571814cbcd40a92e08108250971af6b21b121898dc7ddbaeee3c6b25a0bffffffffffffffffffffffffffffffffffffffffffffffffffffffffffffffff",
        "nonce": "0x1a",
        "chainId": "0x515"
      },
      "additionalContracts": [],
      "isFixedGasLimit": false
    },
    {
      "hash": "0x87fc588a9fe781f0f8156bbd703bea6e1a2b20b9f95aeeeed4c122c55417cc9a",
      "transactionType": "CALL",
      "contractName": null,
      "contractAddress": "0xc64a3ac9ba9c3d69bec599abe4910ac17ca61dbf",
      "function": "redeem(uint256,address,uint256)",
      "arguments": [
        "14644073851702722061",
        "0xe05fcC23807536bEe418f142D19fa0d21BB0cfF7",
        "0"
      ],
      "transaction": {
        "from": "0xe05fcc23807536bee418f142d19fa0d21bb0cff7",
        "to": "0xc64a3ac9ba9c3d69bec599abe4910ac17ca61dbf",
        "gas": "0x1449d",
        "value": "0x0",
        "input": "0xd8780161000000000000000000000000000000000000000000000000cb3a33949b53be0d000000000000000000000000e05fcc23807536bee418f142d19fa0d21bb0cff70000000000000000000000000000000000000000000000000000000000000000",
        "nonce": "0x1b",
        "chainId": "0x515"
      },
      "additionalContracts": [],
      "isFixedGasLimit": false
    }
  ],
  "receipts": [
    {
      "status": "0x1",
      "cumulativeGasUsed": "0xf284e",
      "logs": [
        {
          "address": "0x453a3fdbccc2476eaaa13c01cb17761eec9a0d28",
          "topics": [
            "0xddf252ad1be2c89b69c2b068fc378daa952ba7f163c4a11628f55a4df523b3ef",
            "0x0000000000000000000000000000000000000000000000000000000000000000",
            "0x0000000000000000000000004b992f2fbf714c0fcbb23bac5130ace48cad00cd"
          ],
          "data": "0x000000000000000000000000000000000000000000002a5a058fc295ed000000",
          "blockHash": "0x08185ebc588fcc608f479a1a38da092ce64b66e67391ce347f6f086ab68092a9",
          "blockNumber": "0x2ccf737",
          "blockTimestamp": "0x69baa483",
          "transactionHash": "0x2eb414b9ac71fe1bfcf16b5c7202d6215f065476a16a4104a33d103748580742",
          "transactionIndex": "0x7",
          "logIndex": "0xb",
          "removed": false
        }
      ],
      "logsBloom": "0x00000000000000000000000000000000000000000000000000000000000000000000000000000000000000000000000000000002000000000000000000000000000000000000000000000008000000000000000000000000000102000000000000000000020000000000000000020800000000000000000000000010000000000000000000000000000000000000000000000000000000000000000000000000000000000000000000000000000000000000000000000000000000000000000000000002000000000000000000000000000000000000400000000000000020080000000000000000000000000000000000000000000000000000000000000000",
      "type": "0x2",
      "transactionHash": "0x2eb414b9ac71fe1bfcf16b5c7202d6215f065476a16a4104a33d103748580742",
      "transactionIndex": "0x7",
      "blockHash": "0x08185ebc588fcc608f479a1a38da092ce64b66e67391ce347f6f086ab68092a9",
      "blockNumber": "0x2ccf737",
      "gasUsed": "0x8547",
      "effectiveGasPrice": "0x7a121",
      "blobGasUsed": "0x9c40",
      "from": "0x4b992f2fbf714c0fcbb23bac5130ace48cad00cd",
      "to": "0x453a3fdbccc2476eaaa13c01cb17761eec9a0d28",
      "contractAddress": null,
      "daFootprintGasScalar": "0x190",
      "l1BaseFeeScalar": "0x7d0",
      "l1BlobBaseFee": "0x1",
      "l1BlobBaseFeeScalar": "0xdbba0",
      "l1Fee": "0x7d",
      "l1GasPrice": "0xb",
      "l1GasUsed": "0x640"
    },
    {
      "status": "0x1",
      "cumulativeGasUsed": "0x74fbd",
      "logs": [
        {
          "address": "0xde08e00a44bbb424efdb7ce7cdbd437581cdf9d5",
          "topics": [
            "0xddf252ad1be2c89b69c2b068fc378daa952ba7f163c4a11628f55a4df523b3ef",
            "0x0000000000000000000000000000000000000000000000000000000000000000",
            "0x0000000000000000000000004b992f2fbf714c0fcbb23bac5130ace48cad00cd"
          ],
          "data": "0x000000000000000000000000000000000000000000002a5a058fc295ed000000",
          "blockHash": "0xd67b2528c0e0cb135c077b2699707d5fdc2fab6ca6bd801b6ce52f5adbe85c0b",
          "blockNumber": "0x2ccf738",
          "blockTimestamp": "0x69baa484",
          "transactionHash": "0x0a7d555efcccc100b4c07c20425931c312218ada640576767fbe781d13a2588c",
          "transactionIndex": "0x6",
          "logIndex": "0x4",
          "removed": false
        }
      ],
      "logsBloom": "0x00000000040000000400000000000000000000000000000000000000000000000000000000000000000000000000000000000002000000000000000000000000000000000000000000000008000000000000000000000000000100000000000000000000020000000000000000020800000000000000000000000010000000000000000000000000000000000000000000000000000000000000000000000000000000000000000000000000000000000000000080000000000000000000000000000002000000000000000000000000000000000000000000000000000020000000000000000000000000000000000000000000000000000000000000000000",
      "type": "0x2",
      "transactionHash": "0x0a7d555efcccc100b4c07c20425931c312218ada640576767fbe781d13a2588c",
      "transactionIndex": "0x6",
      "blockHash": "0xd67b2528c0e0cb135c077b2699707d5fdc2fab6ca6bd801b6ce52f5adbe85c0b",
      "blockNumber": "0x2ccf738",
      "gasUsed": "0x8547",
      "effectiveGasPrice": "0x7a121",
      "blobGasUsed": "0x9c40",
      "from": "0x4b992f2fbf714c0fcbb23bac5130ace48cad00cd",
      "to": "0xde08e00a44bbb424efdb7ce7cdbd437581cdf9d5",
      "contractAddress": null,
      "daFootprintGasScalar": "0x190",
      "l1BaseFeeScalar": "0x7d0",
      "l1BlobBaseFee": "0x1",
      "l1BlobBaseFeeScalar": "0xdbba0",
      "l1Fee": "0x7d",
      "l1GasPrice": "0xb",
      "l1GasUsed": "0x640"
    },
    {
      "status": "0x1",
      "cumulativeGasUsed": "0x10cc37",
      "logs": [
        {
          "address": "0x453a3fdbccc2476eaaa13c01cb17761eec9a0d28",
          "topics": [
            "0xddf252ad1be2c89b69c2b068fc378daa952ba7f163c4a11628f55a4df523b3ef",
            "0x0000000000000000000000000000000000000000000000000000000000000000",
            "0x000000000000000000000000e05fcc23807536bee418f142d19fa0d21bb0cff7"
          ],
          "data": "0x000000000000000000000000000000000000000000000a968163f0a57b400000",
          "blockHash": "0x9e6f4bb68f85c956bc288af68252fc6217929970f6721db2f144915087aedd38",
          "blockNumber": "0x2ccf739",
          "blockTimestamp": "0x69baa485",
          "transactionHash": "0x0b2ddc75bc1f6254b9c042ccef1760d9fa25f5bf5d125d17d9163e6522761929",
          "transactionIndex": "0x7",
          "logIndex": "0x15",
          "removed": false
        }
      ],
      "logsBloom": "0x00000000000000000000000000000000000000000000000000000000000000000000000000000800000000000000000000000000000000000000000000000000000000000000000000000008000000000200000000000000000002000000000000000000020000000000000000000800000000000000000000000010000000000000000000000000000000000000000000000000000000000000000000000000000000000000000000000000000000000000000000000000000000000000400000000002000000000000000000000000000000000000400000000000000020080000000000000000000000000000000000000000000000000000000000000000",
      "type": "0x2",
      "transactionHash": "0x0b2ddc75bc1f6254b9c042ccef1760d9fa25f5bf5d125d17d9163e6522761929",
      "transactionIndex": "0x7",
      "blockHash": "0x9e6f4bb68f85c956bc288af68252fc6217929970f6721db2f144915087aedd38",
      "blockNumber": "0x2ccf739",
      "gasUsed": "0x855f",
      "effectiveGasPrice": "0x7a121",
      "blobGasUsed": "0x9c40",
      "from": "0x4b992f2fbf714c0fcbb23bac5130ace48cad00cd",
      "to": "0x453a3fdbccc2476eaaa13c01cb17761eec9a0d28",
      "contractAddress": null,
      "daFootprintGasScalar": "0x190",
      "l1BaseFeeScalar": "0x7d0",
      "l1BlobBaseFee": "0x1",
      "l1BlobBaseFeeScalar": "0xdbba0",
      "l1Fee": "0x7d",
      "l1GasPrice": "0xb",
      "l1GasUsed": "0x640"
    },
    {
      "status": "0x1",
      "cumulativeGasUsed": "0x74fe1",
      "logs": [
        {
          "address": "0xde08e00a44bbb424efdb7ce7cdbd437581cdf9d5",
          "topics": [
            "0xddf252ad1be2c89b69c2b068fc378daa952ba7f163c4a11628f55a4df523b3ef",
            "0x0000000000000000000000000000000000000000000000000000000000000000",
            "0x000000000000000000000000e05fcc23807536bee418f142d19fa0d21bb0cff7"
          ],
          "data": "0x000000000000000000000000000000000000000000000a968163f0a57b400000",
          "blockHash": "0x333febefad8f9b55b5aa84cd109bc5ea68070a17da413758892df019241df482",
          "blockNumber": "0x2ccf73a",
          "blockTimestamp": "0x69baa486",
          "transactionHash": "0x016dd62bd41c2ca3746d619e530026cb95ea4e22622044234666c7e56c73aff2",
          "transactionIndex": "0x6",
          "logIndex": "0x4",
          "removed": false
        }
      ],
      "logsBloom": "0x00000000040000000400000000000000000000000000000000000000000000000000000000000800000000000000000000000000000000000000000000000000000000000000000000000008000000000200000000000000000000000000000000000000020000000000000000000800000000000000000000000010000000000000000000000000000000000000000000000000000000000000000000000000000000000000000000000000000000000000000080000000000000000000400000000002000000000000000000000000000000000000000000000000000020000000000000000000000000000000000000000000000000000000000000000000",
      "type": "0x2",
      "transactionHash": "0x016dd62bd41c2ca3746d619e530026cb95ea4e22622044234666c7e56c73aff2",
      "transactionIndex": "0x6",
      "blockHash": "0x333febefad8f9b55b5aa84cd109bc5ea68070a17da413758892df019241df482",
      "blockNumber": "0x2ccf73a",
      "gasUsed": "0x855f",
      "effectiveGasPrice": "0x7a121",
      "blobGasUsed": "0x9c40",
      "from": "0x4b992f2fbf714c0fcbb23bac5130ace48cad00cd",
      "to": "0xde08e00a44bbb424efdb7ce7cdbd437581cdf9d5",
      "contractAddress": null,
      "daFootprintGasScalar": "0x190",
      "l1BaseFeeScalar": "0x7d0",
      "l1BlobBaseFee": "0x1",
      "l1BlobBaseFeeScalar": "0xdbba0",
      "l1Fee": "0x7d",
      "l1GasPrice": "0xb",
      "l1GasUsed": "0x640"
    },
    {
      "status": "0x1",
      "cumulativeGasUsed": "0xe459e",
      "logs": [
        {
          "address": "0x453a3fdbccc2476eaaa13c01cb17761eec9a0d28",
          "topics": [
            "0x8c5be1e5ebec7d5bd14f71427d1e84f3dd0314c0f7b2291e5b200ac8c7c3b925",
            "0x0000000000000000000000004b992f2fbf714c0fcbb23bac5130ace48cad00cd",
            "0x000000000000000000000000000000000022d473030f116ddee9f6b43ac78ba3"
          ],
          "data": "0xffffffffffffffffffffffffffffffffffffffffffffffffffffffffffffffff",
          "blockHash": "0xb61a54c491ae08ad5bb326348b5dbc9bb55002367da4bcb7cad68b8f6c914bb4",
          "blockNumber": "0x2ccf73b",
          "blockTimestamp": "0x69baa487",
          "transactionHash": "0x93650c243b4c49ea8d01c5696c1b53391ca05826c91724909854ca4703e2e6bd",
          "transactionIndex": "0x6",
          "logIndex": "0xc",
          "removed": false
        }
      ],
      "logsBloom": "0x00000000000000000000000000000000000000000000000000000000000000000000000000000000000000000000000000000002800000000000000000200000000000000000000000004000000000000000000000000800000102000000000000000000000000000000000000020000000000000000000000000000000000000000000000000000000000000000000000000000000000000000000000000000020000000000000000000000000000000000000000000000000000000000000000000000000000000000000000000000000000000000400000000000000000080010000000000000000000000000000000000000000000000000000000000000",
      "type": "0x2",
      "transactionHash": "0x93650c243b4c49ea8d01c5696c1b53391ca05826c91724909854ca4703e2e6bd",
      "transactionIndex": "0x6",
      "blockHash": "0xb61a54c491ae08ad5bb326348b5dbc9bb55002367da4bcb7cad68b8f6c914bb4",
      "blockNumber": "0x2ccf73b",
      "gasUsed": "0x679e",
      "effectiveGasPrice": "0x7a121",
      "blobGasUsed": "0x9c40",
      "from": "0x4b992f2fbf714c0fcbb23bac5130ace48cad00cd",
      "to": "0x453a3fdbccc2476eaaa13c01cb17761eec9a0d28",
      "contractAddress": null,
      "daFootprintGasScalar": "0x190",
      "l1BaseFeeScalar": "0x7d0",
      "l1BlobBaseFee": "0x1",
      "l1BlobBaseFeeScalar": "0xdbba0",
      "l1Fee": "0x7d",
      "l1GasPrice": "0xb",
      "l1GasUsed": "0x640"
    },
    {
      "status": "0x1",
      "cumulativeGasUsed": "0x451e0",
      "logs": [
        {
          "address": "0x453a3fdbccc2476eaaa13c01cb17761eec9a0d28",
          "topics": [
            "0x8c5be1e5ebec7d5bd14f71427d1e84f3dd0314c0f7b2291e5b200ac8c7c3b925",
            "0x0000000000000000000000004b992f2fbf714c0fcbb23bac5130ace48cad00cd",
            "0x0000000000000000000000009cd2b0a732dd5e023a5539921e0fd1c30e198dba"
          ],
          "data": "0xffffffffffffffffffffffffffffffffffffffffffffffffffffffffffffffff",
          "blockHash": "0x732c0b38ba2502c7aed2083160ff873da37a1ad196c31bbe1bdb1f47d5b36976",
          "blockNumber": "0x2ccf73d",
          "blockTimestamp": "0x69baa489",
          "transactionHash": "0x63e619058122f4003d184f2944fbc297c996dd7df3d2d89d63094c5adf953822",
          "transactionIndex": "0x4",
          "logIndex": "0x2",
          "removed": false
        }
      ],
      "logsBloom": "0x00000000000000000000000000000000000000004000000000000000000000000080000000000000000000000000000000000002000000000000000000200000000000000000000000000000000000000000000000000000000102000000000000000000000000000000000000020000000000000000000000000000000000000000000000000000000000000000000000000000000000000000000000000000020000000000000000000000000000000000080000000000000000000000000000000000000000000000000000000000000000000000400000000000000000080010000000000000000000000000000000000000000000000000000000000000",
      "type": "0x2",
      "transactionHash": "0x63e619058122f4003d184f2944fbc297c996dd7df3d2d89d63094c5adf953822",
      "transactionIndex": "0x4",
      "blockHash": "0x732c0b38ba2502c7aed2083160ff873da37a1ad196c31bbe1bdb1f47d5b36976",
      "blockNumber": "0x2ccf73d",
      "gasUsed": "0x67da",
      "effectiveGasPrice": "0x7a121",
      "blobGasUsed": "0x9c40",
      "from": "0x4b992f2fbf714c0fcbb23bac5130ace48cad00cd",
      "to": "0x453a3fdbccc2476eaaa13c01cb17761eec9a0d28",
      "contractAddress": null,
      "daFootprintGasScalar": "0x190",
      "l1BaseFeeScalar": "0x7d0",
      "l1BlobBaseFee": "0x1",
      "l1BlobBaseFeeScalar": "0xdbba0",
      "l1Fee": "0x7d",
      "l1GasPrice": "0xb",
      "l1GasUsed": "0x640"
    },
    {
      "status": "0x1",
      "cumulativeGasUsed": "0x45738",
      "logs": [
        {
          "address": "0x000000000022d473030f116ddee9f6b43ac78ba3",
          "topics": [
            "0xda9fa7c1b00402c17d0161b249b1ab8bbec047c5a52207b9c112deffd817036b",
            "0x0000000000000000000000004b992f2fbf714c0fcbb23bac5130ace48cad00cd",
            "0x000000000000000000000000453a3fdbccc2476eaaa13c01cb17761eec9a0d28",
            "0x000000000000000000000000f969aee60879c54baaed9f3ed26147db216fd664"
          ],
          "data": "0x000000000000000000000000ffffffffffffffffffffffffffffffffffffffff0000000000000000000000000000000000000000000000000000ffffffffffff",
          "blockHash": "0x2d36639cb200600e73d738dd340f289943b51a98d4cd9485f8be8feda784b3ea",
          "blockNumber": "0x2ccf73f",
          "blockTimestamp": "0x69baa48b",
          "transactionHash": "0x980c2ea0318f9b2a9bd9528fdd7000905ed519f54be94eed56dedb1931808f9d",
          "transactionIndex": "0x4",
          "logIndex": "0x2",
          "removed": false
        }
      ],
      "logsBloom": "0x00010000000000000000000000000000000000000000000000000000000000000000000000000000000000000000000000000002080000000000000000080000000000000000000000000000000000000000000000000000000100001000000000000000000000000000000000020000000000000040000000000000000000000020000000000000000000000000000000000000000000000000000000000000000000000000000000000000000000000000000000000000000100080020000000000000000000000000000000000000000000000000000040000000000000000000000000000000000000000000000000000000000000000000000000002400",
      "type": "0x2",
      "transactionHash": "0x980c2ea0318f9b2a9bd9528fdd7000905ed519f54be94eed56dedb1931808f9d",
      "transactionIndex": "0x4",
      "blockHash": "0x2d36639cb200600e73d738dd340f289943b51a98d4cd9485f8be8feda784b3ea",
      "blockNumber": "0x2ccf73f",
      "gasUsed": "0x6d0e",
      "effectiveGasPrice": "0x7a121",
      "blobGasUsed": "0xaa50",
      "from": "0x4b992f2fbf714c0fcbb23bac5130ace48cad00cd",
      "to": "0x000000000022d473030f116ddee9f6b43ac78ba3",
      "contractAddress": null,
      "daFootprintGasScalar": "0x190",
      "l1BaseFeeScalar": "0x7d0",
      "l1BlobBaseFee": "0x1",
      "l1BlobBaseFeeScalar": "0xdbba0",
      "l1Fee": "0x89",
      "l1GasPrice": "0xb",
      "l1GasUsed": "0x6da"
    },
    {
      "status": "0x1",
      "cumulativeGasUsed": "0x45720",
      "logs": [
        {
          "address": "0x000000000022d473030f116ddee9f6b43ac78ba3",
          "topics": [
            "0xda9fa7c1b00402c17d0161b249b1ab8bbec047c5a52207b9c112deffd817036b",
            "0x0000000000000000000000004b992f2fbf714c0fcbb23bac5130ace48cad00cd",
            "0x000000000000000000000000453a3fdbccc2476eaaa13c01cb17761eec9a0d28",
            "0x00000000000000000000000000b036b58a818b1bc34d502d3fe730db729e62ac"
          ],
          "data": "0x000000000000000000000000ffffffffffffffffffffffffffffffffffffffff0000000000000000000000000000000000000000000000000000ffffffffffff",
          "blockHash": "0x08d9e171b9e8b2682be1741939c1819611368440f3d75171cefe7809902a7ce3",
          "blockNumber": "0x2ccf741",
          "blockTimestamp": "0x69baa48d",
          "transactionHash": "0xd6fc0d84cbe6cd721babf46ab8f83ac1208a46558335dbc3a07e8dcafdc33614",
          "transactionIndex": "0x4",
          "logIndex": "0x2",
          "removed": false
        }
      ],
      "logsBloom": "0x00010000000000000000000000000000000000000000000000000000000000000000000000000000000000000000000000000002081000000000000000080000000000000000000000000000000000000000000000000000000100000000000000000000000000000000000000024000000000000000000000000000000000000020000000000000000000000000000000000000000000000000000000000000000000000000000000000000000000000000000000000020000100080020000000000000000000000000000000000000000000000000000040000000000000000000000000000000000000000000000000000000000000000000000000000400",
      "type": "0x2",
      "transactionHash": "0xd6fc0d84cbe6cd721babf46ab8f83ac1208a46558335dbc3a07e8dcafdc33614",
      "transactionIndex": "0x4",
      "blockHash": "0x08d9e171b9e8b2682be1741939c1819611368440f3d75171cefe7809902a7ce3",
      "blockNumber": "0x2ccf741",
      "gasUsed": "0x6d02",
      "effectiveGasPrice": "0x7a121",
      "blobGasUsed": "0xa8c0",
      "from": "0x4b992f2fbf714c0fcbb23bac5130ace48cad00cd",
      "to": "0x000000000022d473030f116ddee9f6b43ac78ba3",
      "contractAddress": null,
      "daFootprintGasScalar": "0x190",
      "l1BaseFeeScalar": "0x7d0",
      "l1BlobBaseFee": "0x1",
      "l1BlobBaseFeeScalar": "0xdbba0",
      "l1Fee": "0x88",
      "l1GasPrice": "0xb",
      "l1GasUsed": "0x6cd"
    },
    {
      "status": "0x1",
      "cumulativeGasUsed": "0xc928e",
      "logs": [
        {
          "address": "0xde08e00a44bbb424efdb7ce7cdbd437581cdf9d5",
          "topics": [
            "0x8c5be1e5ebec7d5bd14f71427d1e84f3dd0314c0f7b2291e5b200ac8c7c3b925",
            "0x0000000000000000000000004b992f2fbf714c0fcbb23bac5130ace48cad00cd",
            "0x000000000000000000000000000000000022d473030f116ddee9f6b43ac78ba3"
          ],
          "data": "0xffffffffffffffffffffffffffffffffffffffffffffffffffffffffffffffff",
          "blockHash": "0x0a49b47b88f46ee9a8b83130ac3a8c2a4a624538e6f4de45f18dcd80e36f9055",
          "blockNumber": "0x2ccf743",
          "blockTimestamp": "0x69baa48f",
          "transactionHash": "0xcdf797414af2e7b565736fffba8c96958d93a1c0ce5412848eab86c33102ad46",
          "transactionIndex": "0x5",
          "logIndex": "0xb",
          "removed": false
        }
      ],
      "logsBloom": "0x00000000040000000400000000000000000000000000000000000000000000000000000000000000000000000000000000000002800000000000000000200000000000000000000000004000000000000000000000000800000100000000000000000000000000000000000000020000000000000000000000000000000000000000000000000000000000000000000000000000000000000000000000000000020000000000000000000000000000000000000080000000000000000000000000000000000000000000000000000000000000000000000000000000000000000010000000000000000000000000000000000000000000000000000000000000",
      "type": "0x2",
      "transactionHash": "0xcdf797414af2e7b565736fffba8c96958d93a1c0ce5412848eab86c33102ad46",
      "transactionIndex": "0x5",
      "blockHash": "0x0a49b47b88f46ee9a8b83130ac3a8c2a4a624538e6f4de45f18dcd80e36f9055",
      "blockNumber": "0x2ccf743",
      "gasUsed": "0x679e",
      "effectiveGasPrice": "0x7a121",
      "blobGasUsed": "0x9c40",
      "from": "0x4b992f2fbf714c0fcbb23bac5130ace48cad00cd",
      "to": "0xde08e00a44bbb424efdb7ce7cdbd437581cdf9d5",
      "contractAddress": null,
      "daFootprintGasScalar": "0x190",
      "l1BaseFeeScalar": "0x7d0",
      "l1BlobBaseFee": "0x1",
      "l1BlobBaseFeeScalar": "0xdbba0",
      "l1Fee": "0x7d",
      "l1GasPrice": "0xb",
      "l1GasUsed": "0x640"
    },
    {
      "status": "0x1",
      "cumulativeGasUsed": "0x63e71",
      "logs": [
        {
          "address": "0xde08e00a44bbb424efdb7ce7cdbd437581cdf9d5",
          "topics": [
            "0x8c5be1e5ebec7d5bd14f71427d1e84f3dd0314c0f7b2291e5b200ac8c7c3b925",
            "0x0000000000000000000000004b992f2fbf714c0fcbb23bac5130ace48cad00cd",
            "0x0000000000000000000000009cd2b0a732dd5e023a5539921e0fd1c30e198dba"
          ],
          "data": "0xffffffffffffffffffffffffffffffffffffffffffffffffffffffffffffffff",
          "blockHash": "0x86488f4aa84bfa2cbc70997d686525efd8da1ff3a0e501d66397fbb2d70b6d3b",
          "blockNumber": "0x2ccf745",
          "blockTimestamp": "0x69baa491",
          "transactionHash": "0x080a49da1d0b5ab3c30c8fcc342ef8be6d77d0af93e0b652d4bebdb8cf1f03cf",
          "transactionIndex": "0x5",
          "logIndex": "0x9",
          "removed": false
        }
      ],
      "logsBloom": "0x00000000040000000400000000000000000000004000000000000000000000000080000000000000000000000000000000000002000000000000000000200000000000000000000000000000000000000000000000000000000100000000000000000000000000000000000000020000000000000000000000000000000000000000000000000000000000000000000000000000000000000000000000000000020000000000000000000000000000000000080080000000000000000000000000000000000000000000000000000000000000000000000000000000000000000010000000000000000000000000000000000000000000000000000000000000",
      "type": "0x2",
      "transactionHash": "0x080a49da1d0b5ab3c30c8fcc342ef8be6d77d0af93e0b652d4bebdb8cf1f03cf",
      "transactionIndex": "0x5",
      "blockHash": "0x86488f4aa84bfa2cbc70997d686525efd8da1ff3a0e501d66397fbb2d70b6d3b",
      "blockNumber": "0x2ccf745",
      "gasUsed": "0x67da",
      "effectiveGasPrice": "0x7a121",
      "blobGasUsed": "0x9c40",
      "from": "0x4b992f2fbf714c0fcbb23bac5130ace48cad00cd",
      "to": "0xde08e00a44bbb424efdb7ce7cdbd437581cdf9d5",
      "contractAddress": null,
      "daFootprintGasScalar": "0x190",
      "l1BaseFeeScalar": "0x7d0",
      "l1BlobBaseFee": "0x1",
      "l1BlobBaseFeeScalar": "0xdbba0",
      "l1Fee": "0x7d",
      "l1GasPrice": "0xb",
      "l1GasUsed": "0x640"
    },
    {
      "status": "0x1",
      "cumulativeGasUsed": "0x45738",
      "logs": [
        {
          "address": "0x000000000022d473030f116ddee9f6b43ac78ba3",
          "topics": [
            "0xda9fa7c1b00402c17d0161b249b1ab8bbec047c5a52207b9c112deffd817036b",
            "0x0000000000000000000000004b992f2fbf714c0fcbb23bac5130ace48cad00cd",
            "0x000000000000000000000000de08e00a44bbb424efdb7ce7cdbd437581cdf9d5",
            "0x000000000000000000000000f969aee60879c54baaed9f3ed26147db216fd664"
          ],
          "data": "0x000000000000000000000000ffffffffffffffffffffffffffffffffffffffff0000000000000000000000000000000000000000000000000000ffffffffffff",
          "blockHash": "0x9e9fa280b5751de5e48ac5dd30e16bdc958aa129c25e4180963bbe7904572c53",
          "blockNumber": "0x2ccf747",
          "blockTimestamp": "0x69baa493",
          "transactionHash": "0x669f42d48e91c08e24788652bba7b77e8fb48f30c6c966490d54963eae3ba887",
          "transactionIndex": "0x4",
          "logIndex": "0x2",
          "removed": false
        }
      ],
      "logsBloom": "0x00010000000000000000000000000000000000000000000000000000000000000000000000000000000000000000000000000002000000000000000000080000000000000000000000000000000000000000000000000000000100001000000000001000000000000000000000020000000000000040000000000000000000002020000000000000000000000000000000000000000000000000000000000000000000000000000000000000000000000000000000000000000000080000000000000000000000000000000000000000000000000000000040000000000000000000000000000000000000000000000000000000000000000000000000002400",
      "type": "0x2",
      "transactionHash": "0x669f42d48e91c08e24788652bba7b77e8fb48f30c6c966490d54963eae3ba887",
      "transactionIndex": "0x4",
      "blockHash": "0x9e9fa280b5751de5e48ac5dd30e16bdc958aa129c25e4180963bbe7904572c53",
      "blockNumber": "0x2ccf747",
      "gasUsed": "0x6d0e",
      "effectiveGasPrice": "0x7a121",
      "blobGasUsed": "0xaa50",
      "from": "0x4b992f2fbf714c0fcbb23bac5130ace48cad00cd",
      "to": "0x000000000022d473030f116ddee9f6b43ac78ba3",
      "contractAddress": null,
      "daFootprintGasScalar": "0x190",
      "l1BaseFeeScalar": "0x7d0",
      "l1BlobBaseFee": "0x1",
      "l1BlobBaseFeeScalar": "0xdbba0",
      "l1Fee": "0x89",
      "l1GasPrice": "0xb",
      "l1GasUsed": "0x6da"
    },
    {
      "status": "0x1",
      "cumulativeGasUsed": "0x73778",
      "logs": [
        {
          "address": "0x000000000022d473030f116ddee9f6b43ac78ba3",
          "topics": [
            "0xda9fa7c1b00402c17d0161b249b1ab8bbec047c5a52207b9c112deffd817036b",
            "0x0000000000000000000000004b992f2fbf714c0fcbb23bac5130ace48cad00cd",
            "0x000000000000000000000000de08e00a44bbb424efdb7ce7cdbd437581cdf9d5",
            "0x00000000000000000000000000b036b58a818b1bc34d502d3fe730db729e62ac"
          ],
          "data": "0x000000000000000000000000ffffffffffffffffffffffffffffffffffffffff0000000000000000000000000000000000000000000000000000ffffffffffff",
          "blockHash": "0x865f0b10183e984ff43b0b70c02207880dece3a804cd485a86c5e3d085bb3e82",
          "blockNumber": "0x2ccf749",
          "blockTimestamp": "0x69baa495",
          "transactionHash": "0x67197b81870a942c715825578a6d30517552393560a3893fd8feaa93b7f28e28",
          "transactionIndex": "0x6",
          "logIndex": "0x4",
          "removed": false
        }
      ],
      "logsBloom": "0x00010000000000000000000000000000000000000000000000000000000000000000000000000000000000000000000000000002001000000000000000080000000000000000000000000000000000000000000000000000000100000000000000001000000000000000000000024000000000000000000000000000000000002020000000000000000000000000000000000000000000000000000000000000000000000000000000000000000000000000000000000020000000080000000000000000000000000000000000000000000000000000000040000000000000000000000000000000000000000000000000000000000000000000000000000400",
      "type": "0x2",
      "transactionHash": "0x67197b81870a942c715825578a6d30517552393560a3893fd8feaa93b7f28e28",
      "transactionIndex": "0x6",
      "blockHash": "0x865f0b10183e984ff43b0b70c02207880dece3a804cd485a86c5e3d085bb3e82",
      "blockNumber": "0x2ccf749",
      "gasUsed": "0x6d02",
      "effectiveGasPrice": "0x7a121",
      "blobGasUsed": "0xa8c0",
      "from": "0x4b992f2fbf714c0fcbb23bac5130ace48cad00cd",
      "to": "0x000000000022d473030f116ddee9f6b43ac78ba3",
      "contractAddress": null,
      "daFootprintGasScalar": "0x190",
      "l1BaseFeeScalar": "0x7d0",
      "l1BlobBaseFee": "0x1",
      "l1BlobBaseFeeScalar": "0xdbba0",
      "l1Fee": "0x88",
      "l1GasPrice": "0xb",
      "l1GasUsed": "0x6cd"
    },
    {
      "status": "0x1",
      "cumulativeGasUsed": "0x99fc5",
      "logs": [
        {
          "address": "0x1468b3931fa11c20dea40dcfd1dbdccf8cc4a7ce",
          "topics": [
            "0xcbadc99cb2ebe103f429f71b5d7870b3fcb56cd9318c0779d5217c41a79117fa",
            "0xc0ac8571814cbcd40a92e08108250971af6b21b121898dc7ddbaeee3c6b25a0b"
          ],
          "data": "0x000000000000000000000000000000000000000000000000000000000000232800000000000000000000000000000000000000000000000000000000000003e80000000000000000000000004b992f2fbf714c0fcbb23bac5130ace48cad00cd",
          "blockHash": "0x82e0b7eb4cdcdfd3d671253e88ada9b04fb48e7bd7c237cfa8553ec92db54b2c",
          "blockNumber": "0x2ccf74a",
          "blockTimestamp": "0x69baa496",
          "transactionHash": "0x207f0162740ccb29288bcd10fd70347222f6c72b07c33ec3bf9b1b3e42bda42f",
          "transactionIndex": "0x7",
          "logIndex": "0x8",
          "removed": false
        }
      ],
      "logsBloom": "0x00000000000000000000000000000000000000000001008000000000000000000000000000000000000002000000000000000000010000000000000000000000004000000000000000000000000000000080000000000000000000000000000000000000000000000000000000000000000000000000000000000000000000008000000400010000000000000000000000000000000000000000000000000000000000000000000000000000000000000000000000000000000000000000000000000000000000000000000000000000000000000000000000000000000000000000000000000000000000000000000000000000000000000000000000000000",
      "type": "0x2",
      "transactionHash": "0x207f0162740ccb29288bcd10fd70347222f6c72b07c33ec3bf9b1b3e42bda42f",
      "transactionIndex": "0x7",
      "blockHash": "0x82e0b7eb4cdcdfd3d671253e88ada9b04fb48e7bd7c237cfa8553ec92db54b2c",
      "blockNumber": "0x2ccf74a",
      "gasUsed": "0x73b3",
      "effectiveGasPrice": "0x7a121",
      "blobGasUsed": "0xb540",
      "from": "0x4b992f2fbf714c0fcbb23bac5130ace48cad00cd",
      "to": "0x1468b3931fa11c20dea40dcfd1dbdccf8cc4a7ce",
      "contractAddress": null,
      "daFootprintGasScalar": "0x190",
      "l1BaseFeeScalar": "0x7d0",
      "l1BlobBaseFee": "0x1",
      "l1BlobBaseFeeScalar": "0xdbba0",
      "l1Fee": "0x91",
      "l1GasPrice": "0xb",
      "l1GasUsed": "0x745"
    },
    {
      "status": "0x1",
      "cumulativeGasUsed": "0x75be7",
      "logs": [
        {
          "address": "0x3fdf7f893e7e8aabc9829c9080058e7d06ee40c4",
          "topics": [
            "0x8d7be83a1c1f6e48c938b033ff9dc1a6a1a9d44f391a4de78fa90441ec04efde",
            "0xc0ac8571814cbcd40a92e08108250971af6b21b121898dc7ddbaeee3c6b25a0b",
            "0x4ed07fe8fac5680242228164624a034a8f1d3384bde547447d80aea70307ccb5"
          ],
          "data": "0x0000000000000000000000000000000000000000000000000000000000000001",
          "blockHash": "0x4cd8e455da363e8257e43f9258cc158d2009293165de74788b239e195624ce2b",
          "blockNumber": "0x2ccf74b",
          "blockTimestamp": "0x69baa497",
          "transactionHash": "0x2098836df9dba46db9f6b04e63b805baf9d3903ce7db4bd49663223a4f9c541a",
          "transactionIndex": "0x6",
          "logIndex": "0x4",
          "removed": false
        }
      ],
      "logsBloom": "0x00000000000000000000000008000000000000000000000000000000000000000000000000000000000004000000000000000000010000000000000000000002000000000000000000000000000000100000000000000000000000000000000000000000000200000000000000000000000000000000000000000000000000008000000400000001000000000000000000000000000000000000000000000000000000000000000000000000000000000000000200000002000000000000000000000000000000000000000000000000100000000000000000000000000000000000000000000000000000000000000000000000000000000000000000000000",
      "type": "0x2",
      "transactionHash": "0x2098836df9dba46db9f6b04e63b805baf9d3903ce7db4bd49663223a4f9c541a",
      "transactionIndex": "0x6",
      "blockHash": "0x4cd8e455da363e8257e43f9258cc158d2009293165de74788b239e195624ce2b",
      "blockNumber": "0x2ccf74b",
      "gasUsed": "0x9165",
      "effectiveGasPrice": "0x7a121",
      "blobGasUsed": "0xe5b0",
      "from": "0x4b992f2fbf714c0fcbb23bac5130ace48cad00cd",
      "to": "0x3fdf7f893e7e8aabc9829c9080058e7d06ee40c4",
      "contractAddress": null,
      "daFootprintGasScalar": "0x190",
      "l1BaseFeeScalar": "0x7d0",
      "l1BlobBaseFee": "0x1",
      "l1BlobBaseFeeScalar": "0xdbba0",
      "l1Fee": "0xb8",
      "l1GasPrice": "0xb",
      "l1GasUsed": "0x934"
    },
    {
      "status": "0x1",
      "cumulativeGasUsed": "0x12db65",
      "logs": [
        {
          "address": "0xf969aee60879c54baaed9f3ed26147db216fd664",
          "topics": [
            "0xddf252ad1be2c89b69c2b068fc378daa952ba7f163c4a11628f55a4df523b3ef",
            "0x0000000000000000000000000000000000000000000000000000000000000000",
            "0x0000000000000000000000004b992f2fbf714c0fcbb23bac5130ace48cad00cd",
            "0x0000000000000000000000000000000000000000000000000000000000001c43"
          ],
          "data": "0x",
          "blockHash": "0x21b4871d1a7dc763ecf08fc06858f04250f5953e2cad8fbfc3788f0a3771ca2e",
          "blockNumber": "0x2ccf74c",
          "blockTimestamp": "0x69baa498",
          "transactionHash": "0x6345d96814c0471408e743b0f296eb42ee42ab5ee3eb580a97f1d30b5d52191f",
          "transactionIndex": "0x7",
          "logIndex": "0xb",
          "removed": false
        },
        {
          "address": "0x00b036b58a818b1bc34d502d3fe730db729e62ac",
          "topics": [
            "0xf208f4912782fd25c7f114ca3723a2d5dd6f3bcc3ac8db5af63baa85f711d5ec",
            "0xc0ac8571814cbcd40a92e08108250971af6b21b121898dc7ddbaeee3c6b25a0b",
            "0x000000000000000000000000f969aee60879c54baaed9f3ed26147db216fd664"
          ],
          "data": "0xfffffffffffffffffffffffffffffffffffffffffffffffffffffffffff2764c00000000000000000000000000000000000000000000000000000000000d89b40000000000000000000000000000000000000000000000056bc75e2d631000000000000000000000000000000000000000000000000000000000000000001c43",
          "blockHash": "0x21b4871d1a7dc763ecf08fc06858f04250f5953e2cad8fbfc3788f0a3771ca2e",
          "blockNumber": "0x2ccf74c",
          "blockTimestamp": "0x69baa498",
          "transactionHash": "0x6345d96814c0471408e743b0f296eb42ee42ab5ee3eb580a97f1d30b5d52191f",
          "transactionIndex": "0x7",
          "logIndex": "0xc",
          "removed": false
        },
        {
          "address": "0x453a3fdbccc2476eaaa13c01cb17761eec9a0d28",
          "topics": [
            "0xddf252ad1be2c89b69c2b068fc378daa952ba7f163c4a11628f55a4df523b3ef",
            "0x0000000000000000000000004b992f2fbf714c0fcbb23bac5130ace48cad00cd",
            "0x00000000000000000000000000b036b58a818b1bc34d502d3fe730db729e62ac"
          ],
          "data": "0x00000000000000000000000000000000000000000000000680807a87d859fffb",
          "blockHash": "0x21b4871d1a7dc763ecf08fc06858f04250f5953e2cad8fbfc3788f0a3771ca2e",
          "blockNumber": "0x2ccf74c",
          "blockTimestamp": "0x69baa498",
          "transactionHash": "0x6345d96814c0471408e743b0f296eb42ee42ab5ee3eb580a97f1d30b5d52191f",
          "transactionIndex": "0x7",
          "logIndex": "0xd",
          "removed": false
        },
        {
          "address": "0xde08e00a44bbb424efdb7ce7cdbd437581cdf9d5",
          "topics": [
            "0xddf252ad1be2c89b69c2b068fc378daa952ba7f163c4a11628f55a4df523b3ef",
            "0x0000000000000000000000004b992f2fbf714c0fcbb23bac5130ace48cad00cd",
            "0x00000000000000000000000000b036b58a818b1bc34d502d3fe730db729e62ac"
          ],
          "data": "0x000000000000000000000000000000000000000000000004850f93b7b4d188b6",
          "blockHash": "0x21b4871d1a7dc763ecf08fc06858f04250f5953e2cad8fbfc3788f0a3771ca2e",
          "blockNumber": "0x2ccf74c",
          "blockTimestamp": "0x69baa498",
          "transactionHash": "0x6345d96814c0471408e743b0f296eb42ee42ab5ee3eb580a97f1d30b5d52191f",
          "transactionIndex": "0x7",
          "logIndex": "0xe",
          "removed": false
        }
      ],
      "logsBloom": "0x00000000040000000400000000000000000000000000000000000000000000000000000000000000000000000000000000000002011000000000000000000000000000000000000000000008000000000000000000000000000102001000000000000000020000000000000000024800000000000040000100000010000000008000000401000000000000000008000000000000000000000000000000000000000004000000000000000000000000002800000080000020000000000000000000000002080000000000000008000000000000000000400000000000000020084000000000000000000000000000000004000000000002000000000000002010",
      "type": "0x2",
      "transactionHash": "0x6345d96814c0471408e743b0f296eb42ee42ab5ee3eb580a97f1d30b5d52191f",
      "transactionIndex": "0x7",
      "blockHash": "0x21b4871d1a7dc763ecf08fc06858f04250f5953e2cad8fbfc3788f0a3771ca2e",
      "blockNumber": "0x2ccf74c",
      "gasUsed": "0x3ed1f",
      "effectiveGasPrice": "0x7a121",
      "blobGasUsed": "0x1b3f0",
      "from": "0x4b992f2fbf714c0fcbb23bac5130ace48cad00cd",
      "to": "0xf969aee60879c54baaed9f3ed26147db216fd664",
      "contractAddress": null,
      "daFootprintGasScalar": "0x190",
      "l1BaseFeeScalar": "0x7d0",
      "l1BlobBaseFee": "0x1",
      "l1BlobBaseFeeScalar": "0xdbba0",
      "l1Fee": "0x15d",
      "l1GasPrice": "0xb",
      "l1GasUsed": "0x1177"
    },
    {
      "status": "0x1",
      "cumulativeGasUsed": "0x7322c",
      "logs": [
        {
          "address": "0x453a3fdbccc2476eaaa13c01cb17761eec9a0d28",
          "topics": [
            "0x8c5be1e5ebec7d5bd14f71427d1e84f3dd0314c0f7b2291e5b200ac8c7c3b925",
            "0x000000000000000000000000e05fcc23807536bee418f142d19fa0d21bb0cff7",
            "0x000000000000000000000000000000000022d473030f116ddee9f6b43ac78ba3"
          ],
          "data": "0xffffffffffffffffffffffffffffffffffffffffffffffffffffffffffffffff",
          "blockHash": "0xf4ddd3f8d7f93c37003c5c813785093075ff5089b7eba3b72078a74181f8f4dc",
          "blockNumber": "0x2ccf74d",
          "blockTimestamp": "0x69baa499",
          "transactionHash": "0x35fed9b74cf390d62c4316582f21852f3b6033360b2b197e54760cd27c0a3d8e",
          "transactionIndex": "0x6",
          "logIndex": "0x4",
          "removed": false
        }
      ],
      "logsBloom": "0x00000000000000000000000000000000000000000000000000000000000000000000000000000800000000000000000000000000800000000000000000200000000000000000000000004000000000000200000000000800000002000000000000000000000000000000000000000000000000000000000000000000000000000000000000000000000000000000000000000000000000000000000000000000020000000000000000000000000000000000000000000000000000000000400000000000000000000000000000000000000000000000400000000000000000080010000000000000000000000000000000000000000000000000000000000000",
      "type": "0x2",
      "transactionHash": "0x35fed9b74cf390d62c4316582f21852f3b6033360b2b197e54760cd27c0a3d8e",
      "transactionIndex": "0x6",
      "blockHash": "0xf4ddd3f8d7f93c37003c5c813785093075ff5089b7eba3b72078a74181f8f4dc",
      "blockNumber": "0x2ccf74d",
      "gasUsed": "0x679e",
      "effectiveGasPrice": "0x7a121",
      "blobGasUsed": "0x9c40",
      "from": "0xe05fcc23807536bee418f142d19fa0d21bb0cff7",
      "to": "0x453a3fdbccc2476eaaa13c01cb17761eec9a0d28",
      "contractAddress": null,
      "daFootprintGasScalar": "0x190",
      "l1BaseFeeScalar": "0x7d0",
      "l1BlobBaseFee": "0x1",
      "l1BlobBaseFeeScalar": "0xdbba0",
      "l1Fee": "0x7d",
      "l1GasPrice": "0xb",
      "l1GasUsed": "0x640"
    },
    {
      "status": "0x1",
      "cumulativeGasUsed": "0x5c236",
      "logs": [
        {
          "address": "0x453a3fdbccc2476eaaa13c01cb17761eec9a0d28",
          "topics": [
            "0x8c5be1e5ebec7d5bd14f71427d1e84f3dd0314c0f7b2291e5b200ac8c7c3b925",
            "0x000000000000000000000000e05fcc23807536bee418f142d19fa0d21bb0cff7",
            "0x0000000000000000000000009cd2b0a732dd5e023a5539921e0fd1c30e198dba"
          ],
          "data": "0xffffffffffffffffffffffffffffffffffffffffffffffffffffffffffffffff",
          "blockHash": "0x32d71948bf10b8835fdb9bc4fee38c6c747ab75aaa6a0e3b55fb71d24029f82a",
          "blockNumber": "0x2ccf74e",
          "blockTimestamp": "0x69baa49a",
          "transactionHash": "0x845184ce019c92a0d24b272de3c3c6df6f048446f1434293a93012d494c9b012",
          "transactionIndex": "0x5",
          "logIndex": "0x3",
          "removed": false
        }
      ],
      "logsBloom": "0x00000000000000000000000000000000000000004000000000000000000000000080000000000800000000000000000000000000000000000000000000200000000000000000000000000000000000000200000000000000000002000000000000000000000000000000000000000000000000000000000000000000000000000000000000000000000000000000000000000000000000000000000000000000020000000000000000000000000000000000080000000000000000000000400000000000000000000000000000000000000000000000400000000000000000080010000000000000000000000000000000000000000000000000000000000000",
      "type": "0x2",
      "transactionHash": "0x845184ce019c92a0d24b272de3c3c6df6f048446f1434293a93012d494c9b012",
      "transactionIndex": "0x5",
      "blockHash": "0x32d71948bf10b8835fdb9bc4fee38c6c747ab75aaa6a0e3b55fb71d24029f82a",
      "blockNumber": "0x2ccf74e",
      "gasUsed": "0x67da",
      "effectiveGasPrice": "0x7a121",
      "blobGasUsed": "0x9c40",
      "from": "0xe05fcc23807536bee418f142d19fa0d21bb0cff7",
      "to": "0x453a3fdbccc2476eaaa13c01cb17761eec9a0d28",
      "contractAddress": null,
      "daFootprintGasScalar": "0x190",
      "l1BaseFeeScalar": "0x7d0",
      "l1BlobBaseFee": "0x1",
      "l1BlobBaseFeeScalar": "0xdbba0",
      "l1Fee": "0x7d",
      "l1GasPrice": "0xb",
      "l1GasUsed": "0x640"
    },
    {
      "status": "0x1",
      "cumulativeGasUsed": "0x45738",
      "logs": [
        {
          "address": "0x000000000022d473030f116ddee9f6b43ac78ba3",
          "topics": [
            "0xda9fa7c1b00402c17d0161b249b1ab8bbec047c5a52207b9c112deffd817036b",
            "0x000000000000000000000000e05fcc23807536bee418f142d19fa0d21bb0cff7",
            "0x000000000000000000000000453a3fdbccc2476eaaa13c01cb17761eec9a0d28",
            "0x000000000000000000000000f969aee60879c54baaed9f3ed26147db216fd664"
          ],
          "data": "0x000000000000000000000000ffffffffffffffffffffffffffffffffffffffff0000000000000000000000000000000000000000000000000000ffffffffffff",
          "blockHash": "0x862f9162d1a80176c15996a547218281e96a2063311510e85050b75e5a999102",
          "blockNumber": "0x2ccf751",
          "blockTimestamp": "0x69baa49d",
          "transactionHash": "0x0a855653dd21337c9a05b547614deda922e37fab99fb29c284ef090c8e17efd4",
          "transactionIndex": "0x4",
          "logIndex": "0x2",
          "removed": false
        }
      ],
      "logsBloom": "0x00010000000000000000000000000000000000000000000000000000000000000000000000000800000000000000000000000000080000000000000000080000000000000000000000000000000000000200000000000000000000001000000000000000000000000000000000000000000000000040000000000000000000000020000000000000000000000000000000000000000000000000000000000000000000000000000000000000000000000000000000000000000100080020400000000000000000000000000000000000000000000000000040000000000000000000000000000000000000000000000000000000000000000000000000002400",
      "type": "0x2",
      "transactionHash": "0x0a855653dd21337c9a05b547614deda922e37fab99fb29c284ef090c8e17efd4",
      "transactionIndex": "0x4",
      "blockHash": "0x862f9162d1a80176c15996a547218281e96a2063311510e85050b75e5a999102",
      "blockNumber": "0x2ccf751",
      "gasUsed": "0x6d0e",
      "effectiveGasPrice": "0x7a121",
      "blobGasUsed": "0xa730",
      "from": "0xe05fcc23807536bee418f142d19fa0d21bb0cff7",
      "to": "0x000000000022d473030f116ddee9f6b43ac78ba3",
      "contractAddress": null,
      "daFootprintGasScalar": "0x190",
      "l1BaseFeeScalar": "0x7d0",
      "l1BlobBaseFee": "0x1",
      "l1BlobBaseFeeScalar": "0xdbba0",
      "l1Fee": "0x87",
      "l1GasPrice": "0xb",
      "l1GasUsed": "0x6bf"
    },
    {
      "status": "0x1",
      "cumulativeGasUsed": "0x4a934",
      "logs": [
        {
          "address": "0x000000000022d473030f116ddee9f6b43ac78ba3",
          "topics": [
            "0xda9fa7c1b00402c17d0161b249b1ab8bbec047c5a52207b9c112deffd817036b",
            "0x000000000000000000000000e05fcc23807536bee418f142d19fa0d21bb0cff7",
            "0x000000000000000000000000453a3fdbccc2476eaaa13c01cb17761eec9a0d28",
            "0x00000000000000000000000000b036b58a818b1bc34d502d3fe730db729e62ac"
          ],
          "data": "0x000000000000000000000000ffffffffffffffffffffffffffffffffffffffff0000000000000000000000000000000000000000000000000000ffffffffffff",
          "blockHash": "0xb85b0f6b0f76f15d4532ec4e2dbe4312889fa14ff3605f6f746bca56ad02d318",
          "blockNumber": "0x2ccf753",
          "blockTimestamp": "0x69baa49f",
          "transactionHash": "0xd82a3ab9a2741443b4cd849a74119dbc7a51d21bd9d0b99c0b057b9cb62c0cd5",
          "transactionIndex": "0x5",
          "logIndex": "0x2",
          "removed": false
        }
      ],
      "logsBloom": "0x00010000000000000000000000000000000000000000000000000000000000000000000000000800000000000000000000000000081000000000000000080000000000000000000000000000000000000200000000000000000000000000000000000000000000000000000000004000000000000000000000000000000000000020000000000000000000000000000000000000000000000000000000000000000000000000000000000000000000000000000000000020000100080020400000000000000000000000000000000000000000000000000040000000000000000000000000000000000000000000000000000000000000000000000000000400",
      "type": "0x2",
      "transactionHash": "0xd82a3ab9a2741443b4cd849a74119dbc7a51d21bd9d0b99c0b057b9cb62c0cd5",
      "transactionIndex": "0x5",
      "blockHash": "0xb85b0f6b0f76f15d4532ec4e2dbe4312889fa14ff3605f6f746bca56ad02d318",
      "blockNumber": "0x2ccf753",
      "gasUsed": "0x6d02",
      "effectiveGasPrice": "0x7a121",
      "blobGasUsed": "0xa730",
      "from": "0xe05fcc23807536bee418f142d19fa0d21bb0cff7",
      "to": "0x000000000022d473030f116ddee9f6b43ac78ba3",
      "contractAddress": null,
      "daFootprintGasScalar": "0x190",
      "l1BaseFeeScalar": "0x7d0",
      "l1BlobBaseFee": "0x1",
      "l1BlobBaseFeeScalar": "0xdbba0",
      "l1Fee": "0x86",
      "l1GasPrice": "0xb",
      "l1GasUsed": "0x6b2"
    },
    {
      "status": "0x1",
      "cumulativeGasUsed": "0x451c8",
      "logs": [
        {
          "address": "0xde08e00a44bbb424efdb7ce7cdbd437581cdf9d5",
          "topics": [
            "0x8c5be1e5ebec7d5bd14f71427d1e84f3dd0314c0f7b2291e5b200ac8c7c3b925",
            "0x000000000000000000000000e05fcc23807536bee418f142d19fa0d21bb0cff7",
            "0x000000000000000000000000000000000022d473030f116ddee9f6b43ac78ba3"
          ],
          "data": "0xffffffffffffffffffffffffffffffffffffffffffffffffffffffffffffffff",
          "blockHash": "0x12592d5db132bac0b338e8d59110bdef5a88b3ae4f7e7021502847f0260ceace",
          "blockNumber": "0x2ccf755",
          "blockTimestamp": "0x69baa4a1",
          "transactionHash": "0xabb6be60619139f56aeb64904eead41ea20c76517a3adf72047850986ef577c8",
          "transactionIndex": "0x4",
          "logIndex": "0x2",
          "removed": false
        }
      ],
      "logsBloom": "0x00000000040000000400000000000000000000000000000000000000000000000000000000000800000000000000000000000000800000000000000000200000000000000000000000004000000000000200000000000800000000000000000000000000000000000000000000000000000000000000000000000000000000000000000000000000000000000000000000000000000000000000000000000000020000000000000000000000000000000000000080000000000000000000400000000000000000000000000000000000000000000000000000000000000000000010000000000000000000000000000000000000000000000000000000000000",
      "type": "0x2",
      "transactionHash": "0xabb6be60619139f56aeb64904eead41ea20c76517a3adf72047850986ef577c8",
      "transactionIndex": "0x4",
      "blockHash": "0x12592d5db132bac0b338e8d59110bdef5a88b3ae4f7e7021502847f0260ceace",
      "blockNumber": "0x2ccf755",
      "gasUsed": "0x679e",
      "effectiveGasPrice": "0x7a121",
      "blobGasUsed": "0x9c40",
      "from": "0xe05fcc23807536bee418f142d19fa0d21bb0cff7",
      "to": "0xde08e00a44bbb424efdb7ce7cdbd437581cdf9d5",
      "contractAddress": null,
      "daFootprintGasScalar": "0x190",
      "l1BaseFeeScalar": "0x7d0",
      "l1BlobBaseFee": "0x1",
      "l1BlobBaseFeeScalar": "0xdbba0",
      "l1Fee": "0x7d",
      "l1GasPrice": "0xb",
      "l1GasUsed": "0x640"
    },
    {
      "status": "0x1",
      "cumulativeGasUsed": "0x45204",
      "logs": [
        {
          "address": "0xde08e00a44bbb424efdb7ce7cdbd437581cdf9d5",
          "topics": [
            "0x8c5be1e5ebec7d5bd14f71427d1e84f3dd0314c0f7b2291e5b200ac8c7c3b925",
            "0x000000000000000000000000e05fcc23807536bee418f142d19fa0d21bb0cff7",
            "0x0000000000000000000000009cd2b0a732dd5e023a5539921e0fd1c30e198dba"
          ],
          "data": "0xffffffffffffffffffffffffffffffffffffffffffffffffffffffffffffffff",
          "blockHash": "0x339c2e39356f7704069a58f13138cd6e68bf74b49a8b9bb960b601cacbec00af",
          "blockNumber": "0x2ccf757",
          "blockTimestamp": "0x69baa4a3",
          "transactionHash": "0xa7762e64edb5a9ffc7910933fb34ba2e6b8ae0470e1ae5337bd1cd1ff0de35e8",
          "transactionIndex": "0x4",
          "logIndex": "0x2",
          "removed": false
        }
      ],
      "logsBloom": "0x00000000040000000400000000000000000000004000000000000000000000000080000000000800000000000000000000000000000000000000000000200000000000000000000000000000000000000200000000000000000000000000000000000000000000000000000000000000000000000000000000000000000000000000000000000000000000000000000000000000000000000000000000000000020000000000000000000000000000000000080080000000000000000000400000000000000000000000000000000000000000000000000000000000000000000010000000000000000000000000000000000000000000000000000000000000",
      "type": "0x2",
      "transactionHash": "0xa7762e64edb5a9ffc7910933fb34ba2e6b8ae0470e1ae5337bd1cd1ff0de35e8",
      "transactionIndex": "0x4",
      "blockHash": "0x339c2e39356f7704069a58f13138cd6e68bf74b49a8b9bb960b601cacbec00af",
      "blockNumber": "0x2ccf757",
      "gasUsed": "0x67da",
      "effectiveGasPrice": "0x7a121",
      "blobGasUsed": "0x9c40",
      "from": "0xe05fcc23807536bee418f142d19fa0d21bb0cff7",
      "to": "0xde08e00a44bbb424efdb7ce7cdbd437581cdf9d5",
      "contractAddress": null,
      "daFootprintGasScalar": "0x190",
      "l1BaseFeeScalar": "0x7d0",
      "l1BlobBaseFee": "0x1",
      "l1BlobBaseFeeScalar": "0xdbba0",
      "l1Fee": "0x7d",
      "l1GasPrice": "0xb",
      "l1GasUsed": "0x640"
    },
    {
      "status": "0x1",
      "cumulativeGasUsed": "0x5c752",
      "logs": [
        {
          "address": "0x000000000022d473030f116ddee9f6b43ac78ba3",
          "topics": [
            "0xda9fa7c1b00402c17d0161b249b1ab8bbec047c5a52207b9c112deffd817036b",
            "0x000000000000000000000000e05fcc23807536bee418f142d19fa0d21bb0cff7",
            "0x000000000000000000000000de08e00a44bbb424efdb7ce7cdbd437581cdf9d5",
            "0x000000000000000000000000f969aee60879c54baaed9f3ed26147db216fd664"
          ],
          "data": "0x000000000000000000000000ffffffffffffffffffffffffffffffffffffffff0000000000000000000000000000000000000000000000000000ffffffffffff",
          "blockHash": "0xad44fc48bb52546f19ac168bdf02dcf61a7e73e0772bda53330afe49966a3a09",
          "blockNumber": "0x2ccf759",
          "blockTimestamp": "0x69baa4a5",
          "transactionHash": "0xf728c215d302996f141ea7706e2c1d81121e3fd097a00d9fb25a19971bf2e1b5",
          "transactionIndex": "0x5",
          "logIndex": "0x3",
          "removed": false
        }
      ],
      "logsBloom": "0x00010000000000000000000000000000000000000000000000000000000000000000000000000800000000000000000000000000000000000000000000080000000000000000000000000000000000000200000000000000000000001000000000001000000000000000000000000000000000000040000000000000000000002020000000000000000000000000000000000000000000000000000000000000000000000000000000000000000000000000000000000000000000080000400000000000000000000000000000000000000000000000000040000000000000000000000000000000000000000000000000000000000000000000000000002400",
      "type": "0x2",
      "transactionHash": "0xf728c215d302996f141ea7706e2c1d81121e3fd097a00d9fb25a19971bf2e1b5",
      "transactionIndex": "0x5",
      "blockHash": "0xad44fc48bb52546f19ac168bdf02dcf61a7e73e0772bda53330afe49966a3a09",
      "blockNumber": "0x2ccf759",
      "gasUsed": "0x6d0e",
      "effectiveGasPrice": "0x7a121",
      "blobGasUsed": "0xa730",
      "from": "0xe05fcc23807536bee418f142d19fa0d21bb0cff7",
      "to": "0x000000000022d473030f116ddee9f6b43ac78ba3",
      "contractAddress": null,
      "daFootprintGasScalar": "0x190",
      "l1BaseFeeScalar": "0x7d0",
      "l1BlobBaseFee": "0x1",
      "l1BlobBaseFeeScalar": "0xdbba0",
      "l1Fee": "0x87",
      "l1GasPrice": "0xb",
      "l1GasUsed": "0x6bf"
    },
    {
      "status": "0x1",
      "cumulativeGasUsed": "0x45720",
      "logs": [
        {
          "address": "0x000000000022d473030f116ddee9f6b43ac78ba3",
          "topics": [
            "0xda9fa7c1b00402c17d0161b249b1ab8bbec047c5a52207b9c112deffd817036b",
            "0x000000000000000000000000e05fcc23807536bee418f142d19fa0d21bb0cff7",
            "0x000000000000000000000000de08e00a44bbb424efdb7ce7cdbd437581cdf9d5",
            "0x00000000000000000000000000b036b58a818b1bc34d502d3fe730db729e62ac"
          ],
          "data": "0x000000000000000000000000ffffffffffffffffffffffffffffffffffffffff0000000000000000000000000000000000000000000000000000ffffffffffff",
          "blockHash": "0x2e446ea4f2080c38dfe2175c2da0da9ce176c635bb7fe5616c1a4cba658fbe9a",
          "blockNumber": "0x2ccf75b",
          "blockTimestamp": "0x69baa4a7",
          "transactionHash": "0xad1f0e93ac326dffa7c9f8ad7ba10a3cd05681489b26ef71a4c42c1f4e9180d2",
          "transactionIndex": "0x4",
          "logIndex": "0x2",
          "removed": false
        }
      ],
      "logsBloom": "0x00010000000000000000000000000000000000000000000000000000000000000000000000000800000000000000000000000000001000000000000000080000000000000000000000000000000000000200000000000000000000000000000000001000000000000000000000004000000000000000000000000000000000002020000000000000000000000000000000000000000000000000000000000000000000000000000000000000000000000000000000000020000000080000400000000000000000000000000000000000000000000000000040000000000000000000000000000000000000000000000000000000000000000000000000000400",
      "type": "0x2",
      "transactionHash": "0xad1f0e93ac326dffa7c9f8ad7ba10a3cd05681489b26ef71a4c42c1f4e9180d2",
      "transactionIndex": "0x4",
      "blockHash": "0x2e446ea4f2080c38dfe2175c2da0da9ce176c635bb7fe5616c1a4cba658fbe9a",
      "blockNumber": "0x2ccf75b",
      "gasUsed": "0x6d02",
      "effectiveGasPrice": "0x7a121",
      "blobGasUsed": "0xa730",
      "from": "0xe05fcc23807536bee418f142d19fa0d21bb0cff7",
      "to": "0x000000000022d473030f116ddee9f6b43ac78ba3",
      "contractAddress": null,
      "daFootprintGasScalar": "0x190",
      "l1BaseFeeScalar": "0x7d0",
      "l1BlobBaseFee": "0x1",
      "l1BlobBaseFeeScalar": "0xdbba0",
      "l1Fee": "0x86",
      "l1GasPrice": "0xb",
      "l1GasUsed": "0x6b2"
    },
    {
      "status": "0x1",
      "cumulativeGasUsed": "0x5c236",
      "logs": [
        {
          "address": "0xde08e00a44bbb424efdb7ce7cdbd437581cdf9d5",
          "topics": [
            "0x8c5be1e5ebec7d5bd14f71427d1e84f3dd0314c0f7b2291e5b200ac8c7c3b925",
            "0x000000000000000000000000e05fcc23807536bee418f142d19fa0d21bb0cff7",
            "0x000000000000000000000000c64a3ac9ba9c3d69bec599abe4910ac17ca61dbf"
          ],
          "data": "0xffffffffffffffffffffffffffffffffffffffffffffffffffffffffffffffff",
          "blockHash": "0xd9ddbb4abed25f0a426afecc82c9c37707e4c0210696e1b275620cdd054bd4b7",
          "blockNumber": "0x2ccf75d",
          "blockTimestamp": "0x69baa4a9",
          "transactionHash": "0x83ce15df51039e71dd7fafcbddc650ef4180122392e4ac958e42a74e4ca243c9",
          "transactionIndex": "0x5",
          "logIndex": "0x3",
          "removed": false
        }
      ],
      "logsBloom": "0x00000000040000000400000000000000000000000000000000000000000000000000000000000800000000000000000000000000000000000000000000200000000000000000000000000000000000000200000000000000000000000080000000000000000000000000000000020000020000000000000000000000000000000000000000000000000000000000000000000000000000000000000000000000020000000000000000000000000000000000000080000000000000000000400000000000000000000000000000000000000000000000000000000000000000000010000000000000000000000000000000000000000000000000000000000000",
      "type": "0x2",
      "transactionHash": "0x83ce15df51039e71dd7fafcbddc650ef4180122392e4ac958e42a74e4ca243c9",
      "transactionIndex": "0x5",
      "blockHash": "0xd9ddbb4abed25f0a426afecc82c9c37707e4c0210696e1b275620cdd054bd4b7",
      "blockNumber": "0x2ccf75d",
      "gasUsed": "0x67da",
      "effectiveGasPrice": "0x7a121",
      "blobGasUsed": "0x9c40",
      "from": "0xe05fcc23807536bee418f142d19fa0d21bb0cff7",
      "to": "0xde08e00a44bbb424efdb7ce7cdbd437581cdf9d5",
      "contractAddress": null,
      "daFootprintGasScalar": "0x190",
      "l1BaseFeeScalar": "0x7d0",
      "l1BlobBaseFee": "0x1",
      "l1BlobBaseFeeScalar": "0xdbba0",
      "l1Fee": "0x7d",
      "l1GasPrice": "0xb",
      "l1GasUsed": "0x640"
    },
    {
      "status": "0x1",
      "cumulativeGasUsed": "0x8b02e",
      "logs": [
        {
          "address": "0xde08e00a44bbb424efdb7ce7cdbd437581cdf9d5",
          "topics": [
            "0xddf252ad1be2c89b69c2b068fc378daa952ba7f163c4a11628f55a4df523b3ef",
            "0x000000000000000000000000e05fcc23807536bee418f142d19fa0d21bb0cff7",
            "0x000000000000000000000000c64a3ac9ba9c3d69bec599abe4910ac17ca61dbf"
          ],
          "data": "0x000000000000000000000000000000000000000000000001158e460913d00000",
          "blockHash": "0xb5863f3506547d883aa4a3e077144472dfd56d93b3fd276ada41ebadac200244",
          "blockNumber": "0x2ccf75f",
          "blockTimestamp": "0x69baa4ab",
          "transactionHash": "0x79e81502fda9c785c0baf424857651f8d4ea0868d40537ff8bd12bebfe21a163",
          "transactionIndex": "0x6",
          "logIndex": "0x7",
          "removed": false
        },
        {
          "address": "0xc6f1f11579ebde2a16d0564aa795bacdbc744e83",
          "topics": [
            "0xddf252ad1be2c89b69c2b068fc378daa952ba7f163c4a11628f55a4df523b3ef",
            "0x0000000000000000000000000000000000000000000000000000000000000000",
            "0x000000000000000000000000e05fcc23807536bee418f142d19fa0d21bb0cff7"
          ],
          "data": "0x0000000000000000000000000000000000000000000000010bad4424acbf7c1b",
          "blockHash": "0xb5863f3506547d883aa4a3e077144472dfd56d93b3fd276ada41ebadac200244",
          "blockNumber": "0x2ccf75f",
          "blockTimestamp": "0x69baa4ab",
          "transactionHash": "0x79e81502fda9c785c0baf424857651f8d4ea0868d40537ff8bd12bebfe21a163",
          "transactionIndex": "0x6",
          "logIndex": "0x8",
          "removed": false
        },
        {
          "address": "0xc64a3ac9ba9c3d69bec599abe4910ac17ca61dbf",
          "topics": [
            "0xd5103f333769455df788908e17b0f6f83838ebeae2cd1ed6f23ec20dad88c9a3",
            "0x000000000000000000000000e05fcc23807536bee418f142d19fa0d21bb0cff7"
          ],
          "data": "0x0000000000000000000000000000000000000000000000010bad4424acbf7c1b000000000000000000000000000000000000000000000001158e460913d00000",
          "blockHash": "0xb5863f3506547d883aa4a3e077144472dfd56d93b3fd276ada41ebadac200244",
          "blockNumber": "0x2ccf75f",
          "blockTimestamp": "0x69baa4ab",
          "transactionHash": "0x79e81502fda9c785c0baf424857651f8d4ea0868d40537ff8bd12bebfe21a163",
          "transactionIndex": "0x6",
          "logIndex": "0x9",
          "removed": false
        }
      ],
      "logsBloom": "0x00000000040000000400000000000000000000000000000800000000000000000000000000000800000400000000000000000000000000000000000000000000000000000000000000000008000000000200000080000000000000000080000000000001020000000000000000020800020000000000800000000010000000000000000000000000000000000000000000000000000000000080000040000000000000000000000000020000000000000000000080000000000000000000400000000002000000000000000000000000000000000000000000000000000020000000000000000000000000000000000000000000000000000000000002000000",
      "type": "0x2",
      "transactionHash": "0x79e81502fda9c785c0baf424857651f8d4ea0868d40537ff8bd12bebfe21a163",
      "transactionIndex": "0x6",
      "blockHash": "0xb5863f3506547d883aa4a3e077144472dfd56d93b3fd276ada41ebadac200244",
      "blockNumber": "0x2ccf75f",
      "gasUsed": "0xf48f",
      "effectiveGasPrice": "0x7a121",
      "blobGasUsed": "0x9c40",
      "from": "0xe05fcc23807536bee418f142d19fa0d21bb0cff7",
      "to": "0xc64a3ac9ba9c3d69bec599abe4910ac17ca61dbf",
      "contractAddress": null,
      "daFootprintGasScalar": "0x190",
      "l1BaseFeeScalar": "0x7d0",
      "l1BlobBaseFee": "0x1",
      "l1BlobBaseFeeScalar": "0xdbba0",
      "l1Fee": "0x7d",
      "l1GasPrice": "0xb",
      "l1GasUsed": "0x640"
    },
    {
      "status": "0x1",
      "cumulativeGasUsed": "0x8b794",
      "logs": [
        {
          "address": "0x00b036b58a818b1bc34d502d3fe730db729e62ac",
          "topics": [
            "0x40e9cecb9f5f1f1c5b9c97dec2917b7ee92e57ba5563708daca94dd84ad7112f",
            "0xc0ac8571814cbcd40a92e08108250971af6b21b121898dc7ddbaeee3c6b25a0b",
            "0x0000000000000000000000009cd2b0a732dd5e023a5539921e0fd1c30e198dba"
          ],
          "data": "0xffffffffffffffffffffffffffffffffffffffffffffffff7538dcfb761800000000000000000000000000000000000000000000000000005c57b33de7fcb8d40000000000000000000000000000000000000000ccec46b2cb9748cc835b097c00000000000000000000000000000000000000000000000ad78ebc5ac6200000ffffffffffffffffffffffffffffffffffffffffffffffffffffffffffffee9c0000000000000000000000000000000000000000000000000000000000000bb8",
          "blockHash": "0x28b20585f5ff8cf99da85385f6a139f13657d094e8efc55a568531f6366accbc",
          "blockNumber": "0x2ccf761",
          "blockTimestamp": "0x69baa4ad",
          "transactionHash": "0xcab92523142a99d888953ab064b296ad124785738c98f343e58d5fe7350feeaa",
          "transactionIndex": "0x5",
          "logIndex": "0x6",
          "removed": false
        },
        {
          "address": "0xde08e00a44bbb424efdb7ce7cdbd437581cdf9d5",
          "topics": [
            "0xddf252ad1be2c89b69c2b068fc378daa952ba7f163c4a11628f55a4df523b3ef",
            "0x00000000000000000000000000b036b58a818b1bc34d502d3fe730db729e62ac",
            "0x000000000000000000000000c64a3ac9ba9c3d69bec599abe4910ac17ca61dbf"
          ],
          "data": "0x000000000000000000000000000000000000000000000000049dfc297ecca2d7",
          "blockHash": "0x28b20585f5ff8cf99da85385f6a139f13657d094e8efc55a568531f6366accbc",
          "blockNumber": "0x2ccf761",
          "blockTimestamp": "0x69baa4ad",
          "transactionHash": "0xcab92523142a99d888953ab064b296ad124785738c98f343e58d5fe7350feeaa",
          "transactionIndex": "0x5",
          "logIndex": "0x7",
          "removed": false
        },
        {
          "address": "0xde08e00a44bbb424efdb7ce7cdbd437581cdf9d5",
          "topics": [
            "0xddf252ad1be2c89b69c2b068fc378daa952ba7f163c4a11628f55a4df523b3ef",
            "0x000000000000000000000000c64a3ac9ba9c3d69bec599abe4910ac17ca61dbf",
            "0x0000000000000000000000004b992f2fbf714c0fcbb23bac5130ace48cad00cd"
          ],
          "data": "0x000000000000000000000000000000000000000000000000007632d0f31476af",
          "blockHash": "0x28b20585f5ff8cf99da85385f6a139f13657d094e8efc55a568531f6366accbc",
          "blockNumber": "0x2ccf761",
          "blockTimestamp": "0x69baa4ad",
          "transactionHash": "0xcab92523142a99d888953ab064b296ad124785738c98f343e58d5fe7350feeaa",
          "transactionIndex": "0x5",
          "logIndex": "0x8",
          "removed": false
        },
        {
          "address": "0xc64a3ac9ba9c3d69bec599abe4910ac17ca61dbf",
          "topics": [
            "0xb6f59e901022ff40ab92779378b2a40353b844fbe50bf360b3419f157f9460f4",
            "0xc0ac8571814cbcd40a92e08108250971af6b21b121898dc7ddbaeee3c6b25a0b"
          ],
          "data": "0x000000000000000000000000000000000000000000000000049dfc297ecca2d7000000000000000000000000de08e00a44bbb424efdb7ce7cdbd437581cdf9d5",
          "blockHash": "0x28b20585f5ff8cf99da85385f6a139f13657d094e8efc55a568531f6366accbc",
          "blockNumber": "0x2ccf761",
          "blockTimestamp": "0x69baa4ad",
          "transactionHash": "0xcab92523142a99d888953ab064b296ad124785738c98f343e58d5fe7350feeaa",
          "transactionIndex": "0x5",
          "logIndex": "0x9",
          "removed": false
        },
        {
          "address": "0x3fdf7f893e7e8aabc9829c9080058e7d06ee40c4",
          "topics": [
            "0xb6f59e901022ff40ab92779378b2a40353b844fbe50bf360b3419f157f9460f4",
            "0xc0ac8571814cbcd40a92e08108250971af6b21b121898dc7ddbaeee3c6b25a0b"
          ],
          "data": "0x000000000000000000000000000000000000000000000000049dfc297ecca2d7000000000000000000000000de08e00a44bbb424efdb7ce7cdbd437581cdf9d5",
          "blockHash": "0x28b20585f5ff8cf99da85385f6a139f13657d094e8efc55a568531f6366accbc",
          "blockNumber": "0x2ccf761",
          "blockTimestamp": "0x69baa4ad",
          "transactionHash": "0xcab92523142a99d888953ab064b296ad124785738c98f343e58d5fe7350feeaa",
          "transactionIndex": "0x5",
          "logIndex": "0xa",
          "removed": false
        },
        {
          "address": "0x453a3fdbccc2476eaaa13c01cb17761eec9a0d28",
          "topics": [
            "0xddf252ad1be2c89b69c2b068fc378daa952ba7f163c4a11628f55a4df523b3ef",
            "0x000000000000000000000000e05fcc23807536bee418f142d19fa0d21bb0cff7",
            "0x00000000000000000000000000b036b58a818b1bc34d502d3fe730db729e62ac"
          ],
          "data": "0x0000000000000000000000000000000000000000000000008ac7230489e80000",
          "blockHash": "0x28b20585f5ff8cf99da85385f6a139f13657d094e8efc55a568531f6366accbc",
          "blockNumber": "0x2ccf761",
          "blockTimestamp": "0x69baa4ad",
          "transactionHash": "0xcab92523142a99d888953ab064b296ad124785738c98f343e58d5fe7350feeaa",
          "transactionIndex": "0x5",
          "logIndex": "0xb",
          "removed": false
        },
        {
          "address": "0xde08e00a44bbb424efdb7ce7cdbd437581cdf9d5",
          "topics": [
            "0xddf252ad1be2c89b69c2b068fc378daa952ba7f163c4a11628f55a4df523b3ef",
            "0x00000000000000000000000000b036b58a818b1bc34d502d3fe730db729e62ac",
            "0x000000000000000000000000e05fcc23807536bee418f142d19fa0d21bb0cff7"
          ],
          "data": "0x00000000000000000000000000000000000000000000000057b9b714693015fd",
          "blockHash": "0x28b20585f5ff8cf99da85385f6a139f13657d094e8efc55a568531f6366accbc",
          "blockNumber": "0x2ccf761",
          "blockTimestamp": "0x69baa4ad",
          "transactionHash": "0xcab92523142a99d888953ab064b296ad124785738c98f343e58d5fe7350feeaa",
          "transactionIndex": "0x5",
          "logIndex": "0xc",
          "removed": false
        }
      ],
      "logsBloom": "0x00000000040000000400000000000000000000404000000000000000000000000080000000000800008004000000000000000002051000000000000000000000000000000000000000000008000000100200000000000020000102000080000000000001000200000000000000024000020000000000800000000010000000008000000400000000000000000008000000000000000000000000000000000000000000000000000000000000000000000000080080000020000000000000400000000002000000000000000000000000000000000000400000000000000000080000000000000000004000000000000000000000000002000000000002100010",
      "type": "0x2",
      "transactionHash": "0xcab92523142a99d888953ab064b296ad124785738c98f343e58d5fe7350feeaa",
      "transactionIndex": "0x5",
      "blockHash": "0x28b20585f5ff8cf99da85385f6a139f13657d094e8efc55a568531f6366accbc",
      "blockNumber": "0x2ccf761",
      "gasUsed": "0x28095",
      "effectiveGasPrice": "0x7a121",
      "blobGasUsed": "0x12750",
      "from": "0xe05fcc23807536bee418f142d19fa0d21bb0cff7",
      "to": "0x9cd2b0a732dd5e023a5539921e0fd1c30e198dba",
      "contractAddress": null,
      "daFootprintGasScalar": "0x190",
      "l1BaseFeeScalar": "0x7d0",
      "l1BlobBaseFee": "0x1",
      "l1BlobBaseFeeScalar": "0xdbba0",
      "l1Fee": "0xec",
      "l1GasPrice": "0xb",
      "l1GasUsed": "0xbd1"
    },
    {
      "status": "0x1",
      "cumulativeGasUsed": "0x66acf",
      "logs": [
        {
          "address": "0x00b036b58a818b1bc34d502d3fe730db729e62ac",
          "topics": [
            "0x40e9cecb9f5f1f1c5b9c97dec2917b7ee92e57ba5563708daca94dd84ad7112f",
            "0xc0ac8571814cbcd40a92e08108250971af6b21b121898dc7ddbaeee3c6b25a0b",
            "0x0000000000000000000000009cd2b0a732dd5e023a5539921e0fd1c30e198dba"
          ],
          "data": "0xffffffffffffffffffffffffffffffffffffffffffffffff7538dcfb7618000000000000000000000000000000000000000000000000000055417603a24210080000000000000000000000000000000000000000c50f3b9232cd4bed519a32f800000000000000000000000000000000000000000000000ad78ebc5ac6200000ffffffffffffffffffffffffffffffffffffffffffffffffffffffffffffeb8e0000000000000000000000000000000000000000000000000000000000000bb8",
          "blockHash": "0x5f88328dbe1fd356976050a348619f784a87f4c4b6665ed31cf99bd4cbd6b6fe",
          "blockNumber": "0x2ccf763",
          "blockTimestamp": "0x69baa4af",
          "transactionHash": "0x15842f71ad53912d10f188f3f1b1333119cc4329eba52b0addeb2c3d228db510",
          "transactionIndex": "0x4",
          "logIndex": "0x2",
          "removed": false
        },
        {
          "address": "0xde08e00a44bbb424efdb7ce7cdbd437581cdf9d5",
          "topics": [
            "0xddf252ad1be2c89b69c2b068fc378daa952ba7f163c4a11628f55a4df523b3ef",
            "0x00000000000000000000000000b036b58a818b1bc34d502d3fe730db729e62ac",
            "0x000000000000000000000000c64a3ac9ba9c3d69bec599abe4910ac17ca61dbf"
          ],
          "data": "0x000000000000000000000000000000000000000000000000044345e694e9b400",
          "blockHash": "0x5f88328dbe1fd356976050a348619f784a87f4c4b6665ed31cf99bd4cbd6b6fe",
          "blockNumber": "0x2ccf763",
          "blockTimestamp": "0x69baa4af",
          "transactionHash": "0x15842f71ad53912d10f188f3f1b1333119cc4329eba52b0addeb2c3d228db510",
          "transactionIndex": "0x4",
          "logIndex": "0x3",
          "removed": false
        },
        {
          "address": "0xde08e00a44bbb424efdb7ce7cdbd437581cdf9d5",
          "topics": [
            "0xddf252ad1be2c89b69c2b068fc378daa952ba7f163c4a11628f55a4df523b3ef",
            "0x000000000000000000000000c64a3ac9ba9c3d69bec599abe4910ac17ca61dbf",
            "0x0000000000000000000000004b992f2fbf714c0fcbb23bac5130ace48cad00cd"
          ],
          "data": "0x000000000000000000000000000000000000000000000000006d20970ee42b99",
          "blockHash": "0x5f88328dbe1fd356976050a348619f784a87f4c4b6665ed31cf99bd4cbd6b6fe",
          "blockNumber": "0x2ccf763",
          "blockTimestamp": "0x69baa4af",
          "transactionHash": "0x15842f71ad53912d10f188f3f1b1333119cc4329eba52b0addeb2c3d228db510",
          "transactionIndex": "0x4",
          "logIndex": "0x4",
          "removed": false
        },
        {
          "address": "0xc64a3ac9ba9c3d69bec599abe4910ac17ca61dbf",
          "topics": [
            "0xb6f59e901022ff40ab92779378b2a40353b844fbe50bf360b3419f157f9460f4",
            "0xc0ac8571814cbcd40a92e08108250971af6b21b121898dc7ddbaeee3c6b25a0b"
          ],
          "data": "0x000000000000000000000000000000000000000000000000044345e694e9b400000000000000000000000000de08e00a44bbb424efdb7ce7cdbd437581cdf9d5",
          "blockHash": "0x5f88328dbe1fd356976050a348619f784a87f4c4b6665ed31cf99bd4cbd6b6fe",
          "blockNumber": "0x2ccf763",
          "blockTimestamp": "0x69baa4af",
          "transactionHash": "0x15842f71ad53912d10f188f3f1b1333119cc4329eba52b0addeb2c3d228db510",
          "transactionIndex": "0x4",
          "logIndex": "0x5",
          "removed": false
        },
        {
          "address": "0x3fdf7f893e7e8aabc9829c9080058e7d06ee40c4",
          "topics": [
            "0xb6f59e901022ff40ab92779378b2a40353b844fbe50bf360b3419f157f9460f4",
            "0xc0ac8571814cbcd40a92e08108250971af6b21b121898dc7ddbaeee3c6b25a0b"
          ],
          "data": "0x000000000000000000000000000000000000000000000000044345e694e9b400000000000000000000000000de08e00a44bbb424efdb7ce7cdbd437581cdf9d5",
          "blockHash": "0x5f88328dbe1fd356976050a348619f784a87f4c4b6665ed31cf99bd4cbd6b6fe",
          "blockNumber": "0x2ccf763",
          "blockTimestamp": "0x69baa4af",
          "transactionHash": "0x15842f71ad53912d10f188f3f1b1333119cc4329eba52b0addeb2c3d228db510",
          "transactionIndex": "0x4",
          "logIndex": "0x6",
          "removed": false
        },
        {
          "address": "0x453a3fdbccc2476eaaa13c01cb17761eec9a0d28",
          "topics": [
            "0xddf252ad1be2c89b69c2b068fc378daa952ba7f163c4a11628f55a4df523b3ef",
            "0x000000000000000000000000e05fcc23807536bee418f142d19fa0d21bb0cff7",
            "0x00000000000000000000000000b036b58a818b1bc34d502d3fe730db729e62ac"
          ],
          "data": "0x0000000000000000000000000000000000000000000000008ac7230489e80000",
          "blockHash": "0x5f88328dbe1fd356976050a348619f784a87f4c4b6665ed31cf99bd4cbd6b6fe",
          "blockNumber": "0x2ccf763",
          "blockTimestamp": "0x69baa4af",
          "transactionHash": "0x15842f71ad53912d10f188f3f1b1333119cc4329eba52b0addeb2c3d228db510",
          "transactionIndex": "0x4",
          "logIndex": "0x7",
          "removed": false
        },
        {
          "address": "0xde08e00a44bbb424efdb7ce7cdbd437581cdf9d5",
          "topics": [
            "0xddf252ad1be2c89b69c2b068fc378daa952ba7f163c4a11628f55a4df523b3ef",
            "0x00000000000000000000000000b036b58a818b1bc34d502d3fe730db729e62ac",
            "0x000000000000000000000000e05fcc23807536bee418f142d19fa0d21bb0cff7"
          ],
          "data": "0x00000000000000000000000000000000000000000000000050fe301d0d585c08",
          "blockHash": "0x5f88328dbe1fd356976050a348619f784a87f4c4b6665ed31cf99bd4cbd6b6fe",
          "blockNumber": "0x2ccf763",
          "blockTimestamp": "0x69baa4af",
          "transactionHash": "0x15842f71ad53912d10f188f3f1b1333119cc4329eba52b0addeb2c3d228db510",
          "transactionIndex": "0x4",
          "logIndex": "0x8",
          "removed": false
        }
      ],
      "logsBloom": "0x00000000040000000400000000000000000000404000000000000000000000000080000000000800008004000000000000000002051000000000000000000000000000000000000000000008000000100200000000000020000102000080000000000001000200000000000000024000020000000000800000000010000000008000000400000000000000000008000000000000000000000000000000000000000000000000000000000000000000000000080080000020000000000000400000000002000000000000000000000000000000000000400000000000000000080000000000000000004000000000000000000000000002000000000002100010",
      "type": "0x2",
      "transactionHash": "0x15842f71ad53912d10f188f3f1b1333119cc4329eba52b0addeb2c3d228db510",
      "transactionIndex": "0x4",
      "blockHash": "0x5f88328dbe1fd356976050a348619f784a87f4c4b6665ed31cf99bd4cbd6b6fe",
      "blockNumber": "0x2ccf763",
      "gasUsed": "0x280b1",
      "effectiveGasPrice": "0x7a121",
      "blobGasUsed": "0x12750",
      "from": "0xe05fcc23807536bee418f142d19fa0d21bb0cff7",
      "to": "0x9cd2b0a732dd5e023a5539921e0fd1c30e198dba",
      "contractAddress": null,
      "daFootprintGasScalar": "0x190",
      "l1BaseFeeScalar": "0x7d0",
      "l1BlobBaseFee": "0x1",
      "l1BlobBaseFeeScalar": "0xdbba0",
      "l1Fee": "0xec",
      "l1GasPrice": "0xb",
      "l1GasUsed": "0xbd1"
    },
    {
      "status": "0x1",
      "cumulativeGasUsed": "0x92d78",
      "logs": [
        {
          "address": "0xde08e00a44bbb424efdb7ce7cdbd437581cdf9d5",
          "topics": [
            "0x8c5be1e5ebec7d5bd14f71427d1e84f3dd0314c0f7b2291e5b200ac8c7c3b925",
            "0x000000000000000000000000c64a3ac9ba9c3d69bec599abe4910ac17ca61dbf",
            "0x0000000000000000000000002705b31114e379f273c3ce7acb18a5e9517fe3bc"
          ],
          "data": "0x0000000000000000000000000000000000000000000000000027147114878000",
          "blockHash": "0x9d60934aefd24b8840d31407a2a7d6906a8b059a3f773677c3b0cd22983b0751",
          "blockNumber": "0x2ccf765",
          "blockTimestamp": "0x69baa4b1",
          "transactionHash": "0xfb527268ed780eb2b8b74cbe5bc2d59ab494fe3d63ad981da9b6d0af7d17cd67",
          "transactionIndex": "0x5",
          "logIndex": "0x3",
          "removed": false
        },
        {
          "address": "0xde08e00a44bbb424efdb7ce7cdbd437581cdf9d5",
          "topics": [
            "0xddf252ad1be2c89b69c2b068fc378daa952ba7f163c4a11628f55a4df523b3ef",
            "0x000000000000000000000000c64a3ac9ba9c3d69bec599abe4910ac17ca61dbf",
            "0x0000000000000000000000002705b31114e379f273c3ce7acb18a5e9517fe3bc"
          ],
          "data": "0x0000000000000000000000000000000000000000000000000027147114878000",
          "blockHash": "0x9d60934aefd24b8840d31407a2a7d6906a8b059a3f773677c3b0cd22983b0751",
          "blockNumber": "0x2ccf765",
          "blockTimestamp": "0x69baa4b1",
          "transactionHash": "0xfb527268ed780eb2b8b74cbe5bc2d59ab494fe3d63ad981da9b6d0af7d17cd67",
          "transactionIndex": "0x5",
          "logIndex": "0x4",
          "removed": false
        },
        {
          "address": "0x5bbe893b91e2166d15926c3dba5d0f513e323264",
          "topics": [
            "0xddf252ad1be2c89b69c2b068fc378daa952ba7f163c4a11628f55a4df523b3ef",
            "0x0000000000000000000000000000000000000000000000000000000000000000",
            "0x0000000000000000000000002705b31114e379f273c3ce7acb18a5e9517fe3bc",
            "0x0000000000000000000000000000000000000000000000000000000000000002"
          ],
          "data": "0x",
          "blockHash": "0x9d60934aefd24b8840d31407a2a7d6906a8b059a3f773677c3b0cd22983b0751",
          "blockNumber": "0x2ccf765",
          "blockTimestamp": "0x69baa4b1",
          "transactionHash": "0xfb527268ed780eb2b8b74cbe5bc2d59ab494fe3d63ad981da9b6d0af7d17cd67",
          "transactionIndex": "0x5",
          "logIndex": "0x5",
          "removed": false
        },
        {
          "address": "0x5bbe893b91e2166d15926c3dba5d0f513e323264",
          "topics": [
            "0xddf252ad1be2c89b69c2b068fc378daa952ba7f163c4a11628f55a4df523b3ef",
            "0x0000000000000000000000002705b31114e379f273c3ce7acb18a5e9517fe3bc",
            "0x0000000000000000000000005b101fe55e4256b43403de8520fa6d606d7031e7",
            "0x0000000000000000000000000000000000000000000000000000000000000002"
          ],
          "data": "0x",
          "blockHash": "0x9d60934aefd24b8840d31407a2a7d6906a8b059a3f773677c3b0cd22983b0751",
          "blockNumber": "0x2ccf765",
          "blockTimestamp": "0x69baa4b1",
          "transactionHash": "0xfb527268ed780eb2b8b74cbe5bc2d59ab494fe3d63ad981da9b6d0af7d17cd67",
          "transactionIndex": "0x5",
          "logIndex": "0x6",
          "removed": false
        },
        {
          "address": "0x2705b31114e379f273c3ce7acb18a5e9517fe3bc",
          "topics": [
            "0x84a34755616a04d6e547597ec5933d7ca8cf181bb354026be7e93e147edf0ab7",
            "0x000000000000000000000000c64a3ac9ba9c3d69bec599abe4910ac17ca61dbf",
            "0x0000000000000000000000005b101fe55e4256b43403de8520fa6d606d7031e7",
            "0x0000000000000000000000000000000000000000000000000000000000000002"
          ],
          "data": "0x0000000000000000000000000000000000000000000000000027147114878000",
          "blockHash": "0x9d60934aefd24b8840d31407a2a7d6906a8b059a3f773677c3b0cd22983b0751",
          "blockNumber": "0x2ccf765",
          "blockTimestamp": "0x69baa4b1",
          "transactionHash": "0xfb527268ed780eb2b8b74cbe5bc2d59ab494fe3d63ad981da9b6d0af7d17cd67",
          "transactionIndex": "0x5",
          "logIndex": "0x7",
          "removed": false
        },
        {
          "address": "0x5b101fe55e4256b43403de8520fa6d606d7031e7",
          "topics": [
            "0x8b410bfb90b4ae1c8e7e688b87fbbedcf5443bfbb08c805d58963d8f906f4390",
            "0xc0ac8571814cbcd40a92e08108250971af6b21b121898dc7ddbaeee3c6b25a0b",
            "0x0000000000000000000000005bbe893b91e2166d15926c3dba5d0f513e323264"
          ],
          "data": "0x00000000000000000000000000000000000000000000000000000000000000020000000000000000000000000000000000000000000000000027147114878000",
          "blockHash": "0x9d60934aefd24b8840d31407a2a7d6906a8b059a3f773677c3b0cd22983b0751",
          "blockNumber": "0x2ccf765",
          "blockTimestamp": "0x69baa4b1",
          "transactionHash": "0xfb527268ed780eb2b8b74cbe5bc2d59ab494fe3d63ad981da9b6d0af7d17cd67",
          "transactionIndex": "0x5",
          "logIndex": "0x8",
          "removed": false
        },
        {
          "address": "0xc64a3ac9ba9c3d69bec599abe4910ac17ca61dbf",
          "topics": [
            "0xd36555ff44f1db67b481d561c0158d8544dd80030cc6a4135609b077be38c8ab",
            "0xc0ac8571814cbcd40a92e08108250971af6b21b121898dc7ddbaeee3c6b25a0b",
            "0x0000000000000000000000005bbe893b91e2166d15926c3dba5d0f513e323264",
            "0x0000000000000000000000000000000000000000000000000000000000000002"
          ],
          "data": "0x0000000000000000000000000000000000000000000000000027147114878000",
          "blockHash": "0x9d60934aefd24b8840d31407a2a7d6906a8b059a3f773677c3b0cd22983b0751",
          "blockNumber": "0x2ccf765",
          "blockTimestamp": "0x69baa4b1",
          "transactionHash": "0xfb527268ed780eb2b8b74cbe5bc2d59ab494fe3d63ad981da9b6d0af7d17cd67",
          "transactionIndex": "0x5",
          "logIndex": "0x9",
          "removed": false
        }
      ],
      "logsBloom": "0x14200000040000000400000000000000000000000000000000000000000000000000000008000008000000000000000000000000010400000000000000200000000000000000000000000008000000000000000000800000000000000080008000000001020000000000000000020800020100000000800000800010100000008000000400000000000000000000000009000000000000000000000000001000020000000000000000010100000000400000000080000000100800000000000001000002000000000000000080000000800000000000400802000000000020000010000000000000000000000000000000000000008100000000000002000020",
      "type": "0x2",
      "transactionHash": "0xfb527268ed780eb2b8b74cbe5bc2d59ab494fe3d63ad981da9b6d0af7d17cd67",
      "transactionIndex": "0x5",
      "blockHash": "0x9d60934aefd24b8840d31407a2a7d6906a8b059a3f773677c3b0cd22983b0751",
      "blockNumber": "0x2ccf765",
      "gasUsed": "0x3d328",
      "effectiveGasPrice": "0x7a121",
      "blobGasUsed": "0x9c40",
      "from": "0xe05fcc23807536bee418f142d19fa0d21bb0cff7",
      "to": "0xc64a3ac9ba9c3d69bec599abe4910ac17ca61dbf",
      "contractAddress": null,
      "daFootprintGasScalar": "0x190",
      "l1BaseFeeScalar": "0x7d0",
      "l1BlobBaseFee": "0x1",
      "l1BlobBaseFeeScalar": "0xdbba0",
      "l1Fee": "0x7d",
      "l1GasPrice": "0xb",
      "l1GasUsed": "0x640"
    },
    {
      "status": "0x1",
      "cumulativeGasUsed": "0xd9131",
      "logs": [
        {
          "address": "0xc6f1f11579ebde2a16d0564aa795bacdbc744e83",
          "topics": [
            "0xddf252ad1be2c89b69c2b068fc378daa952ba7f163c4a11628f55a4df523b3ef",
            "0x000000000000000000000000e05fcc23807536bee418f142d19fa0d21bb0cff7",
            "0x0000000000000000000000000000000000000000000000000000000000000000"
          ],
          "data": "0x000000000000000000000000000000000000000000000000cb3a33949b53be0d",
          "blockHash": "0x565c0d2e86ed615879e738127d2c635ecce7cdecf95ae714745d6f7eacf6548c",
          "blockNumber": "0x2ccf767",
          "blockTimestamp": "0x69baa4b3",
          "transactionHash": "0x87fc588a9fe781f0f8156bbd703bea6e1a2b20b9f95aeeeed4c122c55417cc9a",
          "transactionIndex": "0x5",
          "logIndex": "0xb",
          "removed": false
        },
        {
          "address": "0xde08e00a44bbb424efdb7ce7cdbd437581cdf9d5",
          "topics": [
            "0xddf252ad1be2c89b69c2b068fc378daa952ba7f163c4a11628f55a4df523b3ef",
            "0x000000000000000000000000c64a3ac9ba9c3d69bec599abe4910ac17ca61dbf",
            "0x000000000000000000000000e05fcc23807536bee418f142d19fa0d21bb0cff7"
          ],
          "data": "0x000000000000000000000000000000000000000000000000d6a5b79d6ad88c26",
          "blockHash": "0x565c0d2e86ed615879e738127d2c635ecce7cdecf95ae714745d6f7eacf6548c",
          "blockNumber": "0x2ccf767",
          "blockTimestamp": "0x69baa4b3",
          "transactionHash": "0x87fc588a9fe781f0f8156bbd703bea6e1a2b20b9f95aeeeed4c122c55417cc9a",
          "transactionIndex": "0x5",
          "logIndex": "0xc",
          "removed": false
        },
        {
          "address": "0xc64a3ac9ba9c3d69bec599abe4910ac17ca61dbf",
          "topics": [
            "0x8038d1806af22a919dcd5b2a4c313824e515ceb65343ff568379f92a1f323010",
            "0x000000000000000000000000e05fcc23807536bee418f142d19fa0d21bb0cff7"
          ],
          "data": "0x000000000000000000000000000000000000000000000000cb3a33949b53be0d000000000000000000000000000000000000000000000000d6a5b79d6ad88c26",
          "blockHash": "0x565c0d2e86ed615879e738127d2c635ecce7cdecf95ae714745d6f7eacf6548c",
          "blockNumber": "0x2ccf767",
          "blockTimestamp": "0x69baa4b3",
          "transactionHash": "0x87fc588a9fe781f0f8156bbd703bea6e1a2b20b9f95aeeeed4c122c55417cc9a",
          "transactionIndex": "0x5",
          "logIndex": "0xd",
          "removed": false
        }
      ],
      "logsBloom": "0x00000000040000000400000000000000000000000000000800000000000000000000000020000800000000000000000000000000000000000000000000000000000000000000000000000008000000000200000080000000000000040080000000000001020000000000000000020800022000000000800000000010000000000000000000000000000000000000000000000000000000000000000040000000000000000000000000000000000000000000000080000000000000000000400000000002000000000000000000000000000000000000000000000000000020000000000000000000000000000000000000000000000000000000000002000000",
      "type": "0x2",
      "transactionHash": "0x87fc588a9fe781f0f8156bbd703bea6e1a2b20b9f95aeeeed4c122c55417cc9a",
      "transactionIndex": "0x5",
      "blockHash": "0x565c0d2e86ed615879e738127d2c635ecce7cdecf95ae714745d6f7eacf6548c",
      "blockNumber": "0x2ccf767",
      "gasUsed": "0xeb04",
      "effectiveGasPrice": "0x7a121",
      "blobGasUsed": "0x9c40",
      "from": "0xe05fcc23807536bee418f142d19fa0d21bb0cff7",
      "to": "0xc64a3ac9ba9c3d69bec599abe4910ac17ca61dbf",
      "contractAddress": null,
      "daFootprintGasScalar": "0x190",
      "l1BaseFeeScalar": "0x7d0",
      "l1BlobBaseFee": "0x1",
      "l1BlobBaseFeeScalar": "0xdbba0",
      "l1Fee": "0x7d",
      "l1GasPrice": "0xb",
      "l1GasUsed": "0x640"
    }
  ],
  "libraries": [],
  "pending": [],
  "returns": {},
  "timestamp": 1773839539921,
  "chain": 1301,
  "commit": "cd79bd1"
}