{
  "transactions": [
    {
      "hash": "0x8813b69f59227b8af020d412bd9739e0ea9a7a7ab890b1384d63821dc2f15995",
      "transactionType": "CALL",
      "contractName": null,
      "contractAddress": "0xe05fcc23807536bee418f142d19fa0d21bb0cff7",
      "function": null,
      "arguments": null,
      "transaction": {
        "from": "0x4b992f2fbf714c0fcbb23bac5130ace48cad00cd",
        "to": "0xe05fcc23807536bee418f142d19fa0d21bb0cff7",
        "gas": "0x714d",
        "value": "0x470de4df820000",
        "input": "0x",
        "nonce": "0x506",
        "chainId": "0x515"
      },
      "additionalContracts": [],
      "isFixedGasLimit": false
    },
    {
      "hash": "0xfc0760f0f34016a3280e354f8f7b8f1e1e6f523443683106d514356434348210",
      "transactionType": "CALL",
      "contractName": null,
      "contractAddress": "0x453a3fdbccc2476eaaa13c01cb17761eec9a0d28",
      "function": "mint(address,uint256)",
      "arguments": [
        "0x4b992F2Fbf714C0fCBb23baC5130Ace48CaD00cd",
        "200000000000000000000000"
      ],
      "transaction": {
        "from": "0x4b992f2fbf714c0fcbb23bac5130ace48cad00cd",
        "to": "0x453a3fdbccc2476eaaa13c01cb17761eec9a0d28",
        "gas": "0xb816",
        "value": "0x0",
        "input": "0x40c10f190000000000000000000000004b992f2fbf714c0fcbb23bac5130ace48cad00cd000000000000000000000000000000000000000000002a5a058fc295ed000000",
        "nonce": "0x507",
        "chainId": "0x515"
      },
      "additionalContracts": [],
      "isFixedGasLimit": false
    },
    {
      "hash": "0x0a88b23969d7b890e0eeb7a9c3b4f82a44d8e84edcfdeb0a0143cabfcef51017",
      "transactionType": "CALL",
      "contractName": null,
      "contractAddress": "0xde08e00a44bbb424efdb7ce7cdbd437581cdf9d5",
      "function": "mint(address,uint256)",
      "arguments": [
        "0x4b992F2Fbf714C0fCBb23baC5130Ace48CaD00cd",
        "200000000000000000000000"
      ],
      "transaction": {
        "from": "0x4b992f2fbf714c0fcbb23bac5130ace48cad00cd",
        "to": "0xde08e00a44bbb424efdb7ce7cdbd437581cdf9d5",
        "gas": "0xb816",
        "value": "0x0",
        "input": "0x40c10f190000000000000000000000004b992f2fbf714c0fcbb23bac5130ace48cad00cd000000000000000000000000000000000000000000002a5a058fc295ed000000",
        "nonce": "0x508",
        "chainId": "0x515"
      },
      "additionalContracts": [],
      "isFixedGasLimit": false
    },
    {
      "hash": "0xda76030c180d7cca2804c334e7dc9c6a66932c7e77c9fefa80536c285fd46bad",
      "transactionType": "CALL",
      "contractName": null,
      "contractAddress": "0x453a3fdbccc2476eaaa13c01cb17761eec9a0d28",
      "function": "mint(address,uint256)",
      "arguments": [
        "0xe05fcC23807536bEe418f142D19fa0d21BB0cfF7",
        "50000000000000000000000"
      ],
      "transaction": {
        "from": "0x4b992f2fbf714c0fcbb23bac5130ace48cad00cd",
        "to": "0x453a3fdbccc2476eaaa13c01cb17761eec9a0d28",
        "gas": "0x124be",
        "value": "0x0",
        "input": "0x40c10f19000000000000000000000000e05fcc23807536bee418f142d19fa0d21bb0cff7000000000000000000000000000000000000000000000a968163f0a57b400000",
        "nonce": "0x509",
        "chainId": "0x515"
      },
      "additionalContracts": [],
      "isFixedGasLimit": false
    },
    {
      "hash": "0x8150ca61728377d46204c3d613633b91f39ec2b8ad545d93505ec83392c8623a",
      "transactionType": "CALL",
      "contractName": null,
      "contractAddress": "0xde08e00a44bbb424efdb7ce7cdbd437581cdf9d5",
      "function": "mint(address,uint256)",
      "arguments": [
        "0xe05fcC23807536bEe418f142D19fa0d21BB0cfF7",
        "50000000000000000000000"
      ],
      "transaction": {
        "from": "0x4b992f2fbf714c0fcbb23bac5130ace48cad00cd",
        "to": "0xde08e00a44bbb424efdb7ce7cdbd437581cdf9d5",
        "gas": "0x124be",
        "value": "0x0",
        "input": "0x40c10f19000000000000000000000000e05fcc23807536bee418f142d19fa0d21bb0cff7000000000000000000000000000000000000000000000a968163f0a57b400000",
        "nonce": "0x50a",
        "chainId": "0x515"
      },
      "additionalContracts": [],
      "isFixedGasLimit": false
    },
    {
      "hash": "0xd5db3aa88ae9f9f4f2dc9bfceadb309ef5401567376f0a9206fa983ee317899f",
      "transactionType": "CALL",
      "contractName": null,
      "contractAddress": "0x453a3fdbccc2476eaaa13c01cb17761eec9a0d28",
      "function": "approve(address,uint256)",
      "arguments": [
        "0x000000000022D473030F116dDEE9F6B43aC78BA3",
        "115792089237316195423570985008687907853269984665640564039457584007913129639935"
      ],
      "transaction": {
        "from": "0x4b992f2fbf714c0fcbb23bac5130ace48cad00cd",
        "to": "0x453a3fdbccc2476eaaa13c01cb17761eec9a0d28",
        "gas": "0x10939",
        "value": "0x0",
        "input": "0x095ea7b3000000000000000000000000000000000022d473030f116ddee9f6b43ac78ba3ffffffffffffffffffffffffffffffffffffffffffffffffffffffffffffffff",
        "nonce": "0x50b",
        "chainId": "0x515"
      },
      "additionalContracts": [],
      "isFixedGasLimit": false
    },
    {
      "hash": "0x113281c64a2fff4efbccdb773aa046d37501dba58123d4aeb3fe2f406e07afa1",
      "transactionType": "CALL",
      "contractName": null,
      "contractAddress": "0x453a3fdbccc2476eaaa13c01cb17761eec9a0d28",
      "function": "approve(address,uint256)",
      "arguments": [
        "0x9cD2b0a732dd5e023a5539921e0FD1c30E198Dba",
        "115792089237316195423570985008687907853269984665640564039457584007913129639935"
      ],
      "transaction": {
        "from": "0x4b992f2fbf714c0fcbb23bac5130ace48cad00cd",
        "to": "0x453a3fdbccc2476eaaa13c01cb17761eec9a0d28",
        "gas": "0xfad0",
        "value": "0x0",
        "input": "0x095ea7b30000000000000000000000009cd2b0a732dd5e023a5539921e0fd1c30e198dbaffffffffffffffffffffffffffffffffffffffffffffffffffffffffffffffff",
        "nonce": "0x50c",
        "chainId": "0x515"
      },
      "additionalContracts": [],
      "isFixedGasLimit": false
    },
    {
      "hash": "0x7557ccb8c5ce1fdc4a61b0d8208febbfa89b2c760a2a35020da227dcbb706d5f",
      "transactionType": "CALL",
      "contractName": null,
      "contractAddress": "0x000000000022d473030f116ddee9f6b43ac78ba3",
      "function": "approve(address,address,uint160,uint48)",
      "arguments": [
        "0x453a3FDBCCC2476Eaaa13c01CB17761eEc9a0d28",
        "0xf969Aee60879C54bAAed9F3eD26147Db216Fd664",
        "1461501637330902918203684832716283019655932542975",
        "281474976710655"
      ],
      "transaction": {
        "from": "0x4b992f2fbf714c0fcbb23bac5130ace48cad00cd",
        "to": "0x000000000022d473030f116ddee9f6b43ac78ba3",
        "gas": "0x1112d",
        "value": "0x0",
        "input": "0x87517c45000000000000000000000000453a3fdbccc2476eaaa13c01cb17761eec9a0d28000000000000000000000000f969aee60879c54baaed9f3ed26147db216fd664000000000000000000000000ffffffffffffffffffffffffffffffffffffffff0000000000000000000000000000000000000000000000000000ffffffffffff",
        "nonce": "0x50d",
        "chainId": "0x515"
      },
      "additionalContracts": [],
      "isFixedGasLimit": false
    },
    {
      "hash": "0x61ff60293dbb4fff1f4144a25d57e95c9ac4db25d477ffc23336df8a608b1a9c",
      "transactionType": "CALL",
      "contractName": null,
      "contractAddress": "0x000000000022d473030f116ddee9f6b43ac78ba3",
      "function": "approve(address,address,uint160,uint48)",
      "arguments": [
        "0x453a3FDBCCC2476Eaaa13c01CB17761eEc9a0d28",
        "0x00B036B58a818B1BC34d502D3fE730Db729e62AC",
        "1461501637330902918203684832716283019655932542975",
        "281474976710655"
      ],
      "transaction": {
        "from": "0x4b992f2fbf714c0fcbb23bac5130ace48cad00cd",
        "to": "0x000000000022d473030f116ddee9f6b43ac78ba3",
        "gas": "0x101ee",
        "value": "0x0",
        "input": "0x87517c45000000000000000000000000453a3fdbccc2476eaaa13c01cb17761eec9a0d2800000000000000000000000000b036b58a818b1bc34d502d3fe730db729e62ac000000000000000000000000ffffffffffffffffffffffffffffffffffffffff0000000000000000000000000000000000000000000000000000ffffffffffff",
        "nonce": "0x50e",
        "chainId": "0x515"
      },
      "additionalContracts": [],
      "isFixedGasLimit": false
    },
    {
      "hash": "0xf6e1459edcb2059230b053955c9488c641662dd9f42bdba7a306244a04b9455d",
      "transactionType": "CALL",
      "contractName": null,
      "contractAddress": "0xde08e00a44bbb424efdb7ce7cdbd437581cdf9d5",
      "function": "approve(address,uint256)",
      "arguments": [
        "0x000000000022D473030F116dDEE9F6B43aC78BA3",
        "115792089237316195423570985008687907853269984665640564039457584007913129639935"
      ],
      "transaction": {
        "from": "0x4b992f2fbf714c0fcbb23bac5130ace48cad00cd",
        "to": "0xde08e00a44bbb424efdb7ce7cdbd437581cdf9d5",
        "gas": "0x10939",
        "value": "0x0",
        "input": "0x095ea7b3000000000000000000000000000000000022d473030f116ddee9f6b43ac78ba3ffffffffffffffffffffffffffffffffffffffffffffffffffffffffffffffff",
        "nonce": "0x50f",
        "chainId": "0x515"
      },
      "additionalContracts": [],
      "isFixedGasLimit": false
    },
    {
      "hash": "0x1225f4dd4a71b86495ce0614931cb90941f8f660042f480e0840cb9348de9cd3",
      "transactionType": "CALL",
      "contractName": null,
      "contractAddress": "0xde08e00a44bbb424efdb7ce7cdbd437581cdf9d5",
      "function": "approve(address,uint256)",
      "arguments": [
        "0x9cD2b0a732dd5e023a5539921e0FD1c30E198Dba",
        "115792089237316195423570985008687907853269984665640564039457584007913129639935"
      ],
      "transaction": {
        "from": "0x4b992f2fbf714c0fcbb23bac5130ace48cad00cd",
        "to": "0xde08e00a44bbb424efdb7ce7cdbd437581cdf9d5",
        "gas": "0xfad0",
        "value": "0x0",
        "input": "0x095ea7b30000000000000000000000009cd2b0a732dd5e023a5539921e0fd1c30e198dbaffffffffffffffffffffffffffffffffffffffffffffffffffffffffffffffff",
        "nonce": "0x510",
        "chainId": "0x515"
      },
      "additionalContracts": [],
      "isFixedGasLimit": false
    },
    {
      "hash": "0x1d8e771317b5834b2fd0188b9c449020ebfc14959dbf5e0df75cd4dc322286ad",
      "transactionType": "CALL",
      "contractName": null,
      "contractAddress": "0x000000000022d473030f116ddee9f6b43ac78ba3",
      "function": "approve(address,address,uint160,uint48)",
      "arguments": [
        "0xdE08e00A44bBB424EFdB7Ce7cDBD437581cdf9d5",
        "0xf969Aee60879C54bAAed9F3eD26147Db216Fd664",
        "1461501637330902918203684832716283019655932542975",
        "281474976710655"
      ],
      "transaction": {
        "from": "0x4b992f2fbf714c0fcbb23bac5130ace48cad00cd",
        "to": "0x000000000022d473030f116ddee9f6b43ac78ba3",
        "gas": "0x1112d",
        "value": "0x0",
        "input": "0x87517c45000000000000000000000000de08e00a44bbb424efdb7ce7cdbd437581cdf9d5000000000000000000000000f969aee60879c54baaed9f3ed26147db216fd664000000000000000000000000ffffffffffffffffffffffffffffffffffffffff0000000000000000000000000000000000000000000000000000ffffffffffff",
        "nonce": "0x511",
        "chainId": "0x515"
      },
      "additionalContracts": [],
      "isFixedGasLimit": false
    },
    {
      "hash": "0xa31ee14e1f87c7e31eba58a7501e3724ae97a0f88daa47b28eb956cc24adc001",
      "transactionType": "CALL",
      "contractName": null,
      "contractAddress": "0x000000000022d473030f116ddee9f6b43ac78ba3",
      "function": "approve(address,address,uint160,uint48)",
      "arguments": [
        "0xdE08e00A44bBB424EFdB7Ce7cDBD437581cdf9d5",
        "0x00B036B58a818B1BC34d502D3fE730Db729e62AC",
        "1461501637330902918203684832716283019655932542975",
        "281474976710655"
      ],
      "transaction": {
        "from": "0x4b992f2fbf714c0fcbb23bac5130ace48cad00cd",
        "to": "0x000000000022d473030f116ddee9f6b43ac78ba3",
        "gas": "0x101ee",
        "value": "0x0",
        "input": "0x87517c45000000000000000000000000de08e00a44bbb424efdb7ce7cdbd437581cdf9d500000000000000000000000000b036b58a818b1bc34d502d3fe730db729e62ac000000000000000000000000ffffffffffffffffffffffffffffffffffffffff0000000000000000000000000000000000000000000000000000ffffffffffff",
        "nonce": "0x512",
        "chainId": "0x515"
      },
      "additionalContracts": [],
      "isFixedGasLimit": false
    },
    {
      "hash": "0xfa1cbf7da63db66cd2757e1fbef8194d80a0fdd80947dab472a173c1a7b5a0f6",
      "transactionType": "CALL",
      "contractName": null,
      "contractAddress": "0x1468b3931fa11c20dea40dcfd1dbdccf8cc4a7ce",
      "function": "setPoolSplit(bytes32,uint16,uint16,address)",
      "arguments": [
        "0xc0ac8571814cbcd40a92e08108250971af6b21b121898dc7ddbaeee3c6b25a0b",
        "9000",
        "1000",
        "0x4b992F2Fbf714C0fCBb23baC5130Ace48CaD00cd"
      ],
      "transaction": {
        "from": "0x4b992f2fbf714c0fcbb23bac5130ace48cad00cd",
        "to": "0x1468b3931fa11c20dea40dcfd1dbdccf8cc4a7ce",
        "gas": "0x10b2c",
        "value": "0x0",
        "input": "0xd8fedaabc0ac8571814cbcd40a92e08108250971af6b21b121898dc7ddbaeee3c6b25a0b000000000000000000000000000000000000000000000000000000000000232800000000000000000000000000000000000000000000000000000000000003e80000000000000000000000004b992f2fbf714c0fcbb23bac5130ace48cad00cd",
        "nonce": "0x513",
        "chainId": "0x515"
      },
      "additionalContracts": [],
      "isFixedGasLimit": false
    },
    {
      "hash": "0x4805f88af0f113141ee92fb32c7a6fd7aa0bbb4c7a406fd5e06ce732527d2260",
      "transactionType": "CALL",
      "contractName": null,
      "contractAddress": "0x3fdf7f893e7e8aabc9829c9080058e7d06ee40c4",
      "function": "setPoolRevenueConfig((address,address,uint24,int24,address),(bool,address,uint16,uint128,uint8,uint64))",
      "arguments": [
        "(0x453a3FDBCCC2476Eaaa13c01CB17761eEc9a0d28, 0xdE08e00A44bBB424EFdB7Ce7cDBD437581cdf9d5, 3000, 60, 0x3fDF7f893e7E8AABc9829c9080058e7d06eE40C4)",
        "(true, 0xdE08e00A44bBB424EFdB7Ce7cDBD437581cdf9d5, 500, 30000000000000000, 0, 1)"
      ],
      "transaction": {
        "from": "0x4b992f2fbf714c0fcbb23bac5130ace48cad00cd",
        "to": "0x3fdf7f893e7e8aabc9829c9080058e7d06ee40c4",
        "gas": "0x19f90",
        "value": "0x0",
        "input": "0x76e2e31f000000000000000000000000453a3fdbccc2476eaaa13c01cb17761eec9a0d28000000000000000000000000de08e00a44bbb424efdb7ce7cdbd437581cdf9d50000000000000000000000000000000000000000000000000000000000000bb8000000000000000000000000000000000000000000000000000000000000003c0000000000000000000000003fdf7f893e7e8aabc9829c9080058e7d06ee40c40000000000000000000000000000000000000000000000000000000000000001000000000000000000000000de08e00a44bbb424efdb7ce7cdbd437581cdf9d500000000000000000000000000000000000000000000000000000000000001f4000000000000000000000000000000000000000000000000006a94d74f43000000000000000000000000000000000000000000000000000000000000000000000000000000000000000000000000000000000000000000000000000000000001",
        "nonce": "0x514",
        "chainId": "0x515"
      },
      "additionalContracts": [],
      "isFixedGasLimit": false
    },
    {
      "hash": "0x267f99f7c8eca363ba85d6fa3218c07273505d667b56c220f9749faed2552ba6",
      "transactionType": "CALL",
      "contractName": null,
      "contractAddress": "0x00b036b58a818b1bc34d502d3fe730db729e62ac",
      "function": "initialize((address,address,uint24,int24,address),uint160)",
      "arguments": [
        "(0x453a3FDBCCC2476Eaaa13c01CB17761eEc9a0d28, 0xdE08e00A44bBB424EFdB7Ce7cDBD437581cdf9d5, 3000, 60, 0x3fDF7f893e7E8AABc9829c9080058e7d06eE40C4)",
        "79228162514264337593543950336"
      ],
      "transaction": {
        "from": "0x4b992f2fbf714c0fcbb23bac5130ace48cad00cd",
        "to": "0x00b036b58a818b1bc34d502d3fe730db729e62ac",
        "gas": "0x11721",
        "value": "0x0",
        "input": "0x6276cbbe000000000000000000000000453a3fdbccc2476eaaa13c01cb17761eec9a0d28000000000000000000000000de08e00a44bbb424efdb7ce7cdbd437581cdf9d50000000000000000000000000000000000000000000000000000000000000bb8000000000000000000000000000000000000000000000000000000000000003c0000000000000000000000003fdf7f893e7e8aabc9829c9080058e7d06ee40c40000000000000000000000000000000000000001000000000000000000000000",
        "nonce": "0x515",
        "chainId": "0x515"
      },
      "additionalContracts": [],
      "isFixedGasLimit": false
    },
    {
      "hash": "0x84d666e5e0571b943c954ca4060a9db430f626837ac4fa9d07bb4bed6d67fa3b",
      "transactionType": "CALL",
      "contractName": null,
      "contractAddress": "0xf969aee60879c54baaed9f3ed26147db216fd664",
      "function": "modifyLiquidities(bytes,uint256)",
      "arguments": [
        "0x000000000000000000000000000000000000000000000000000000000000004000000000000000000000000000000000000000000000000000000000000000800000000000000000000000000000000000000000000000000000000000000004020d14140000000000000000000000000000000000000000000000000000000000000000000000000000000000000000000000000000000000000000000000040000000000000000000000000000000000000000000000000000000000000080000000000000000000000000000000000000000000000000000000000000024000000000000000000000000000000000000000000000000000000000000002a0000000000000000000000000000000000000000000000000000000000000030000000000000000000000000000000000000000000000000000000000000001a0000000000000000000000000453a3fdbccc2476eaaa13c01cb17761eec9a0d28000000000000000000000000de08e00a44bbb424efdb7ce7cdbd437581cdf9d50000000000000000000000000000000000000000000000000000000000000bb8000000000000000000000000000000000000000000000000000000000000003c0000000000000000000000003fdf7f893e7e8aabc9829c9080058e7d06ee40c4fffffffffffffffffffffffffffffffffffffffffffffffffffffffffff2764c00000000000000000000000000000000000000000000000000000000000d89b40000000000000000000000000000000000000000000000056bc75e2d631000000000000000000000000000000000000000000000000000056bc75e2d630ffffb0000000000000000000000000000000000000000000000056bc75e2d630ffffb0000000000000000000000004b992f2fbf714c0fcbb23bac5130ace48cad00cd000000000000000000000000000000000000000000000000000000000000018000000000000000000000000000000000000000000000000000000000000000000000000000000000000000000000000000000000000000000000000000000040000000000000000000000000453a3fdbccc2476eaaa13c01cb17761eec9a0d28000000000000000000000000de08e00a44bbb424efdb7ce7cdbd437581cdf9d50000000000000000000000000000000000000000000000000000000000000040000000000000000000000000453a3fdbccc2476eaaa13c01cb17761eec9a0d280000000000000000000000004b992f2fbf714c0fcbb23bac5130ace48cad00cd0000000000000000000000000000000000000000000000000000000000000040000000000000000000000000de08e00a44bbb424efdb7ce7cdbd437581cdf9d50000000000000000000000004b992f2fbf714c0fcbb23bac5130ace48cad00cd",
        "1773589588"
      ],
      "transaction": {
        "from": "0x4b992f2fbf714c0fcbb23bac5130ace48cad00cd",
        "to": "0xf969aee60879c54baaed9f3ed26147db216fd664",
        "gas": "0x9acb4",
        "value": "0x0",
        "input": "0xdd46508f00000000000000000000000000000000000000000000000000000000000000400000000000000000000000000000000000000000000000000000000069b6d4540000000000000000000000000000000000000000000000000000000000000400000000000000000000000000000000000000000000000000000000000000004000000000000000000000000000000000000000000000000000000000000000800000000000000000000000000000000000000000000000000000000000000004020d14140000000000000000000000000000000000000000000000000000000000000000000000000000000000000000000000000000000000000000000000040000000000000000000000000000000000000000000000000000000000000080000000000000000000000000000000000000000000000000000000000000024000000000000000000000000000000000000000000000000000000000000002a0000000000000000000000000000000000000000000000000000000000000030000000000000000000000000000000000000000000000000000000000000001a0000000000000000000000000453a3fdbccc2476eaaa13c01cb17761eec9a0d28000000000000000000000000de08e00a44bbb424efdb7ce7cdbd437581cdf9d50000000000000000000000000000000000000000000000000000000000000bb8000000000000000000000000000000000000000000000000000000000000003c0000000000000000000000003fdf7f893e7e8aabc9829c9080058e7d06ee40c4fffffffffffffffffffffffffffffffffffffffffffffffffffffffffff2764c00000000000000000000000000000000000000000000000000000000000d89b40000000000000000000000000000000000000000000000056bc75e2d631000000000000000000000000000000000000000000000000000056bc75e2d630ffffb0000000000000000000000000000000000000000000000056bc75e2d630ffffb0000000000000000000000004b992f2fbf714c0fcbb23bac5130ace48cad00cd000000000000000000000000000000000000000000000000000000000000018000000000000000000000000000000000000000000000000000000000000000000000000000000000000000000000000000000000000000000000000000000040000000000000000000000000453a3fdbccc2476eaaa13c01cb17761eec9a0d28000000000000000000000000de08e00a44bbb424efdb7ce7cdbd437581cdf9d50000000000000000000000000000000000000000000000000000000000000040000000000000000000000000453a3fdbccc2476eaaa13c01cb17761eec9a0d280000000000000000000000004b992f2fbf714c0fcbb23bac5130ace48cad00cd0000000000000000000000000000000000000000000000000000000000000040000000000000000000000000de08e00a44bbb424efdb7ce7cdbd437581cdf9d50000000000000000000000004b992f2fbf714c0fcbb23bac5130ace48cad00cd",
        "nonce": "0x516",
        "chainId": "0x515"
      },
      "additionalContracts": [],
      "isFixedGasLimit": false
    },
    {
      "hash": "0xdbdf993d56171eb399fd3d847bc600d168e644d7b7d732ba5d613ada66564f86",
      "transactionType": "CALL",
      "contractName": null,
      "contractAddress": "0x453a3fdbccc2476eaaa13c01cb17761eec9a0d28",
      "function": "approve(address,uint256)",
      "arguments": [
        "0x000000000022D473030F116dDEE9F6B43aC78BA3",
        "115792089237316195423570985008687907853269984665640564039457584007913129639935"
      ],
      "transaction": {
        "from": "0xe05fcc23807536bee418f142d19fa0d21bb0cff7",
        "to": "0x453a3fdbccc2476eaaa13c01cb17761eec9a0d28",
        "gas": "0x10939",
        "value": "0x0",
        "input": "0x095ea7b3000000000000000000000000000000000022d473030f116ddee9f6b43ac78ba3ffffffffffffffffffffffffffffffffffffffffffffffffffffffffffffffff",
        "nonce": "0x0",
        "chainId": "0x515"
      },
      "additionalContracts": [],
      "isFixedGasLimit": false
    },
    {
      "hash": "0x28e6783d92f837e2707432d403afa5769ed5d13781d8ccd47bfb651895147919",
      "transactionType": "CALL",
      "contractName": null,
      "contractAddress": "0x453a3fdbccc2476eaaa13c01cb17761eec9a0d28",
      "function": "approve(address,uint256)",
      "arguments": [
        "0x9cD2b0a732dd5e023a5539921e0FD1c30E198Dba",
        "115792089237316195423570985008687907853269984665640564039457584007913129639935"
      ],
      "transaction": {
        "from": "0xe05fcc23807536bee418f142d19fa0d21bb0cff7",
        "to": "0x453a3fdbccc2476eaaa13c01cb17761eec9a0d28",
        "gas": "0xfad0",
        "value": "0x0",
        "input": "0x095ea7b30000000000000000000000009cd2b0a732dd5e023a5539921e0fd1c30e198dbaffffffffffffffffffffffffffffffffffffffffffffffffffffffffffffffff",
        "nonce": "0x1",
        "chainId": "0x515"
      },
      "additionalContracts": [],
      "isFixedGasLimit": false
    },
    {
      "hash": "0xf7ba227592a47f2e00677ff1f4aeed9e5c4896ec9d359885941d52d8b545b70a",
      "transactionType": "CALL",
      "contractName": null,
      "contractAddress": "0x000000000022d473030f116ddee9f6b43ac78ba3",
      "function": "approve(address,address,uint160,uint48)",
      "arguments": [
        "0x453a3FDBCCC2476Eaaa13c01CB17761eEc9a0d28",
        "0xf969Aee60879C54bAAed9F3eD26147Db216Fd664",
        "1461501637330902918203684832716283019655932542975",
        "281474976710655"
      ],
      "transaction": {
        "from": "0xe05fcc23807536bee418f142d19fa0d21bb0cff7",
        "to": "0x000000000022d473030f116ddee9f6b43ac78ba3",
        "gas": "0x1112d",
        "value": "0x0",
        "input": "0x87517c45000000000000000000000000453a3fdbccc2476eaaa13c01cb17761eec9a0d28000000000000000000000000f969aee60879c54baaed9f3ed26147db216fd664000000000000000000000000ffffffffffffffffffffffffffffffffffffffff0000000000000000000000000000000000000000000000000000ffffffffffff",
        "nonce": "0x2",
        "chainId": "0x515"
      },
      "additionalContracts": [],
      "isFixedGasLimit": false
    },
    {
      "hash": "0xb849ea0ae6473ee77395ef69fb2e74411a6c99ef4af6bd8edb1c0d6031eca6fa",
      "transactionType": "CALL",
      "contractName": null,
      "contractAddress": "0x000000000022d473030f116ddee9f6b43ac78ba3",
      "function": "approve(address,address,uint160,uint48)",
      "arguments": [
        "0x453a3FDBCCC2476Eaaa13c01CB17761eEc9a0d28",
        "0x00B036B58a818B1BC34d502D3fE730Db729e62AC",
        "1461501637330902918203684832716283019655932542975",
        "281474976710655"
      ],
      "transaction": {
        "from": "0xe05fcc23807536bee418f142d19fa0d21bb0cff7",
        "to": "0x000000000022d473030f116ddee9f6b43ac78ba3",
        "gas": "0x101ee",
        "value": "0x0",
        "input": "0x87517c45000000000000000000000000453a3fdbccc2476eaaa13c01cb17761eec9a0d2800000000000000000000000000b036b58a818b1bc34d502d3fe730db729e62ac000000000000000000000000ffffffffffffffffffffffffffffffffffffffff0000000000000000000000000000000000000000000000000000ffffffffffff",
        "nonce": "0x3",
        "chainId": "0x515"
      },
      "additionalContracts": [],
      "isFixedGasLimit": false
    },
    {
      "hash": "0xb91c257651033c57c14243e09cf9153783925dc8a187071b29981f7e88d69c50",
      "transactionType": "CALL",
      "contractName": null,
      "contractAddress": "0xde08e00a44bbb424efdb7ce7cdbd437581cdf9d5",
      "function": "approve(address,uint256)",
      "arguments": [
        "0x000000000022D473030F116dDEE9F6B43aC78BA3",
        "115792089237316195423570985008687907853269984665640564039457584007913129639935"
      ],
      "transaction": {
        "from": "0xe05fcc23807536bee418f142d19fa0d21bb0cff7",
        "to": "0xde08e00a44bbb424efdb7ce7cdbd437581cdf9d5",
        "gas": "0x10939",
        "value": "0x0",
        "input": "0x095ea7b3000000000000000000000000000000000022d473030f116ddee9f6b43ac78ba3ffffffffffffffffffffffffffffffffffffffffffffffffffffffffffffffff",
        "nonce": "0x4",
        "chainId": "0x515"
      },
      "additionalContracts": [],
      "isFixedGasLimit": false
    },
    {
      "hash": "0x733e1d9be16bba523be8ff29ab8c7bbb47f713ade7df042feb8631d6f297743d",
      "transactionType": "CALL",
      "contractName": null,
      "contractAddress": "0xde08e00a44bbb424efdb7ce7cdbd437581cdf9d5",
      "function": "approve(address,uint256)",
      "arguments": [
        "0x9cD2b0a732dd5e023a5539921e0FD1c30E198Dba",
        "115792089237316195423570985008687907853269984665640564039457584007913129639935"
      ],
      "transaction": {
        "from": "0xe05fcc23807536bee418f142d19fa0d21bb0cff7",
        "to": "0xde08e00a44bbb424efdb7ce7cdbd437581cdf9d5",
        "gas": "0xfad0",
        "value": "0x0",
        "input": "0x095ea7b30000000000000000000000009cd2b0a732dd5e023a5539921e0fd1c30e198dbaffffffffffffffffffffffffffffffffffffffffffffffffffffffffffffffff",
        "nonce": "0x5",
        "chainId": "0x515"
      },
      "additionalContracts": [],
      "isFixedGasLimit": false
    },
    {
      "hash": "0x5bed21a89510511c324ee3760e8ddbe3b21db8d52daf6b286cc22e6c1ebb2e67",
      "transactionType": "CALL",
      "contractName": null,
      "contractAddress": "0x000000000022d473030f116ddee9f6b43ac78ba3",
      "function": "approve(address,address,uint160,uint48)",
      "arguments": [
        "0xdE08e00A44bBB424EFdB7Ce7cDBD437581cdf9d5",
        "0xf969Aee60879C54bAAed9F3eD26147Db216Fd664",
        "1461501637330902918203684832716283019655932542975",
        "281474976710655"
      ],
      "transaction": {
        "from": "0xe05fcc23807536bee418f142d19fa0d21bb0cff7",
        "to": "0x000000000022d473030f116ddee9f6b43ac78ba3",
        "gas": "0x1112d",
        "value": "0x0",
        "input": "0x87517c45000000000000000000000000de08e00a44bbb424efdb7ce7cdbd437581cdf9d5000000000000000000000000f969aee60879c54baaed9f3ed26147db216fd664000000000000000000000000ffffffffffffffffffffffffffffffffffffffff0000000000000000000000000000000000000000000000000000ffffffffffff",
        "nonce": "0x6",
        "chainId": "0x515"
      },
      "additionalContracts": [],
      "isFixedGasLimit": false
    },
    {
      "hash": "0xa92f454a2f9d2b2e102fe6fd0ea475219d6e2ece0a8ba83bbfa3b97266364283",
      "transactionType": "CALL",
      "contractName": null,
      "contractAddress": "0x000000000022d473030f116ddee9f6b43ac78ba3",
      "function": "approve(address,address,uint160,uint48)",
      "arguments": [
        "0xdE08e00A44bBB424EFdB7Ce7cDBD437581cdf9d5",
        "0x00B036B58a818B1BC34d502D3fE730Db729e62AC",
        "1461501637330902918203684832716283019655932542975",
        "281474976710655"
      ],
      "transaction": {
        "from": "0xe05fcc23807536bee418f142d19fa0d21bb0cff7",
        "to": "0x000000000022d473030f116ddee9f6b43ac78ba3",
        "gas": "0x101ee",
        "value": "0x0",
        "input": "0x87517c45000000000000000000000000de08e00a44bbb424efdb7ce7cdbd437581cdf9d500000000000000000000000000b036b58a818b1bc34d502d3fe730db729e62ac000000000000000000000000ffffffffffffffffffffffffffffffffffffffff0000000000000000000000000000000000000000000000000000ffffffffffff",
        "nonce": "0x7",
        "chainId": "0x515"
      },
      "additionalContracts": [],
      "isFixedGasLimit": false
    },
    {
      "hash": "0x5ce82745114989c1ed3e82bfdb94f1af7e826e7b302c8fa503cd9f3a9755133b",
      "transactionType": "CALL",
      "contractName": null,
      "contractAddress": "0xde08e00a44bbb424efdb7ce7cdbd437581cdf9d5",
      "function": "approve(address,uint256)",
      "arguments": [
        "0xC64A3aC9Ba9C3D69beC599ABe4910AC17cA61dbf",
        "115792089237316195423570985008687907853269984665640564039457584007913129639935"
      ],
      "transaction": {
        "from": "0xe05fcc23807536bee418f142d19fa0d21bb0cff7",
        "to": "0xde08e00a44bbb424efdb7ce7cdbd437581cdf9d5",
        "gas": "0xfad0",
        "value": "0x0",
        "input": "0x095ea7b3000000000000000000000000c64a3ac9ba9c3d69bec599abe4910ac17ca61dbfffffffffffffffffffffffffffffffffffffffffffffffffffffffffffffffff",
        "nonce": "0x8",
        "chainId": "0x515"
      },
      "additionalContracts": [],
      "isFixedGasLimit": false
    },
    {
      "hash": "0xadca0e24437187c78e3dda94b580d97093a94a0aef45585d7a48152466ed49a2",
      "transactionType": "CALL",
      "contractName": null,
      "contractAddress": "0xc64a3ac9ba9c3d69bec599abe4910ac17ca61dbf",
      "function": "deposit(uint256,address,uint256)",
      "arguments": [
        "20000000000000000000",
        "0xe05fcC23807536bEe418f142D19fa0d21BB0cfF7",
        "0"
      ],
      "transaction": {
        "from": "0xe05fcc23807536bee418f142d19fa0d21bb0cff7",
        "to": "0xc64a3ac9ba9c3d69bec599abe4910ac17ca61dbf",
        "gas": "0x28abc",
        "value": "0x0",
        "input": "0xbc157ac1000000000000000000000000000000000000000000000001158e460913d00000000000000000000000000000e05fcc23807536bee418f142d19fa0d21bb0cff70000000000000000000000000000000000000000000000000000000000000000",
        "nonce": "0x9",
        "chainId": "0x515"
      },
      "additionalContracts": [],
      "isFixedGasLimit": false
    },
    {
      "hash": "0xa289cda72376ace610d26894a8c87f18127e04dee33a21f97fba229a182cd121",
      "transactionType": "CALL",
      "contractName": null,
      "contractAddress": "0x9cd2b0a732dd5e023a5539921e0fd1c30e198dba",
      "function": "swapExactTokensForTokens(uint256,uint256,bool,(address,address,uint24,int24,address),bytes,address,uint256)",
      "arguments": [
        "10000000000000000000",
        "0",
        "true",
        "(0x453a3FDBCCC2476Eaaa13c01CB17761eEc9a0d28, 0xdE08e00A44bBB424EFdB7Ce7cDBD437581cdf9d5, 3000, 60, 0x3fDF7f893e7E8AABc9829c9080058e7d06eE40C4)",
        "0x",
        "0xe05fcC23807536bEe418f142D19fa0d21BB0cfF7",
        "1773588988"
      ],
      "transaction": {
        "from": "0xe05fcc23807536bee418f142d19fa0d21bb0cff7",
        "to": "0x9cd2b0a732dd5e023a5539921e0fd1c30e198dba",
        "gas": "0x4fdb1",
        "value": "0x0",
        "input": "0xb1a0d5710000000000000000000000000000000000000000000000008ac7230489e8000000000000000000000000000000000000000000000000000000000000000000000000000000000000000000000000000000000000000000000000000000000001000000000000000000000000453a3fdbccc2476eaaa13c01cb17761eec9a0d28000000000000000000000000de08e00a44bbb424efdb7ce7cdbd437581cdf9d50000000000000000000000000000000000000000000000000000000000000bb8000000000000000000000000000000000000000000000000000000000000003c0000000000000000000000003fdf7f893e7e8aabc9829c9080058e7d06ee40c40000000000000000000000000000000000000000000000000000000000000160000000000000000000000000e05fcc23807536bee418f142d19fa0d21bb0cff70000000000000000000000000000000000000000000000000000000069b6d1fc0000000000000000000000000000000000000000000000000000000000000000",
        "nonce": "0xa",
        "chainId": "0x515"
      },
      "additionalContracts": [],
      "isFixedGasLimit": false
    },
    {
      "hash": "0x2eabffc1e728d832427ec445e8bdc24b0b2cca7a3000d9e28ab28a6ed0efb462",
      "transactionType": "CALL",
      "contractName": null,
      "contractAddress": "0x9cd2b0a732dd5e023a5539921e0fd1c30e198dba",
      "function": "swapExactTokensForTokens(uint256,uint256,bool,(address,address,uint24,int24,address),bytes,address,uint256)",
      "arguments": [
        "10000000000000000000",
        "0",
        "true",
        "(0x453a3FDBCCC2476Eaaa13c01CB17761eEc9a0d28, 0xdE08e00A44bBB424EFdB7Ce7cDBD437581cdf9d5, 3000, 60, 0x3fDF7f893e7E8AABc9829c9080058e7d06eE40C4)",
        "0x",
        "0xe05fcC23807536bEe418f142D19fa0d21BB0cfF7",
        "1773588988"
      ],
      "transaction": {
        "from": "0xe05fcc23807536bee418f142d19fa0d21bb0cff7",
        "to": "0x9cd2b0a732dd5e023a5539921e0fd1c30e198dba",
        "gas": "0x374f9",
        "value": "0x0",
        "input": "0xb1a0d5710000000000000000000000000000000000000000000000008ac7230489e8000000000000000000000000000000000000000000000000000000000000000000000000000000000000000000000000000000000000000000000000000000000001000000000000000000000000453a3fdbccc2476eaaa13c01cb17761eec9a0d28000000000000000000000000de08e00a44bbb424efdb7ce7cdbd437581cdf9d50000000000000000000000000000000000000000000000000000000000000bb8000000000000000000000000000000000000000000000000000000000000003c0000000000000000000000003fdf7f893e7e8aabc9829c9080058e7d06ee40c40000000000000000000000000000000000000000000000000000000000000160000000000000000000000000e05fcc23807536bee418f142d19fa0d21bb0cff70000000000000000000000000000000000000000000000000000000069b6d1fc0000000000000000000000000000000000000000000000000000000000000000",
        "nonce": "0xb",
        "chainId": "0x515"
      },
      "additionalContracts": [],
      "isFixedGasLimit": false
    },
    {
      "hash": "0x08843db5f4b7a6f0d12214daa9ad075ad6661cff36efe4f6991c4ea073a7604e",
      "transactionType": "CALL",
      "contractName": null,
      "contractAddress": "0xc64a3ac9ba9c3d69bec599abe4910ac17ca61dbf",
      "function": "acquireNFT(bytes32,uint256)",
      "arguments": [
        "0xc0ac8571814cbcd40a92e08108250971af6b21b121898dc7ddbaeee3c6b25a0b",
        "115792089237316195423570985008687907853269984665640564039457584007913129639935"
      ],
      "transaction": {
        "from": "0xe05fcc23807536bee418f142d19fa0d21bb0cff7",
        "to": "0xc64a3ac9ba9c3d69bec599abe4910ac17ca61dbf",
        "gas": "0x77209",
        "value": "0x0",
        "input": "0xacd2e8fac0ac8571814cbcd40a92e08108250971af6b21b121898dc7ddbaeee3c6b25a0bffffffffffffffffffffffffffffffffffffffffffffffffffffffffffffffff",
        "nonce": "0xc",
        "chainId": "0x515"
      },
      "additionalContracts": [],
      "isFixedGasLimit": false
    },
    {
      "hash": "0xb6deb01ed1e1a38f9c64223859ace3853c36d409d9180ca9c166603743ad4f98",
      "transactionType": "CALL",
      "contractName": null,
      "contractAddress": "0xc64a3ac9ba9c3d69bec599abe4910ac17ca61dbf",
      "function": "redeem(uint256,address,uint256)",
      "arguments": [
        "10000000000000000000",
        "0xe05fcC23807536bEe418f142D19fa0d21BB0cfF7",
        "0"
      ],
      "transaction": {
        "from": "0xe05fcc23807536bee418f142d19fa0d21bb0cff7",
        "to": "0xc64a3ac9ba9c3d69bec599abe4910ac17ca61dbf",
        "gas": "0x1447b",
        "value": "0x0",
        "input": "0xd87801610000000000000000000000000000000000000000000000008ac7230489e80000000000000000000000000000e05fcc23807536bee418f142d19fa0d21bb0cff70000000000000000000000000000000000000000000000000000000000000000",
        "nonce": "0xd",
        "chainId": "0x515"
      },
      "additionalContracts": [],
      "isFixedGasLimit": false
    }
  ],
  "receipts": [
    {
      "status": "0x1",
      "cumulativeGasUsed": "0x45206",
      "logs": [],
      "logsBloom": "0x00000000000000000000000000000000000000000000000000000000000000000000000000000000000000000000000000000000000000000000000000000000000000000000000000000000000000000000000000000000000000000000000000000000000000000000000000000000000000000000000000000000000000000000000000000000000000000000000000000000000000000000000000000000000000000000000000000000000000000000000000000000000000000000000000000000000000000000000000000000000000000000000000000000000000000000000000000000000000000000000000000000000000000000000000000000",
      "type": "0x2",
      "transactionHash": "0x8813b69f59227b8af020d412bd9739e0ea9a7a7ab890b1384d63821dc2f15995",
      "transactionIndex": "0x4",
      "blockHash": "0xf3ad59bbc0fa5ebc5ca7d72733611e231936200a3b02760aad7d7638f7c88fd5",
      "blockNumber": "0x2c9201c",
      "gasUsed": "0x5208",
      "effectiveGasPrice": "0x7a121",
      "blobGasUsed": "0x9c40",
      "from": "0x4b992f2fbf714c0fcbb23bac5130ace48cad00cd",
      "to": "0xe05fcc23807536bee418f142d19fa0d21bb0cff7",
      "contractAddress": null,
      "daFootprintGasScalar": "0x190",
      "l1BaseFeeScalar": "0x7d0",
      "l1BlobBaseFee": "0x1",
      "l1BlobBaseFeeScalar": "0xdbba0",
      "l1Fee": "0x7a",
      "l1GasPrice": "0xa",
      "l1GasUsed": "0x640"
    },
    {
      "status": "0x1",
      "cumulativeGasUsed": "0x2ff3f",
      "logs": [
        {
          "address": "0x453a3fdbccc2476eaaa13c01cb17761eec9a0d28",
          "topics": [
            "0xddf252ad1be2c89b69c2b068fc378daa952ba7f163c4a11628f55a4df523b3ef",
            "0x0000000000000000000000000000000000000000000000000000000000000000",
            "0x0000000000000000000000004b992f2fbf714c0fcbb23bac5130ace48cad00cd"
          ],
          "data": "0x000000000000000000000000000000000000000000002a5a058fc295ed000000",
          "blockHash": "0x622af8afd8f82cae645c45ba5ca0b6c628d7c3e5b277b0762b8bca6ce798e245",
          "blockNumber": "0x2c9201f",
          "blockTimestamp": "0x69b6cd6b",
          "transactionHash": "0xfc0760f0f34016a3280e354f8f7b8f1e1e6f523443683106d514356434348210",
          "transactionIndex": "0x3",
          "logIndex": "0x1",
          "removed": false
        }
      ],
      "logsBloom": "0x00000000000000000000000000000000000000000000000000000000000000000000000000000000000000000000000000000002000000000000000000000000000000000000000000000008000000000000000000000000000102000000000000000000020000000000000000020800000000000000000000000010000000000000000000000000000000000000000000000000000000000000000000000000000000000000000000000000000000000000000000000000000000000000000000000002000000000000000000000000000000000000400000000000000020080000000000000000000000000000000000000000000000000000000000000000",
      "type": "0x2",
      "transactionHash": "0xfc0760f0f34016a3280e354f8f7b8f1e1e6f523443683106d514356434348210",
      "transactionIndex": "0x3",
      "blockHash": "0x622af8afd8f82cae645c45ba5ca0b6c628d7c3e5b277b0762b8bca6ce798e245",
      "blockNumber": "0x2c9201f",
      "gasUsed": "0x8547",
      "effectiveGasPrice": "0x7a121",
      "blobGasUsed": "0x9c40",
      "from": "0x4b992f2fbf714c0fcbb23bac5130ace48cad00cd",
      "to": "0x453a3fdbccc2476eaaa13c01cb17761eec9a0d28",
      "contractAddress": null,
      "daFootprintGasScalar": "0x190",
      "l1BaseFeeScalar": "0x7d0",
      "l1BlobBaseFee": "0x1",
      "l1BlobBaseFeeScalar": "0xdbba0",
      "l1Fee": "0x7a",
      "l1GasPrice": "0xa",
      "l1GasUsed": "0x640"
    },
    {
      "status": "0x1",
      "cumulativeGasUsed": "0x9c619",
      "logs": [
        {
          "address": "0xde08e00a44bbb424efdb7ce7cdbd437581cdf9d5",
          "topics": [
            "0xddf252ad1be2c89b69c2b068fc378daa952ba7f163c4a11628f55a4df523b3ef",
            "0x0000000000000000000000000000000000000000000000000000000000000000",
            "0x0000000000000000000000004b992f2fbf714c0fcbb23bac5130ace48cad00cd"
          ],
          "data": "0x000000000000000000000000000000000000000000002a5a058fc295ed000000",
          "blockHash": "0x0c30fccd51334239627dfbfb50e6527fb4483feed65d0677eca09aa3951d7573",
          "blockNumber": "0x2c92021",
          "blockTimestamp": "0x69b6cd6d",
          "transactionHash": "0x0a88b23969d7b890e0eeb7a9c3b4f82a44d8e84edcfdeb0a0143cabfcef51017",
          "transactionIndex": "0x7",
          "logIndex": "0x8",
          "removed": false
        }
      ],
      "logsBloom": "0x00000000040000000400000000000000000000000000000000000000000000000000000000000000000000000000000000000002000000000000000000000000000000000000000000000008000000000000000000000000000100000000000000000000020000000000000000020800000000000000000000000010000000000000000000000000000000000000000000000000000000000000000000000000000000000000000000000000000000000000000080000000000000000000000000000002000000000000000000000000000000000000000000000000000020000000000000000000000000000000000000000000000000000000000000000000",
      "type": "0x2",
      "transactionHash": "0x0a88b23969d7b890e0eeb7a9c3b4f82a44d8e84edcfdeb0a0143cabfcef51017",
      "transactionIndex": "0x7",
      "blockHash": "0x0c30fccd51334239627dfbfb50e6527fb4483feed65d0677eca09aa3951d7573",
      "blockNumber": "0x2c92021",
      "gasUsed": "0x8547",
      "effectiveGasPrice": "0x7a121",
      "blobGasUsed": "0x9c40",
      "from": "0x4b992f2fbf714c0fcbb23bac5130ace48cad00cd",
      "to": "0xde08e00a44bbb424efdb7ce7cdbd437581cdf9d5",
      "contractAddress": null,
      "daFootprintGasScalar": "0x190",
      "l1BaseFeeScalar": "0x7d0",
      "l1BlobBaseFee": "0x1",
      "l1BlobBaseFeeScalar": "0xdbba0",
      "l1Fee": "0x7a",
      "l1GasPrice": "0xa",
      "l1GasUsed": "0x640"
    },
    {
      "status": "0x1",
      "cumulativeGasUsed": "0x62287",
      "logs": [
        {
          "address": "0x453a3fdbccc2476eaaa13c01cb17761eec9a0d28",
          "topics": [
            "0xddf252ad1be2c89b69c2b068fc378daa952ba7f163c4a11628f55a4df523b3ef",
            "0x0000000000000000000000000000000000000000000000000000000000000000",
            "0x000000000000000000000000e05fcc23807536bee418f142d19fa0d21bb0cff7"
          ],
          "data": "0x000000000000000000000000000000000000000000000a968163f0a57b400000",
          "blockHash": "0xbfcf76a289199797071bfb5439d28297489adb4c83a9df6797f369bbb629a812",
          "blockNumber": "0x2c92022",
          "blockTimestamp": "0x69b6cd6e",
          "transactionHash": "0xda76030c180d7cca2804c334e7dc9c6a66932c7e77c9fefa80536c285fd46bad",
          "transactionIndex": "0x5",
          "logIndex": "0x3",
          "removed": false
        }
      ],
      "logsBloom": "0x00000000000000000000000000000000000000000000000000000000000000000000000000000800000000000000000000000000000000000000000000000000000000000000000000000008000000000200000000000000000002000000000000000000020000000000000000000800000000000000000000000010000000000000000000000000000000000000000000000000000000000000000000000000000000000000000000000000000000000000000000000000000000000000400000000002000000000000000000000000000000000000400000000000000020080000000000000000000000000000000000000000000000000000000000000000",
      "type": "0x2",
      "transactionHash": "0xda76030c180d7cca2804c334e7dc9c6a66932c7e77c9fefa80536c285fd46bad",
      "transactionIndex": "0x5",
      "blockHash": "0xbfcf76a289199797071bfb5439d28297489adb4c83a9df6797f369bbb629a812",
      "blockNumber": "0x2c92022",
      "gasUsed": "0xc82b",
      "effectiveGasPrice": "0x7a121",
      "blobGasUsed": "0x9c40",
      "from": "0x4b992f2fbf714c0fcbb23bac5130ace48cad00cd",
      "to": "0x453a3fdbccc2476eaaa13c01cb17761eec9a0d28",
      "contractAddress": null,
      "daFootprintGasScalar": "0x190",
      "l1BaseFeeScalar": "0x7d0",
      "l1BlobBaseFee": "0x1",
      "l1BlobBaseFeeScalar": "0xdbba0",
      "l1Fee": "0x7a",
      "l1GasPrice": "0xa",
      "l1GasUsed": "0x640"
    },
    {
      "status": "0x1",
      "cumulativeGasUsed": "0x4b255",
      "logs": [
        {
          "address": "0xde08e00a44bbb424efdb7ce7cdbd437581cdf9d5",
          "topics": [
            "0xddf252ad1be2c89b69c2b068fc378daa952ba7f163c4a11628f55a4df523b3ef",
            "0x0000000000000000000000000000000000000000000000000000000000000000",
            "0x000000000000000000000000e05fcc23807536bee418f142d19fa0d21bb0cff7"
          ],
          "data": "0x000000000000000000000000000000000000000000000a968163f0a57b400000",
          "blockHash": "0x238dac5c98c380b3f9f1026d171f9f007667f678c5c61970ec767a8ac3e2f400",
          "blockNumber": "0x2c92025",
          "blockTimestamp": "0x69b6cd71",
          "transactionHash": "0x8150ca61728377d46204c3d613633b91f39ec2b8ad545d93505ec83392c8623a",
          "transactionIndex": "0x4",
          "logIndex": "0x2",
          "removed": false
        }
      ],
      "logsBloom": "0x00000000040000000400000000000000000000000000000000000000000000000000000000000800000000000000000000000000000000000000000000000000000000000000000000000008000000000200000000000000000000000000000000000000020000000000000000000800000000000000000000000010000000000000000000000000000000000000000000000000000000000000000000000000000000000000000000000000000000000000000080000000000000000000400000000002000000000000000000000000000000000000000000000000000020000000000000000000000000000000000000000000000000000000000000000000",
      "type": "0x2",
      "transactionHash": "0x8150ca61728377d46204c3d613633b91f39ec2b8ad545d93505ec83392c8623a",
      "transactionIndex": "0x4",
      "blockHash": "0x238dac5c98c380b3f9f1026d171f9f007667f678c5c61970ec767a8ac3e2f400",
      "blockNumber": "0x2c92025",
      "gasUsed": "0xc82b",
      "effectiveGasPrice": "0x7a121",
      "blobGasUsed": "0x9c40",
      "from": "0x4b992f2fbf714c0fcbb23bac5130ace48cad00cd",
      "to": "0xde08e00a44bbb424efdb7ce7cdbd437581cdf9d5",
      "contractAddress": null,
      "daFootprintGasScalar": "0x190",
      "l1BaseFeeScalar": "0x7d0",
      "l1BlobBaseFee": "0x1",
      "l1BlobBaseFeeScalar": "0xdbba0",
      "l1Fee": "0x7a",
      "l1GasPrice": "0xa",
      "l1GasUsed": "0x640"
    },
    {
      "status": "0x1",
      "cumulativeGasUsed": "0x9e9a3",
      "logs": [
        {
          "address": "0x453a3fdbccc2476eaaa13c01cb17761eec9a0d28",
          "topics": [
            "0x8c5be1e5ebec7d5bd14f71427d1e84f3dd0314c0f7b2291e5b200ac8c7c3b925",
            "0x0000000000000000000000004b992f2fbf714c0fcbb23bac5130ace48cad00cd",
            "0x000000000000000000000000000000000022d473030f116ddee9f6b43ac78ba3"
          ],
          "data": "0xffffffffffffffffffffffffffffffffffffffffffffffffffffffffffffffff",
          "blockHash": "0xc796aed269344c05a12b79741c543fdafd78de6b6f587352d6da32d6fb19db22",
          "blockNumber": "0x2c92027",
          "blockTimestamp": "0x69b6cd73",
          "transactionHash": "0xd5db3aa88ae9f9f4f2dc9bfceadb309ef5401567376f0a9206fa983ee317899f",
          "transactionIndex": "0x7",
          "logIndex": "0x8",
          "removed": false
        }
      ],
      "logsBloom": "0x00000000000000000000000000000000000000000000000000000000000000000000000000000000000000000000000000000002800000000000000000200000000000000000000000004000000000000000000000000800000102000000000000000000000000000000000000020000000000000000000000000000000000000000000000000000000000000000000000000000000000000000000000000000020000000000000000000000000000000000000000000000000000000000000000000000000000000000000000000000000000000000400000000000000000080010000000000000000000000000000000000000000000000000000000000000",
      "type": "0x2",
      "transactionHash": "0xd5db3aa88ae9f9f4f2dc9bfceadb309ef5401567376f0a9206fa983ee317899f",
      "transactionIndex": "0x7",
      "blockHash": "0xc796aed269344c05a12b79741c543fdafd78de6b6f587352d6da32d6fb19db22",
      "blockNumber": "0x2c92027",
      "gasUsed": "0xb55a",
      "effectiveGasPrice": "0x7a121",
      "blobGasUsed": "0x9c40",
      "from": "0x4b992f2fbf714c0fcbb23bac5130ace48cad00cd",
      "to": "0x453a3fdbccc2476eaaa13c01cb17761eec9a0d28",
      "contractAddress": null,
      "daFootprintGasScalar": "0x190",
      "l1BaseFeeScalar": "0x7d0",
      "l1BlobBaseFee": "0x1",
      "l1BlobBaseFeeScalar": "0xdbba0",
      "l1Fee": "0x7a",
      "l1GasPrice": "0xa",
      "l1GasUsed": "0x640"
    },
    {
      "status": "0x1",
      "cumulativeGasUsed": "0x9adc8",
      "logs": [
        {
          "address": "0x453a3fdbccc2476eaaa13c01cb17761eec9a0d28",
          "topics": [
            "0x8c5be1e5ebec7d5bd14f71427d1e84f3dd0314c0f7b2291e5b200ac8c7c3b925",
            "0x0000000000000000000000004b992f2fbf714c0fcbb23bac5130ace48cad00cd",
            "0x0000000000000000000000009cd2b0a732dd5e023a5539921e0fd1c30e198dba"
          ],
          "data": "0xffffffffffffffffffffffffffffffffffffffffffffffffffffffffffffffff",
          "blockHash": "0x48182fff8e1f28a4c22657d4118d0500b590b16026bd6ab00882175c155b50fe",
          "blockNumber": "0x2c92029",
          "blockTimestamp": "0x69b6cd75",
          "transactionHash": "0x113281c64a2fff4efbccdb773aa046d37501dba58123d4aeb3fe2f406e07afa1",
          "transactionIndex": "0x7",
          "logIndex": "0x6",
          "removed": false
        }
      ],
      "logsBloom": "0x00000000000000000000000000000000000000004000000000000000000000000080000000000000000000000000000000000002000000000000000000200000000000000000000000000000000000000000000000000000000102000000000000000000000000000000000000020000000000000000000000000000000000000000000000000000000000000000000000000000000000000000000000000000020000000000000000000000000000000000080000000000000000000000000000000000000000000000000000000000000000000000400000000000000000080010000000000000000000000000000000000000000000000000000000000000",
      "type": "0x2",
      "transactionHash": "0x113281c64a2fff4efbccdb773aa046d37501dba58123d4aeb3fe2f406e07afa1",
      "transactionIndex": "0x7",
      "blockHash": "0x48182fff8e1f28a4c22657d4118d0500b590b16026bd6ab00882175c155b50fe",
      "blockNumber": "0x2c92029",
      "gasUsed": "0xb596",
      "effectiveGasPrice": "0x7a121",
      "blobGasUsed": "0x9c40",
      "from": "0x4b992f2fbf714c0fcbb23bac5130ace48cad00cd",
      "to": "0x453a3fdbccc2476eaaa13c01cb17761eec9a0d28",
      "contractAddress": null,
      "daFootprintGasScalar": "0x190",
      "l1BaseFeeScalar": "0x7d0",
      "l1BlobBaseFee": "0x1",
      "l1BlobBaseFeeScalar": "0xdbba0",
      "l1Fee": "0x7a",
      "l1GasPrice": "0xa",
      "l1GasUsed": "0x640"
    },
    {
      "status": "0x1",
      "cumulativeGasUsed": "0x61526",
      "logs": [
        {
          "address": "0x000000000022d473030f116ddee9f6b43ac78ba3",
          "topics": [
            "0xda9fa7c1b00402c17d0161b249b1ab8bbec047c5a52207b9c112deffd817036b",
            "0x0000000000000000000000004b992f2fbf714c0fcbb23bac5130ace48cad00cd",
            "0x000000000000000000000000453a3fdbccc2476eaaa13c01cb17761eec9a0d28",
            "0x000000000000000000000000f969aee60879c54baaed9f3ed26147db216fd664"
          ],
          "data": "0x000000000000000000000000ffffffffffffffffffffffffffffffffffffffff0000000000000000000000000000000000000000000000000000ffffffffffff",
          "blockHash": "0x9b300a57381038026fde10db08bee705e208355c055178f3abb020e657a84182",
          "blockNumber": "0x2c9202a",
          "blockTimestamp": "0x69b6cd76",
          "transactionHash": "0x7557ccb8c5ce1fdc4a61b0d8208febbfa89b2c760a2a35020da227dcbb706d5f",
          "transactionIndex": "0x5",
          "logIndex": "0x3",
          "removed": false
        }
      ],
      "logsBloom": "0x00010000000000000000000000000000000000000000000000000000000000000000000000000000000000000000000000000002080000000000000000080000000000000000000000000000000000000000000000000000000100001000000000000000000000000000000000020000000000000040000000000000000000000020000000000000000000000000000000000000000000000000000000000000000000000000000000000000000000000000000000000000000100080020000000000000000000000000000000000000000000000000000040000000000000000000000000000000000000000000000000000000000000000000000000002400",
      "type": "0x2",
      "transactionHash": "0x7557ccb8c5ce1fdc4a61b0d8208febbfa89b2c760a2a35020da227dcbb706d5f",
      "transactionIndex": "0x5",
      "blockHash": "0x9b300a57381038026fde10db08bee705e208355c055178f3abb020e657a84182",
      "blockNumber": "0x2c9202a",
      "gasUsed": "0xbaca",
      "effectiveGasPrice": "0x7a121",
      "blobGasUsed": "0xabe0",
      "from": "0x4b992f2fbf714c0fcbb23bac5130ace48cad00cd",
      "to": "0x000000000022d473030f116ddee9f6b43ac78ba3",
      "contractAddress": null,
      "daFootprintGasScalar": "0x190",
      "l1BaseFeeScalar": "0x7d0",
      "l1BlobBaseFee": "0x1",
      "l1BlobBaseFeeScalar": "0xdbba0",
      "l1Fee": "0x86",
      "l1GasPrice": "0xa",
      "l1GasUsed": "0x6e7"
    },
    {
      "status": "0x1",
      "cumulativeGasUsed": "0x4a4e8",
      "logs": [
        {
          "address": "0x000000000022d473030f116ddee9f6b43ac78ba3",
          "topics": [
            "0xda9fa7c1b00402c17d0161b249b1ab8bbec047c5a52207b9c112deffd817036b",
            "0x0000000000000000000000004b992f2fbf714c0fcbb23bac5130ace48cad00cd",
            "0x000000000000000000000000453a3fdbccc2476eaaa13c01cb17761eec9a0d28",
            "0x00000000000000000000000000b036b58a818b1bc34d502d3fe730db729e62ac"
          ],
          "data": "0x000000000000000000000000ffffffffffffffffffffffffffffffffffffffff0000000000000000000000000000000000000000000000000000ffffffffffff",
          "blockHash": "0xa24cee648c82cc40e1919647dc0d5b1813fda0347381ee4d01b29d5ef003e4da",
          "blockNumber": "0x2c9202d",
          "blockTimestamp": "0x69b6cd79",
          "transactionHash": "0x61ff60293dbb4fff1f4144a25d57e95c9ac4db25d477ffc23336df8a608b1a9c",
          "transactionIndex": "0x4",
          "logIndex": "0x2",
          "removed": false
        }
      ],
      "logsBloom": "0x00010000000000000000000000000000000000000000000000000000000000000000000000000000000000000000000000000002081000000000000000080000000000000000000000000000000000000000000000000000000100000000000000000000000000000000000000024000000000000000000000000000000000000020000000000000000000000000000000000000000000000000000000000000000000000000000000000000000000000000000000000020000100080020000000000000000000000000000000000000000000000000000040000000000000000000000000000000000000000000000000000000000000000000000000000400",
      "type": "0x2",
      "transactionHash": "0x61ff60293dbb4fff1f4144a25d57e95c9ac4db25d477ffc23336df8a608b1a9c",
      "transactionIndex": "0x4",
      "blockHash": "0xa24cee648c82cc40e1919647dc0d5b1813fda0347381ee4d01b29d5ef003e4da",
      "blockNumber": "0x2c9202d",
      "gasUsed": "0xbabe",
      "effectiveGasPrice": "0x7a121",
      "blobGasUsed": "0xaa50",
      "from": "0x4b992f2fbf714c0fcbb23bac5130ace48cad00cd",
      "to": "0x000000000022d473030f116ddee9f6b43ac78ba3",
      "contractAddress": null,
      "daFootprintGasScalar": "0x190",
      "l1BaseFeeScalar": "0x7d0",
      "l1BlobBaseFee": "0x1",
      "l1BlobBaseFeeScalar": "0xdbba0",
      "l1Fee": "0x85",
      "l1GasPrice": "0xa",
      "l1GasUsed": "0x6da"
    },
    {
      "status": "0x1",
      "cumulativeGasUsed": "0x32f52",
      "logs": [
        {
          "address": "0xde08e00a44bbb424efdb7ce7cdbd437581cdf9d5",
          "topics": [
            "0x8c5be1e5ebec7d5bd14f71427d1e84f3dd0314c0f7b2291e5b200ac8c7c3b925",
            "0x0000000000000000000000004b992f2fbf714c0fcbb23bac5130ace48cad00cd",
            "0x000000000000000000000000000000000022d473030f116ddee9f6b43ac78ba3"
          ],
          "data": "0xffffffffffffffffffffffffffffffffffffffffffffffffffffffffffffffff",
          "blockHash": "0x12b0d33fc870802a92191ff8fa849e0b39eb802f5d01a795209496634431b417",
          "blockNumber": "0x2c92030",
          "blockTimestamp": "0x69b6cd7c",
          "transactionHash": "0xf6e1459edcb2059230b053955c9488c641662dd9f42bdba7a306244a04b9455d",
          "transactionIndex": "0x3",
          "logIndex": "0x1",
          "removed": false
        }
      ],
      "logsBloom": "0x00000000040000000400000000000000000000000000000000000000000000000000000000000000000000000000000000000002800000000000000000200000000000000000000000004000000000000000000000000800000100000000000000000000000000000000000000020000000000000000000000000000000000000000000000000000000000000000000000000000000000000000000000000000020000000000000000000000000000000000000080000000000000000000000000000000000000000000000000000000000000000000000000000000000000000010000000000000000000000000000000000000000000000000000000000000",
      "type": "0x2",
      "transactionHash": "0xf6e1459edcb2059230b053955c9488c641662dd9f42bdba7a306244a04b9455d",
      "transactionIndex": "0x3",
      "blockHash": "0x12b0d33fc870802a92191ff8fa849e0b39eb802f5d01a795209496634431b417",
      "blockNumber": "0x2c92030",
      "gasUsed": "0xb55a",
      "effectiveGasPrice": "0x7a121",
      "blobGasUsed": "0x9c40",
      "from": "0x4b992f2fbf714c0fcbb23bac5130ace48cad00cd",
      "to": "0xde08e00a44bbb424efdb7ce7cdbd437581cdf9d5",
      "contractAddress": null,
      "daFootprintGasScalar": "0x190",
      "l1BaseFeeScalar": "0x7d0",
      "l1BlobBaseFee": "0x1",
      "l1BlobBaseFeeScalar": "0xdbba0",
      "l1Fee": "0x7a",
      "l1GasPrice": "0xa",
      "l1GasUsed": "0x640"
    },
    {
      "status": "0x1",
      "cumulativeGasUsed": "0x60ff2",
      "logs": [
        {
          "address": "0xde08e00a44bbb424efdb7ce7cdbd437581cdf9d5",
          "topics": [
            "0x8c5be1e5ebec7d5bd14f71427d1e84f3dd0314c0f7b2291e5b200ac8c7c3b925",
            "0x0000000000000000000000004b992f2fbf714c0fcbb23bac5130ace48cad00cd",
            "0x0000000000000000000000009cd2b0a732dd5e023a5539921e0fd1c30e198dba"
          ],
          "data": "0xffffffffffffffffffffffffffffffffffffffffffffffffffffffffffffffff",
          "blockHash": "0x9f47ea846152fc05bece03b8a9ee5e441bc91b330de647885abd2a66a4c44c78",
          "blockNumber": "0x2c92033",
          "blockTimestamp": "0x69b6cd7f",
          "transactionHash": "0x1225f4dd4a71b86495ce0614931cb90941f8f660042f480e0840cb9348de9cd3",
          "transactionIndex": "0x5",
          "logIndex": "0x3",
          "removed": false
        }
      ],
      "logsBloom": "0x00000000040000000400000000000000000000004000000000000000000000000080000000000000000000000000000000000002000000000000000000200000000000000000000000000000000000000000000000000000000100000000000000000000000000000000000000020000000000000000000000000000000000000000000000000000000000000000000000000000000000000000000000000000020000000000000000000000000000000000080080000000000000000000000000000000000000000000000000000000000000000000000000000000000000000010000000000000000000000000000000000000000000000000000000000000",
      "type": "0x2",
      "transactionHash": "0x1225f4dd4a71b86495ce0614931cb90941f8f660042f480e0840cb9348de9cd3",
      "transactionIndex": "0x5",
      "blockHash": "0x9f47ea846152fc05bece03b8a9ee5e441bc91b330de647885abd2a66a4c44c78",
      "blockNumber": "0x2c92033",
      "gasUsed": "0xb596",
      "effectiveGasPrice": "0x7a121",
      "blobGasUsed": "0x9c40",
      "from": "0x4b992f2fbf714c0fcbb23bac5130ace48cad00cd",
      "to": "0xde08e00a44bbb424efdb7ce7cdbd437581cdf9d5",
      "contractAddress": null,
      "daFootprintGasScalar": "0x190",
      "l1BaseFeeScalar": "0x7d0",
      "l1BlobBaseFee": "0x1",
      "l1BlobBaseFeeScalar": "0xdbba0",
      "l1Fee": "0x7a",
      "l1GasPrice": "0xa",
      "l1GasUsed": "0x640"
    },
    {
      "status": "0x1",
      "cumulativeGasUsed": "0x334c2",
      "logs": [
        {
          "address": "0x000000000022d473030f116ddee9f6b43ac78ba3",
          "topics": [
            "0xda9fa7c1b00402c17d0161b249b1ab8bbec047c5a52207b9c112deffd817036b",
            "0x0000000000000000000000004b992f2fbf714c0fcbb23bac5130ace48cad00cd",
            "0x000000000000000000000000de08e00a44bbb424efdb7ce7cdbd437581cdf9d5",
            "0x000000000000000000000000f969aee60879c54baaed9f3ed26147db216fd664"
          ],
          "data": "0x000000000000000000000000ffffffffffffffffffffffffffffffffffffffff0000000000000000000000000000000000000000000000000000ffffffffffff",
          "blockHash": "0xbad72c410bc55660b6e00bb975f1209bc8192b8941049f7f3145d714adc7823e",
          "blockNumber": "0x2c92036",
          "blockTimestamp": "0x69b6cd82",
          "transactionHash": "0x1d8e771317b5834b2fd0188b9c449020ebfc14959dbf5e0df75cd4dc322286ad",
          "transactionIndex": "0x3",
          "logIndex": "0x1",
          "removed": false
        }
      ],
      "logsBloom": "0x00010000000000000000000000000000000000000000000000000000000000000000000000000000000000000000000000000002000000000000000000080000000000000000000000000000000000000000000000000000000100001000000000001000000000000000000000020000000000000040000000000000000000002020000000000000000000000000000000000000000000000000000000000000000000000000000000000000000000000000000000000000000000080000000000000000000000000000000000000000000000000000000040000000000000000000000000000000000000000000000000000000000000000000000000002400",
      "type": "0x2",
      "transactionHash": "0x1d8e771317b5834b2fd0188b9c449020ebfc14959dbf5e0df75cd4dc322286ad",
      "transactionIndex": "0x3",
      "blockHash": "0xbad72c410bc55660b6e00bb975f1209bc8192b8941049f7f3145d714adc7823e",
      "blockNumber": "0x2c92036",
      "gasUsed": "0xbaca",
      "effectiveGasPrice": "0x7a121",
      "blobGasUsed": "0xabe0",
      "from": "0x4b992f2fbf714c0fcbb23bac5130ace48cad00cd",
      "to": "0x000000000022d473030f116ddee9f6b43ac78ba3",
      "contractAddress": null,
      "daFootprintGasScalar": "0x190",
      "l1BaseFeeScalar": "0x7d0",
      "l1BlobBaseFee": "0x1",
      "l1BlobBaseFeeScalar": "0xdbba0",
      "l1Fee": "0x86",
      "l1GasPrice": "0xa",
      "l1GasUsed": "0x6e7"
    },
    {
      "status": "0x1",
      "cumulativeGasUsed": "0x85dcd",
      "logs": [
        {
          "address": "0x000000000022d473030f116ddee9f6b43ac78ba3",
          "topics": [
            "0xda9fa7c1b00402c17d0161b249b1ab8bbec047c5a52207b9c112deffd817036b",
            "0x0000000000000000000000004b992f2fbf714c0fcbb23bac5130ace48cad00cd",
            "0x000000000000000000000000de08e00a44bbb424efdb7ce7cdbd437581cdf9d5",
            "0x00000000000000000000000000b036b58a818b1bc34d502d3fe730db729e62ac"
          ],
          "data": "0x000000000000000000000000ffffffffffffffffffffffffffffffffffffffff0000000000000000000000000000000000000000000000000000ffffffffffff",
          "blockHash": "0xcc01ac49a60629396bbf6f9ff0f648b3cfc98dd7c60608043749f17c2b95fb9b",
          "blockNumber": "0x2c92038",
          "blockTimestamp": "0x69b6cd84",
          "transactionHash": "0xa31ee14e1f87c7e31eba58a7501e3724ae97a0f88daa47b28eb956cc24adc001",
          "transactionIndex": "0x7",
          "logIndex": "0x5",
          "removed": false
        }
      ],
      "logsBloom": "0x00010000000000000000000000000000000000000000000000000000000000000000000000000000000000000000000000000002001000000000000000080000000000000000000000000000000000000000000000000000000100000000000000001000000000000000000000024000000000000000000000000000000000002020000000000000000000000000000000000000000000000000000000000000000000000000000000000000000000000000000000000020000000080000000000000000000000000000000000000000000000000000000040000000000000000000000000000000000000000000000000000000000000000000000000000400",
      "type": "0x2",
      "transactionHash": "0xa31ee14e1f87c7e31eba58a7501e3724ae97a0f88daa47b28eb956cc24adc001",
      "transactionIndex": "0x7",
      "blockHash": "0xcc01ac49a60629396bbf6f9ff0f648b3cfc98dd7c60608043749f17c2b95fb9b",
      "blockNumber": "0x2c92038",
      "gasUsed": "0xbabe",
      "effectiveGasPrice": "0x7a121",
      "blobGasUsed": "0xaa50",
      "from": "0x4b992f2fbf714c0fcbb23bac5130ace48cad00cd",
      "to": "0x000000000022d473030f116ddee9f6b43ac78ba3",
      "contractAddress": null,
      "daFootprintGasScalar": "0x190",
      "l1BaseFeeScalar": "0x7d0",
      "l1BlobBaseFee": "0x1",
      "l1BlobBaseFeeScalar": "0xdbba0",
      "l1Fee": "0x85",
      "l1GasPrice": "0xa",
      "l1GasUsed": "0x6da"
    },
    {
      "status": "0x1",
      "cumulativeGasUsed": "0x8fc17",
      "logs": [
        {
          "address": "0x1468b3931fa11c20dea40dcfd1dbdccf8cc4a7ce",
          "topics": [
            "0xcbadc99cb2ebe103f429f71b5d7870b3fcb56cd9318c0779d5217c41a79117fa",
            "0xc0ac8571814cbcd40a92e08108250971af6b21b121898dc7ddbaeee3c6b25a0b"
          ],
          "data": "0x000000000000000000000000000000000000000000000000000000000000232800000000000000000000000000000000000000000000000000000000000003e80000000000000000000000004b992f2fbf714c0fcbb23bac5130ace48cad00cd",
          "blockHash": "0xa6580931e74ea264101e471214f3f87d0226979818d31217694807693fea5fd2",
          "blockNumber": "0x2c92039",
          "blockTimestamp": "0x69b6cd85",
          "transactionHash": "0xfa1cbf7da63db66cd2757e1fbef8194d80a0fdd80947dab472a173c1a7b5a0f6",
          "transactionIndex": "0x7",
          "logIndex": "0x5",
          "removed": false
        }
      ],
      "logsBloom": "0x00000000000000000000000000000000000000000001008000000000000000000000000000000000000002000000000000000000010000000000000000000000004000000000000000000000000000000080000000000000000000000000000000000000000000000000000000000000000000000000000000000000000000008000000400010000000000000000000000000000000000000000000000000000000000000000000000000000000000000000000000000000000000000000000000000000000000000000000000000000000000000000000000000000000000000000000000000000000000000000000000000000000000000000000000000000",
      "type": "0x2",
      "transactionHash": "0xfa1cbf7da63db66cd2757e1fbef8194d80a0fdd80947dab472a173c1a7b5a0f6",
      "transactionIndex": "0x7",
      "blockHash": "0xa6580931e74ea264101e471214f3f87d0226979818d31217694807693fea5fd2",
      "blockNumber": "0x2c92039",
      "gasUsed": "0xc16f",
      "effectiveGasPrice": "0x7a121",
      "blobGasUsed": "0xb6d0",
      "from": "0x4b992f2fbf714c0fcbb23bac5130ace48cad00cd",
      "to": "0x1468b3931fa11c20dea40dcfd1dbdccf8cc4a7ce",
      "contractAddress": null,
      "daFootprintGasScalar": "0x190",
      "l1BaseFeeScalar": "0x7d0",
      "l1BlobBaseFee": "0x1",
      "l1BlobBaseFeeScalar": "0xdbba0",
      "l1Fee": "0x8e",
      "l1GasPrice": "0xa",
      "l1GasUsed": "0x752"
    },
    {
      "status": "0x1",
      "cumulativeGasUsed": "0xa7b04",
      "logs": [
        {
          "address": "0x3fdf7f893e7e8aabc9829c9080058e7d06ee40c4",
          "topics": [
            "0x8d7be83a1c1f6e48c938b033ff9dc1a6a1a9d44f391a4de78fa90441ec04efde",
            "0xc0ac8571814cbcd40a92e08108250971af6b21b121898dc7ddbaeee3c6b25a0b",
            "0x4ed07fe8fac5680242228164624a034a8f1d3384bde547447d80aea70307ccb5"
          ],
          "data": "0x0000000000000000000000000000000000000000000000000000000000000001",
          "blockHash": "0xba0a4034c2f3d11dfdcda907dca447b9205397f4f0e6b60394708aa358506002",
          "blockNumber": "0x2c9203a",
          "blockTimestamp": "0x69b6cd86",
          "transactionHash": "0x4805f88af0f113141ee92fb32c7a6fd7aa0bbb4c7a406fd5e06ce732527d2260",
          "transactionIndex": "0x7",
          "logIndex": "0xa",
          "removed": false
        }
      ],
      "logsBloom": "0x00000000000000000000000008000000000000000000000000000000000000000000000000000000000004000000000000000000010000000000000000000002000000000000000000000000000000100000000000000000000000000000000000000000000200000000000000000000000000000000000000000000000000008000000400000001000000000000000000000000000000000000000000000000000000000000000000000000000000000000000200000002000000000000000000000000000000000000000000000000100000000000000000000000000000000000000000000000000000000000000000000000000000000000000000000000",
      "type": "0x2",
      "transactionHash": "0x4805f88af0f113141ee92fb32c7a6fd7aa0bbb4c7a406fd5e06ce732527d2260",
      "transactionIndex": "0x7",
      "blockHash": "0xba0a4034c2f3d11dfdcda907dca447b9205397f4f0e6b60394708aa358506002",
      "blockNumber": "0x2c9203a",
      "gasUsed": "0x12cdd",
      "effectiveGasPrice": "0x7a121",
      "blobGasUsed": "0xe740",
      "from": "0x4b992f2fbf714c0fcbb23bac5130ace48cad00cd",
      "to": "0x3fdf7f893e7e8aabc9829c9080058e7d06ee40c4",
      "contractAddress": null,
      "daFootprintGasScalar": "0x190",
      "l1BaseFeeScalar": "0x7d0",
      "l1BlobBaseFee": "0x1",
      "l1BlobBaseFeeScalar": "0xdbba0",
      "l1Fee": "0xb4",
      "l1GasPrice": "0xa",
      "l1GasUsed": "0x942"
    },
    {
      "status": "0x1",
      "cumulativeGasUsed": "0x904be",
      "logs": [
        {
          "address": "0x00b036b58a818b1bc34d502d3fe730db729e62ac",
          "topics": [
            "0xdd466e674ea557f56295e2d0218a125ea4b4f0f6f3307b95f85e6110838d6438",
            "0xc0ac8571814cbcd40a92e08108250971af6b21b121898dc7ddbaeee3c6b25a0b",
            "0x000000000000000000000000453a3fdbccc2476eaaa13c01cb17761eec9a0d28",
            "0x000000000000000000000000de08e00a44bbb424efdb7ce7cdbd437581cdf9d5"
          ],
          "data": "0x0000000000000000000000000000000000000000000000000000000000000bb8000000000000000000000000000000000000000000000000000000000000003c0000000000000000000000003fdf7f893e7e8aabc9829c9080058e7d06ee40c400000000000000000000000000000000000000010000000000000000000000000000000000000000000000000000000000000000000000000000000000000000",
          "blockHash": "0x765b0cbf27fddbb9a208d80c10fd7cd3c002efa3383dea8931e4fb7aa826c264",
          "blockNumber": "0x2c9203b",
          "blockTimestamp": "0x69b6cd87",
          "transactionHash": "0x267f99f7c8eca363ba85d6fa3218c07273505d667b56c220f9749faed2552ba6",
          "transactionIndex": "0x7",
          "logIndex": "0x5",
          "removed": false
        }
      ],
      "logsBloom": "0x0000000000000000000000000000000000000000000000000000000000000000000000000000000000000000000000000000000009000000000000000000000000000000000000000000000000000000000000000000000000000000000000000000100000000000000000000000000000000000000000000000000000000000a020000400000008000000000008000000000001000000000000000000200000000000000000000000000000000000000000000000000000000100000020000000000000000000000000000000000000000000000000000000000000000000000000000000000000000000000000000000000000000002000000000000000010",
      "type": "0x2",
      "transactionHash": "0x267f99f7c8eca363ba85d6fa3218c07273505d667b56c220f9749faed2552ba6",
      "transactionIndex": "0x7",
      "blockHash": "0x765b0cbf27fddbb9a208d80c10fd7cd3c002efa3383dea8931e4fb7aa826c264",
      "blockNumber": "0x2c9203b",
      "gasUsed": "0xca16",
      "effectiveGasPrice": "0x7a121",
      "blobGasUsed": "0xdde0",
      "from": "0x4b992f2fbf714c0fcbb23bac5130ace48cad00cd",
      "to": "0x00b036b58a818b1bc34d502d3fe730db729e62ac",
      "contractAddress": null,
      "daFootprintGasScalar": "0x190",
      "l1BaseFeeScalar": "0x7d0",
      "l1BlobBaseFee": "0x1",
      "l1BlobBaseFeeScalar": "0xdbba0",
      "l1Fee": "0xad",
      "l1GasPrice": "0xa",
      "l1GasUsed": "0x8e4"
    },
    {
      "status": "0x1",
      "cumulativeGasUsed": "0x1163dc",
      "logs": [
        {
          "address": "0xf969aee60879c54baaed9f3ed26147db216fd664",
          "topics": [
            "0xddf252ad1be2c89b69c2b068fc378daa952ba7f163c4a11628f55a4df523b3ef",
            "0x0000000000000000000000000000000000000000000000000000000000000000",
            "0x0000000000000000000000004b992f2fbf714c0fcbb23bac5130ace48cad00cd",
            "0x0000000000000000000000000000000000000000000000000000000000001c1f"
          ],
          "data": "0x",
          "blockHash": "0x4fa7bb3e43c0d7886e85c45f16f6b84ea191194c8e414f2d4e2cb410b6034473",
          "blockNumber": "0x2c9203c",
          "blockTimestamp": "0x69b6cd88",
          "transactionHash": "0x84d666e5e0571b943c954ca4060a9db430f626837ac4fa9d07bb4bed6d67fa3b",
          "transactionIndex": "0x8",
          "logIndex": "0x8",
          "removed": false
        },
        {
          "address": "0x00b036b58a818b1bc34d502d3fe730db729e62ac",
          "topics": [
            "0xf208f4912782fd25c7f114ca3723a2d5dd6f3bcc3ac8db5af63baa85f711d5ec",
            "0xc0ac8571814cbcd40a92e08108250971af6b21b121898dc7ddbaeee3c6b25a0b",
            "0x000000000000000000000000f969aee60879c54baaed9f3ed26147db216fd664"
          ],
          "data": "0xfffffffffffffffffffffffffffffffffffffffffffffffffffffffffff2764c00000000000000000000000000000000000000000000000000000000000d89b40000000000000000000000000000000000000000000000056bc75e2d631000000000000000000000000000000000000000000000000000000000000000001c1f",
          "blockHash": "0x4fa7bb3e43c0d7886e85c45f16f6b84ea191194c8e414f2d4e2cb410b6034473",
          "blockNumber": "0x2c9203c",
          "blockTimestamp": "0x69b6cd88",
          "transactionHash": "0x84d666e5e0571b943c954ca4060a9db430f626837ac4fa9d07bb4bed6d67fa3b",
          "transactionIndex": "0x8",
          "logIndex": "0x9",
          "removed": false
        },
        {
          "address": "0x453a3fdbccc2476eaaa13c01cb17761eec9a0d28",
          "topics": [
            "0xddf252ad1be2c89b69c2b068fc378daa952ba7f163c4a11628f55a4df523b3ef",
            "0x0000000000000000000000004b992f2fbf714c0fcbb23bac5130ace48cad00cd",
            "0x00000000000000000000000000b036b58a818b1bc34d502d3fe730db729e62ac"
          ],
          "data": "0x0000000000000000000000000000000000000000000000056bc75e2d630ffffb",
          "blockHash": "0x4fa7bb3e43c0d7886e85c45f16f6b84ea191194c8e414f2d4e2cb410b6034473",
          "blockNumber": "0x2c9203c",
          "blockTimestamp": "0x69b6cd88",
          "transactionHash": "0x84d666e5e0571b943c954ca4060a9db430f626837ac4fa9d07bb4bed6d67fa3b",
          "transactionIndex": "0x8",
          "logIndex": "0xa",
          "removed": false
        },
        {
          "address": "0xde08e00a44bbb424efdb7ce7cdbd437581cdf9d5",
          "topics": [
            "0xddf252ad1be2c89b69c2b068fc378daa952ba7f163c4a11628f55a4df523b3ef",
            "0x0000000000000000000000004b992f2fbf714c0fcbb23bac5130ace48cad00cd",
            "0x00000000000000000000000000b036b58a818b1bc34d502d3fe730db729e62ac"
          ],
          "data": "0x0000000000000000000000000000000000000000000000056bc75e2d630ffffb",
          "blockHash": "0x4fa7bb3e43c0d7886e85c45f16f6b84ea191194c8e414f2d4e2cb410b6034473",
          "blockNumber": "0x2c9203c",
          "blockTimestamp": "0x69b6cd88",
          "transactionHash": "0x84d666e5e0571b943c954ca4060a9db430f626837ac4fa9d07bb4bed6d67fa3b",
          "transactionIndex": "0x8",
          "logIndex": "0xb",
          "removed": false
        }
      ],
      "logsBloom": "0x00000000040000000400000000000000000000000000000000000000000000000000000000000000000000000000000000000002011000000000000000000000000000000000000000000008000000000000000200000000000102001000000000000000020000000000000000024800000000000040000000000010000000008000000401000000000000000008000000000000000000000000000400000000000004000000000000000000000000000800000080000020000000000000000000000002080100000000000000000000000000000000400000000000000020084000000000000000000000000000000004000000000002000000000000002010",
      "type": "0x2",
      "transactionHash": "0x84d666e5e0571b943c954ca4060a9db430f626837ac4fa9d07bb4bed6d67fa3b",
      "transactionIndex": "0x8",
      "blockHash": "0x4fa7bb3e43c0d7886e85c45f16f6b84ea191194c8e414f2d4e2cb410b6034473",
      "blockNumber": "0x2c9203c",
      "gasUsed": "0x69d79",
      "effectiveGasPrice": "0x7a121",
      "blobGasUsed": "0x1bd50",
      "from": "0x4b992f2fbf714c0fcbb23bac5130ace48cad00cd",
      "to": "0xf969aee60879c54baaed9f3ed26147db216fd664",
      "contractAddress": null,
      "daFootprintGasScalar": "0x190",
      "l1BaseFeeScalar": "0x7d0",
      "l1BlobBaseFee": "0x1",
      "l1BlobBaseFeeScalar": "0xdbba0",
      "l1Fee": "0x15c",
      "l1GasPrice": "0xa",
      "l1GasUsed": "0x11d5"
    },
    {
      "status": "0x1",
      "cumulativeGasUsed": "0x49f84",
      "logs": [
        {
          "address": "0x453a3fdbccc2476eaaa13c01cb17761eec9a0d28",
          "topics": [
            "0x8c5be1e5ebec7d5bd14f71427d1e84f3dd0314c0f7b2291e5b200ac8c7c3b925",
            "0x000000000000000000000000e05fcc23807536bee418f142d19fa0d21bb0cff7",
            "0x000000000000000000000000000000000022d473030f116ddee9f6b43ac78ba3"
          ],
          "data": "0xffffffffffffffffffffffffffffffffffffffffffffffffffffffffffffffff",
          "blockHash": "0x8135bec5ea4e425a456ae935cf7d8d3a10d5fb745aa0c15c8d74ab511ad6bd9f",
          "blockNumber": "0x2c9203e",
          "blockTimestamp": "0x69b6cd8a",
          "transactionHash": "0xdbdf993d56171eb399fd3d847bc600d168e644d7b7d732ba5d613ada66564f86",
          "transactionIndex": "0x4",
          "logIndex": "0x2",
          "removed": false
        }
      ],
      "logsBloom": "0x00000000000000000000000000000000000000000000000000000000000000000000000000000800000000000000000000000000800000000000000000200000000000000000000000004000000000000200000000000800000002000000000000000000000000000000000000000000000000000000000000000000000000000000000000000000000000000000000000000000000000000000000000000000020000000000000000000000000000000000000000000000000000000000400000000000000000000000000000000000000000000000400000000000000000080010000000000000000000000000000000000000000000000000000000000000",
      "type": "0x2",
      "transactionHash": "0xdbdf993d56171eb399fd3d847bc600d168e644d7b7d732ba5d613ada66564f86",
      "transactionIndex": "0x4",
      "blockHash": "0x8135bec5ea4e425a456ae935cf7d8d3a10d5fb745aa0c15c8d74ab511ad6bd9f",
      "blockNumber": "0x2c9203e",
      "gasUsed": "0xb55a",
      "effectiveGasPrice": "0x7a121",
      "blobGasUsed": "0x9c40",
      "from": "0xe05fcc23807536bee418f142d19fa0d21bb0cff7",
      "to": "0x453a3fdbccc2476eaaa13c01cb17761eec9a0d28",
      "contractAddress": null,
      "daFootprintGasScalar": "0x190",
      "l1BaseFeeScalar": "0x7d0",
      "l1BlobBaseFee": "0x1",
      "l1BlobBaseFeeScalar": "0xdbba0",
      "l1Fee": "0x7a",
      "l1GasPrice": "0xa",
      "l1GasUsed": "0x640"
    },
    {
      "status": "0x1",
      "cumulativeGasUsed": "0x4b588",
      "logs": [
        {
          "address": "0x453a3fdbccc2476eaaa13c01cb17761eec9a0d28",
          "topics": [
            "0x8c5be1e5ebec7d5bd14f71427d1e84f3dd0314c0f7b2291e5b200ac8c7c3b925",
            "0x000000000000000000000000e05fcc23807536bee418f142d19fa0d21bb0cff7",
            "0x0000000000000000000000009cd2b0a732dd5e023a5539921e0fd1c30e198dba"
          ],
          "data": "0xffffffffffffffffffffffffffffffffffffffffffffffffffffffffffffffff",
          "blockHash": "0x6bde68591d276ffd0ebe929f95ce66bd4f4aba8e8598d8a37ef4756e6a0748d2",
          "blockNumber": "0x2c92041",
          "blockTimestamp": "0x69b6cd8d",
          "transactionHash": "0x28e6783d92f837e2707432d403afa5769ed5d13781d8ccd47bfb651895147919",
          "transactionIndex": "0x4",
          "logIndex": "0x2",
          "removed": false
        }
      ],
      "logsBloom": "0x00000000000000000000000000000000000000004000000000000000000000000080000000000800000000000000000000000000000000000000000000200000000000000000000000000000000000000200000000000000000002000000000000000000000000000000000000000000000000000000000000000000000000000000000000000000000000000000000000000000000000000000000000000000020000000000000000000000000000000000080000000000000000000000400000000000000000000000000000000000000000000000400000000000000000080010000000000000000000000000000000000000000000000000000000000000",
      "type": "0x2",
      "transactionHash": "0x28e6783d92f837e2707432d403afa5769ed5d13781d8ccd47bfb651895147919",
      "transactionIndex": "0x4",
      "blockHash": "0x6bde68591d276ffd0ebe929f95ce66bd4f4aba8e8598d8a37ef4756e6a0748d2",
      "blockNumber": "0x2c92041",
      "gasUsed": "0xb596",
      "effectiveGasPrice": "0x7a121",
      "blobGasUsed": "0x9c40",
      "from": "0xe05fcc23807536bee418f142d19fa0d21bb0cff7",
      "to": "0x453a3fdbccc2476eaaa13c01cb17761eec9a0d28",
      "contractAddress": null,
      "daFootprintGasScalar": "0x190",
      "l1BaseFeeScalar": "0x7d0",
      "l1BlobBaseFee": "0x1",
      "l1BlobBaseFeeScalar": "0xdbba0",
      "l1Fee": "0x7a",
      "l1GasPrice": "0xa",
      "l1GasUsed": "0x640"
    },
    {
      "status": "0x1",
      "cumulativeGasUsed": "0x334c2",
      "logs": [
        {
          "address": "0x000000000022d473030f116ddee9f6b43ac78ba3",
          "topics": [
            "0xda9fa7c1b00402c17d0161b249b1ab8bbec047c5a52207b9c112deffd817036b",
            "0x000000000000000000000000e05fcc23807536bee418f142d19fa0d21bb0cff7",
            "0x000000000000000000000000453a3fdbccc2476eaaa13c01cb17761eec9a0d28",
            "0x000000000000000000000000f969aee60879c54baaed9f3ed26147db216fd664"
          ],
          "data": "0x000000000000000000000000ffffffffffffffffffffffffffffffffffffffff0000000000000000000000000000000000000000000000000000ffffffffffff",
          "blockHash": "0x65adc664dc6bf805b85441c63f341a2c87ef1edd458e0c0cde5de8b57ab70c77",
          "blockNumber": "0x2c92043",
          "blockTimestamp": "0x69b6cd8f",
          "transactionHash": "0xf7ba227592a47f2e00677ff1f4aeed9e5c4896ec9d359885941d52d8b545b70a",
          "transactionIndex": "0x3",
          "logIndex": "0x1",
          "removed": false
        }
      ],
      "logsBloom": "0x00010000000000000000000000000000000000000000000000000000000000000000000000000800000000000000000000000000080000000000000000080000000000000000000000000000000000000200000000000000000000001000000000000000000000000000000000000000000000000040000000000000000000000020000000000000000000000000000000000000000000000000000000000000000000000000000000000000000000000000000000000000000100080020400000000000000000000000000000000000000000000000000040000000000000000000000000000000000000000000000000000000000000000000000000002400",
      "type": "0x2",
      "transactionHash": "0xf7ba227592a47f2e00677ff1f4aeed9e5c4896ec9d359885941d52d8b545b70a",
      "transactionIndex": "0x3",
      "blockHash": "0x65adc664dc6bf805b85441c63f341a2c87ef1edd458e0c0cde5de8b57ab70c77",
      "blockNumber": "0x2c92043",
      "gasUsed": "0xbaca",
      "effectiveGasPrice": "0x7a121",
      "blobGasUsed": "0xa8c0",
      "from": "0xe05fcc23807536bee418f142d19fa0d21bb0cff7",
      "to": "0x000000000022d473030f116ddee9f6b43ac78ba3",
      "contractAddress": null,
      "daFootprintGasScalar": "0x190",
      "l1BaseFeeScalar": "0x7d0",
      "l1BlobBaseFee": "0x1",
      "l1BlobBaseFeeScalar": "0xdbba0",
      "l1Fee": "0x84",
      "l1GasPrice": "0xa",
      "l1GasUsed": "0x6cd"
    },
    {
      "status": "0x1",
      "cumulativeGasUsed": "0x7854c",
      "logs": [
        {
          "address": "0x000000000022d473030f116ddee9f6b43ac78ba3",
          "topics": [
            "0xda9fa7c1b00402c17d0161b249b1ab8bbec047c5a52207b9c112deffd817036b",
            "0x000000000000000000000000e05fcc23807536bee418f142d19fa0d21bb0cff7",
            "0x000000000000000000000000453a3fdbccc2476eaaa13c01cb17761eec9a0d28",
            "0x00000000000000000000000000b036b58a818b1bc34d502d3fe730db729e62ac"
          ],
          "data": "0x000000000000000000000000ffffffffffffffffffffffffffffffffffffffff0000000000000000000000000000000000000000000000000000ffffffffffff",
          "blockHash": "0xf41c3174d21f130f7c126144eee40f9ade98a758543e623e7640d7c7d1734a9e",
          "blockNumber": "0x2c92045",
          "blockTimestamp": "0x69b6cd91",
          "transactionHash": "0xb849ea0ae6473ee77395ef69fb2e74411a6c99ef4af6bd8edb1c0d6031eca6fa",
          "transactionIndex": "0x6",
          "logIndex": "0x4",
          "removed": false
        }
      ],
      "logsBloom": "0x00010000000000000000000000000000000000000000000000000000000000000000000000000800000000000000000000000000081000000000000000080000000000000000000000000000000000000200000000000000000000000000000000000000000000000000000000004000000000000000000000000000000000000020000000000000000000000000000000000000000000000000000000000000000000000000000000000000000000000000000000000020000100080020400000000000000000000000000000000000000000000000000040000000000000000000000000000000000000000000000000000000000000000000000000000400",
      "type": "0x2",
      "transactionHash": "0xb849ea0ae6473ee77395ef69fb2e74411a6c99ef4af6bd8edb1c0d6031eca6fa",
      "transactionIndex": "0x6",
      "blockHash": "0xf41c3174d21f130f7c126144eee40f9ade98a758543e623e7640d7c7d1734a9e",
      "blockNumber": "0x2c92045",
      "gasUsed": "0xbabe",
      "effectiveGasPrice": "0x7a121",
      "blobGasUsed": "0xa730",
      "from": "0xe05fcc23807536bee418f142d19fa0d21bb0cff7",
      "to": "0x000000000022d473030f116ddee9f6b43ac78ba3",
      "contractAddress": null,
      "daFootprintGasScalar": "0x190",
      "l1BaseFeeScalar": "0x7d0",
      "l1BlobBaseFee": "0x1",
      "l1BlobBaseFeeScalar": "0xdbba0",
      "l1Fee": "0x83",
      "l1GasPrice": "0xa",
      "l1GasUsed": "0x6bf"
    },
    {
      "status": "0x1",
      "cumulativeGasUsed": "0xf574e",
      "logs": [
        {
          "address": "0xde08e00a44bbb424efdb7ce7cdbd437581cdf9d5",
          "topics": [
            "0x8c5be1e5ebec7d5bd14f71427d1e84f3dd0314c0f7b2291e5b200ac8c7c3b925",
            "0x000000000000000000000000e05fcc23807536bee418f142d19fa0d21bb0cff7",
            "0x000000000000000000000000000000000022d473030f116ddee9f6b43ac78ba3"
          ],
          "data": "0xffffffffffffffffffffffffffffffffffffffffffffffffffffffffffffffff",
          "blockHash": "0x37d5fa2abde230f92a4cb7a84d52f4dfcda129a9fa0441c0a91b9c86d3bf1bdd",
          "blockNumber": "0x2c92048",
          "blockTimestamp": "0x69b6cd94",
          "transactionHash": "0xb91c257651033c57c14243e09cf9153783925dc8a187071b29981f7e88d69c50",
          "transactionIndex": "0x7",
          "logIndex": "0xb",
          "removed": false
        }
      ],
      "logsBloom": "0x00000000040000000400000000000000000000000000000000000000000000000000000000000800000000000000000000000000800000000000000000200000000000000000000000004000000000000200000000000800000000000000000000000000000000000000000000000000000000000000000000000000000000000000000000000000000000000000000000000000000000000000000000000000020000000000000000000000000000000000000080000000000000000000400000000000000000000000000000000000000000000000000000000000000000000010000000000000000000000000000000000000000000000000000000000000",
      "type": "0x2",
      "transactionHash": "0xb91c257651033c57c14243e09cf9153783925dc8a187071b29981f7e88d69c50",
      "transactionIndex": "0x7",
      "blockHash": "0x37d5fa2abde230f92a4cb7a84d52f4dfcda129a9fa0441c0a91b9c86d3bf1bdd",
      "blockNumber": "0x2c92048",
      "gasUsed": "0xb55a",
      "effectiveGasPrice": "0x7a121",
      "blobGasUsed": "0x9c40",
      "from": "0xe05fcc23807536bee418f142d19fa0d21bb0cff7",
      "to": "0xde08e00a44bbb424efdb7ce7cdbd437581cdf9d5",
      "contractAddress": null,
      "daFootprintGasScalar": "0x190",
      "l1BaseFeeScalar": "0x7d0",
      "l1BlobBaseFee": "0x1",
      "l1BlobBaseFeeScalar": "0xdbba0",
      "l1Fee": "0x7a",
      "l1GasPrice": "0xa",
      "l1GasUsed": "0x640"
    },
    {
      "status": "0x1",
      "cumulativeGasUsed": "0x49fa8",
      "logs": [
        {
          "address": "0xde08e00a44bbb424efdb7ce7cdbd437581cdf9d5",
          "topics": [
            "0x8c5be1e5ebec7d5bd14f71427d1e84f3dd0314c0f7b2291e5b200ac8c7c3b925",
            "0x000000000000000000000000e05fcc23807536bee418f142d19fa0d21bb0cff7",
            "0x0000000000000000000000009cd2b0a732dd5e023a5539921e0fd1c30e198dba"
          ],
          "data": "0xffffffffffffffffffffffffffffffffffffffffffffffffffffffffffffffff",
          "blockHash": "0x0c2d25348b7b4611e3ebe69615ac6ccbb9207dbd0261d5e0b2e521b61e25e88a",
          "blockNumber": "0x2c9204b",
          "blockTimestamp": "0x69b6cd97",
          "transactionHash": "0x733e1d9be16bba523be8ff29ab8c7bbb47f713ade7df042feb8631d6f297743d",
          "transactionIndex": "0x4",
          "logIndex": "0x2",
          "removed": false
        }
      ],
      "logsBloom": "0x00000000040000000400000000000000000000004000000000000000000000000080000000000800000000000000000000000000000000000000000000200000000000000000000000000000000000000200000000000000000000000000000000000000000000000000000000000000000000000000000000000000000000000000000000000000000000000000000000000000000000000000000000000000020000000000000000000000000000000000080080000000000000000000400000000000000000000000000000000000000000000000000000000000000000000010000000000000000000000000000000000000000000000000000000000000",
      "type": "0x2",
      "transactionHash": "0x733e1d9be16bba523be8ff29ab8c7bbb47f713ade7df042feb8631d6f297743d",
      "transactionIndex": "0x4",
      "blockHash": "0x0c2d25348b7b4611e3ebe69615ac6ccbb9207dbd0261d5e0b2e521b61e25e88a",
      "blockNumber": "0x2c9204b",
      "gasUsed": "0xb596",
      "effectiveGasPrice": "0x7a121",
      "blobGasUsed": "0x9c40",
      "from": "0xe05fcc23807536bee418f142d19fa0d21bb0cff7",
      "to": "0xde08e00a44bbb424efdb7ce7cdbd437581cdf9d5",
      "contractAddress": null,
      "daFootprintGasScalar": "0x190",
      "l1BaseFeeScalar": "0x7d0",
      "l1BlobBaseFee": "0x1",
      "l1BlobBaseFeeScalar": "0xdbba0",
      "l1Fee": "0x7a",
      "l1GasPrice": "0xa",
      "l1GasUsed": "0x640"
    },
    {
      "status": "0x1",
      "cumulativeGasUsed": "0x334c2",
      "logs": [
        {
          "address": "0x000000000022d473030f116ddee9f6b43ac78ba3",
          "topics": [
            "0xda9fa7c1b00402c17d0161b249b1ab8bbec047c5a52207b9c112deffd817036b",
            "0x000000000000000000000000e05fcc23807536bee418f142d19fa0d21bb0cff7",
            "0x000000000000000000000000de08e00a44bbb424efdb7ce7cdbd437581cdf9d5",
            "0x000000000000000000000000f969aee60879c54baaed9f3ed26147db216fd664"
          ],
          "data": "0x000000000000000000000000ffffffffffffffffffffffffffffffffffffffff0000000000000000000000000000000000000000000000000000ffffffffffff",
          "blockHash": "0xf3c3718658b8e1810d70d7850d6c06389b2490ca49c114edf633aef12993c1f5",
          "blockNumber": "0x2c9204e",
          "blockTimestamp": "0x69b6cd9a",
          "transactionHash": "0x5bed21a89510511c324ee3760e8ddbe3b21db8d52daf6b286cc22e6c1ebb2e67",
          "transactionIndex": "0x3",
          "logIndex": "0x1",
          "removed": false
        }
      ],
      "logsBloom": "0x00010000000000000000000000000000000000000000000000000000000000000000000000000800000000000000000000000000000000000000000000080000000000000000000000000000000000000200000000000000000000001000000000001000000000000000000000000000000000000040000000000000000000002020000000000000000000000000000000000000000000000000000000000000000000000000000000000000000000000000000000000000000000080000400000000000000000000000000000000000000000000000000040000000000000000000000000000000000000000000000000000000000000000000000000002400",
      "type": "0x2",
      "transactionHash": "0x5bed21a89510511c324ee3760e8ddbe3b21db8d52daf6b286cc22e6c1ebb2e67",
      "transactionIndex": "0x3",
      "blockHash": "0xf3c3718658b8e1810d70d7850d6c06389b2490ca49c114edf633aef12993c1f5",
      "blockNumber": "0x2c9204e",
      "gasUsed": "0xbaca",
      "effectiveGasPrice": "0x7a121",
      "blobGasUsed": "0xa8c0",
      "from": "0xe05fcc23807536bee418f142d19fa0d21bb0cff7",
      "to": "0x000000000022d473030f116ddee9f6b43ac78ba3",
      "contractAddress": null,
      "daFootprintGasScalar": "0x190",
      "l1BaseFeeScalar": "0x7d0",
      "l1BlobBaseFee": "0x1",
      "l1BlobBaseFeeScalar": "0xdbba0",
      "l1Fee": "0x84",
      "l1GasPrice": "0xa",
      "l1GasUsed": "0x6cd"
    },
    {
      "status": "0x1",
      "cumulativeGasUsed": "0x334b6",
      "logs": [
        {
          "address": "0x000000000022d473030f116ddee9f6b43ac78ba3",
          "topics": [
            "0xda9fa7c1b00402c17d0161b249b1ab8bbec047c5a52207b9c112deffd817036b",
            "0x000000000000000000000000e05fcc23807536bee418f142d19fa0d21bb0cff7",
            "0x000000000000000000000000de08e00a44bbb424efdb7ce7cdbd437581cdf9d5",
            "0x00000000000000000000000000b036b58a818b1bc34d502d3fe730db729e62ac"
          ],
          "data": "0x000000000000000000000000ffffffffffffffffffffffffffffffffffffffff0000000000000000000000000000000000000000000000000000ffffffffffff",
          "blockHash": "0x6a7f1f47aa36ee3041b742c029ef1ec79d2111551625c71a73e488ffa5f5f9e6",
          "blockNumber": "0x2c92051",
          "blockTimestamp": "0x69b6cd9d",
          "transactionHash": "0xa92f454a2f9d2b2e102fe6fd0ea475219d6e2ece0a8ba83bbfa3b97266364283",
          "transactionIndex": "0x3",
          "logIndex": "0x1",
          "removed": false
        }
      ],
      "logsBloom": "0x00010000000000000000000000000000000000000000000000000000000000000000000000000800000000000000000000000000001000000000000000080000000000000000000000000000000000000200000000000000000000000000000000001000000000000000000000004000000000000000000000000000000000002020000000000000000000000000000000000000000000000000000000000000000000000000000000000000000000000000000000000020000000080000400000000000000000000000000000000000000000000000000040000000000000000000000000000000000000000000000000000000000000000000000000000400",
      "type": "0x2",
      "transactionHash": "0xa92f454a2f9d2b2e102fe6fd0ea475219d6e2ece0a8ba83bbfa3b97266364283",
      "transactionIndex": "0x3",
      "blockHash": "0x6a7f1f47aa36ee3041b742c029ef1ec79d2111551625c71a73e488ffa5f5f9e6",
      "blockNumber": "0x2c92051",
      "gasUsed": "0xbabe",
      "effectiveGasPrice": "0x7a121",
      "blobGasUsed": "0xa730",
      "from": "0xe05fcc23807536bee418f142d19fa0d21bb0cff7",
      "to": "0x000000000022d473030f116ddee9f6b43ac78ba3",
      "contractAddress": null,
      "daFootprintGasScalar": "0x190",
      "l1BaseFeeScalar": "0x7d0",
      "l1BlobBaseFee": "0x1",
      "l1BlobBaseFeeScalar": "0xdbba0",
      "l1Fee": "0x83",
      "l1GasPrice": "0xa",
      "l1GasUsed": "0x6bf"
    },
    {
      "status": "0x1",
      "cumulativeGasUsed": "0xf574e",
      "logs": [
        {
          "address": "0xde08e00a44bbb424efdb7ce7cdbd437581cdf9d5",
          "topics": [
            "0x8c5be1e5ebec7d5bd14f71427d1e84f3dd0314c0f7b2291e5b200ac8c7c3b925",
            "0x000000000000000000000000e05fcc23807536bee418f142d19fa0d21bb0cff7",
            "0x000000000000000000000000c64a3ac9ba9c3d69bec599abe4910ac17ca61dbf"
          ],
          "data": "0xffffffffffffffffffffffffffffffffffffffffffffffffffffffffffffffff",
          "blockHash": "0x589775219bcd68423d7cc1665a1b5233be61a48b1c97a6742c9a149680e2a14b",
          "blockNumber": "0x2c92053",
          "blockTimestamp": "0x69b6cd9f",
          "transactionHash": "0x5ce82745114989c1ed3e82bfdb94f1af7e826e7b302c8fa503cd9f3a9755133b",
          "transactionIndex": "0x7",
          "logIndex": "0xb",
          "removed": false
        }
      ],
      "logsBloom": "0x00000000040000000400000000000000000000000000000000000000000000000000000000000800000000000000000000000000000000000000000000200000000000000000000000000000000000000200000000000000000000000080000000000000000000000000000000020000020000000000000000000000000000000000000000000000000000000000000000000000000000000000000000000000020000000000000000000000000000000000000080000000000000000000400000000000000000000000000000000000000000000000000000000000000000000010000000000000000000000000000000000000000000000000000000000000",
      "type": "0x2",
      "transactionHash": "0x5ce82745114989c1ed3e82bfdb94f1af7e826e7b302c8fa503cd9f3a9755133b",
      "transactionIndex": "0x7",
      "blockHash": "0x589775219bcd68423d7cc1665a1b5233be61a48b1c97a6742c9a149680e2a14b",
      "blockNumber": "0x2c92053",
      "gasUsed": "0xb596",
      "effectiveGasPrice": "0x7a121",
      "blobGasUsed": "0x9c40",
      "from": "0xe05fcc23807536bee418f142d19fa0d21bb0cff7",
      "to": "0xde08e00a44bbb424efdb7ce7cdbd437581cdf9d5",
      "contractAddress": null,
      "daFootprintGasScalar": "0x190",
      "l1BaseFeeScalar": "0x7d0",
      "l1BlobBaseFee": "0x1",
      "l1BlobBaseFeeScalar": "0xdbba0",
      "l1Fee": "0x7a",
      "l1GasPrice": "0xa",
      "l1GasUsed": "0x640"
    },
    {
      "status": "0x1",
      "cumulativeGasUsed": "0x436eb",
      "logs": [
        {
          "address": "0xde08e00a44bbb424efdb7ce7cdbd437581cdf9d5",
          "topics": [
            "0xddf252ad1be2c89b69c2b068fc378daa952ba7f163c4a11628f55a4df523b3ef",
            "0x000000000000000000000000e05fcc23807536bee418f142d19fa0d21bb0cff7",
            "0x000000000000000000000000c64a3ac9ba9c3d69bec599abe4910ac17ca61dbf"
          ],
          "data": "0x000000000000000000000000000000000000000000000001158e460913d00000",
          "blockHash": "0x8cef34fe19c7b71c95a588f23a6e9db67db5a1a36d42c3fa10cc597111f24b9e",
          "blockNumber": "0x2c92055",
          "blockTimestamp": "0x69b6cda1",
          "transactionHash": "0xadca0e24437187c78e3dda94b580d97093a94a0aef45585d7a48152466ed49a2",
          "transactionIndex": "0x3",
          "logIndex": "0x1",
          "removed": false
        },
        {
          "address": "0xc6f1f11579ebde2a16d0564aa795bacdbc744e83",
          "topics": [
            "0xddf252ad1be2c89b69c2b068fc378daa952ba7f163c4a11628f55a4df523b3ef",
            "0x0000000000000000000000000000000000000000000000000000000000000000",
            "0x000000000000000000000000e05fcc23807536bee418f142d19fa0d21bb0cff7"
          ],
          "data": "0x000000000000000000000000000000000000000000000001158e460913d00000",
          "blockHash": "0x8cef34fe19c7b71c95a588f23a6e9db67db5a1a36d42c3fa10cc597111f24b9e",
          "blockNumber": "0x2c92055",
          "blockTimestamp": "0x69b6cda1",
          "transactionHash": "0xadca0e24437187c78e3dda94b580d97093a94a0aef45585d7a48152466ed49a2",
          "transactionIndex": "0x3",
          "logIndex": "0x2",
          "removed": false
        },
        {
          "address": "0xc64a3ac9ba9c3d69bec599abe4910ac17ca61dbf",
          "topics": [
            "0xd5103f333769455df788908e17b0f6f83838ebeae2cd1ed6f23ec20dad88c9a3",
            "0x000000000000000000000000e05fcc23807536bee418f142d19fa0d21bb0cff7"
          ],
          "data": "0x000000000000000000000000000000000000000000000001158e460913d00000000000000000000000000000000000000000000000000001158e460913d00000",
          "blockHash": "0x8cef34fe19c7b71c95a588f23a6e9db67db5a1a36d42c3fa10cc597111f24b9e",
          "blockNumber": "0x2c92055",
          "blockTimestamp": "0x69b6cda1",
          "transactionHash": "0xadca0e24437187c78e3dda94b580d97093a94a0aef45585d7a48152466ed49a2",
          "transactionIndex": "0x3",
          "logIndex": "0x3",
          "removed": false
        }
      ],
      "logsBloom": "0x00000000040000000400000000000000000000000000000800000000000000000000000000000800000400000000000000000000000000000000000000000000000000000000000000000008000000000200000080000000000000000080000000000001020000000000000000020800020000000000800000000010000000000000000000000000000000000000000000000000000000000080000040000000000000000000000000020000000000000000000080000000000000000000400000000002000000000000000000000000000000000000000000000000000020000000000000000000000000000000000000000000000000000000000002000000",
      "type": "0x2",
      "transactionHash": "0xadca0e24437187c78e3dda94b580d97093a94a0aef45585d7a48152466ed49a2",
      "transactionIndex": "0x3",
      "blockHash": "0x8cef34fe19c7b71c95a588f23a6e9db67db5a1a36d42c3fa10cc597111f24b9e",
      "blockNumber": "0x2c92055",
      "gasUsed": "0x1bcf3",
      "effectiveGasPrice": "0x7a121",
      "blobGasUsed": "0x9c40",
      "from": "0xe05fcc23807536bee418f142d19fa0d21bb0cff7",
      "to": "0xc64a3ac9ba9c3d69bec599abe4910ac17ca61dbf",
      "contractAddress": null,
      "daFootprintGasScalar": "0x190",
      "l1BaseFeeScalar": "0x7d0",
      "l1BlobBaseFee": "0x1",
      "l1BlobBaseFeeScalar": "0xdbba0",
      "l1Fee": "0x7a",
      "l1GasPrice": "0xa",
      "l1GasUsed": "0x640"
    },
    {
      "status": "0x1",
      "cumulativeGasUsed": "0xa3425",
      "logs": [
        {
          "address": "0x00b036b58a818b1bc34d502d3fe730db729e62ac",
          "topics": [
            "0x40e9cecb9f5f1f1c5b9c97dec2917b7ee92e57ba5563708daca94dd84ad7112f",
            "0xc0ac8571814cbcd40a92e08108250971af6b21b121898dc7ddbaeee3c6b25a0b",
            "0x0000000000000000000000009cd2b0a732dd5e023a5539921e0fd1c30e198dba"
          ],
          "data": "0xffffffffffffffffffffffffffffffffffffffffffffffff7538dcfb761800000000000000000000000000000000000000000000000000007dd14a0ba841ad730000000000000000000000000000000000000000e8ca6f520f09ccecfb2279f00000000000000000000000000000000000000000000000056bc75e2d63100000fffffffffffffffffffffffffffffffffffffffffffffffffffffffffffff8930000000000000000000000000000000000000000000000000000000000000bb8",
          "blockHash": "0x929dacd23ef746b2afaacaef336e53eba69b9cddfa99603eba53c6d688e3fee6",
          "blockNumber": "0x2c92057",
          "blockTimestamp": "0x69b6cda3",
          "transactionHash": "0xa289cda72376ace610d26894a8c87f18127e04dee33a21f97fba229a182cd121",
          "transactionIndex": "0x6",
          "logIndex": "0x4",
          "removed": false
        },
        {
          "address": "0xde08e00a44bbb424efdb7ce7cdbd437581cdf9d5",
          "topics": [
            "0xddf252ad1be2c89b69c2b068fc378daa952ba7f163c4a11628f55a4df523b3ef",
            "0x00000000000000000000000000b036b58a818b1bc34d502d3fe730db729e62ac",
            "0x000000000000000000000000c64a3ac9ba9c3d69bec599abe4910ac17ca61dbf"
          ],
          "data": "0x000000000000000000000000000000000000000000000000064a76e6fb9ce245",
          "blockHash": "0x929dacd23ef746b2afaacaef336e53eba69b9cddfa99603eba53c6d688e3fee6",
          "blockNumber": "0x2c92057",
          "blockTimestamp": "0x69b6cda3",
          "transactionHash": "0xa289cda72376ace610d26894a8c87f18127e04dee33a21f97fba229a182cd121",
          "transactionIndex": "0x6",
          "logIndex": "0x5",
          "removed": false
        },
        {
          "address": "0xde08e00a44bbb424efdb7ce7cdbd437581cdf9d5",
          "topics": [
            "0xddf252ad1be2c89b69c2b068fc378daa952ba7f163c4a11628f55a4df523b3ef",
            "0x000000000000000000000000c64a3ac9ba9c3d69bec599abe4910ac17ca61dbf",
            "0x0000000000000000000000004b992f2fbf714c0fcbb23bac5130ace48cad00cd"
          ],
          "data": "0x00000000000000000000000000000000000000000000000000a10be3e5f616a0",
          "blockHash": "0x929dacd23ef746b2afaacaef336e53eba69b9cddfa99603eba53c6d688e3fee6",
          "blockNumber": "0x2c92057",
          "blockTimestamp": "0x69b6cda3",
          "transactionHash": "0xa289cda72376ace610d26894a8c87f18127e04dee33a21f97fba229a182cd121",
          "transactionIndex": "0x6",
          "logIndex": "0x6",
          "removed": false
        },
        {
          "address": "0xc64a3ac9ba9c3d69bec599abe4910ac17ca61dbf",
          "topics": [
            "0xb6f59e901022ff40ab92779378b2a40353b844fbe50bf360b3419f157f9460f4",
            "0xc0ac8571814cbcd40a92e08108250971af6b21b121898dc7ddbaeee3c6b25a0b"
          ],
          "data": "0x000000000000000000000000000000000000000000000000064a76e6fb9ce245000000000000000000000000de08e00a44bbb424efdb7ce7cdbd437581cdf9d5",
          "blockHash": "0x929dacd23ef746b2afaacaef336e53eba69b9cddfa99603eba53c6d688e3fee6",
          "blockNumber": "0x2c92057",
          "blockTimestamp": "0x69b6cda3",
          "transactionHash": "0xa289cda72376ace610d26894a8c87f18127e04dee33a21f97fba229a182cd121",
          "transactionIndex": "0x6",
          "logIndex": "0x7",
          "removed": false
        },
        {
          "address": "0x3fdf7f893e7e8aabc9829c9080058e7d06ee40c4",
          "topics": [
            "0xb6f59e901022ff40ab92779378b2a40353b844fbe50bf360b3419f157f9460f4",
            "0xc0ac8571814cbcd40a92e08108250971af6b21b121898dc7ddbaeee3c6b25a0b"
          ],
          "data": "0x000000000000000000000000000000000000000000000000064a76e6fb9ce245000000000000000000000000de08e00a44bbb424efdb7ce7cdbd437581cdf9d5",
          "blockHash": "0x929dacd23ef746b2afaacaef336e53eba69b9cddfa99603eba53c6d688e3fee6",
          "blockNumber": "0x2c92057",
          "blockTimestamp": "0x69b6cda3",
          "transactionHash": "0xa289cda72376ace610d26894a8c87f18127e04dee33a21f97fba229a182cd121",
          "transactionIndex": "0x6",
          "logIndex": "0x8",
          "removed": false
        },
        {
          "address": "0x453a3fdbccc2476eaaa13c01cb17761eec9a0d28",
          "topics": [
            "0xddf252ad1be2c89b69c2b068fc378daa952ba7f163c4a11628f55a4df523b3ef",
            "0x000000000000000000000000e05fcc23807536bee418f142d19fa0d21bb0cff7",
            "0x00000000000000000000000000b036b58a818b1bc34d502d3fe730db729e62ac"
          ],
          "data": "0x0000000000000000000000000000000000000000000000008ac7230489e80000",
          "blockHash": "0x929dacd23ef746b2afaacaef336e53eba69b9cddfa99603eba53c6d688e3fee6",
          "blockNumber": "0x2c92057",
          "blockTimestamp": "0x69b6cda3",
          "transactionHash": "0xa289cda72376ace610d26894a8c87f18127e04dee33a21f97fba229a182cd121",
          "transactionIndex": "0x6",
          "logIndex": "0x9",
          "removed": false
        },
        {
          "address": "0xde08e00a44bbb424efdb7ce7cdbd437581cdf9d5",
          "topics": [
            "0xddf252ad1be2c89b69c2b068fc378daa952ba7f163c4a11628f55a4df523b3ef",
            "0x00000000000000000000000000b036b58a818b1bc34d502d3fe730db729e62ac",
            "0x000000000000000000000000e05fcc23807536bee418f142d19fa0d21bb0cff7"
          ],
          "data": "0x0000000000000000000000000000000000000000000000007786d324aca4cb2e",
          "blockHash": "0x929dacd23ef746b2afaacaef336e53eba69b9cddfa99603eba53c6d688e3fee6",
          "blockNumber": "0x2c92057",
          "blockTimestamp": "0x69b6cda3",
          "transactionHash": "0xa289cda72376ace610d26894a8c87f18127e04dee33a21f97fba229a182cd121",
          "transactionIndex": "0x6",
          "logIndex": "0xa",
          "removed": false
        }
      ],
      "logsBloom": "0x00000000040000000400000000000000000000404000000000000000000000000080000000000800008004000000000000000002051000000000000000000000000000000000000000000008000000100200000000000020000102000080000000000001000200000000000000024000020000000000800000000010000000008000000400000000000000000008000000000000000000000000000000000000000000000000000000000000000000000000080080000020000000000000400000000002000000000000000000000000000000000000400000000000000000080000000000000000004000000000000000000000000002000000000002100010",
      "type": "0x2",
      "transactionHash": "0xa289cda72376ace610d26894a8c87f18127e04dee33a21f97fba229a182cd121",
      "transactionIndex": "0x6",
      "blockHash": "0x929dacd23ef746b2afaacaef336e53eba69b9cddfa99603eba53c6d688e3fee6",
      "blockNumber": "0x2c92057",
      "gasUsed": "0x369a3",
      "effectiveGasPrice": "0x7a121",
      "blobGasUsed": "0x12750",
      "from": "0xe05fcc23807536bee418f142d19fa0d21bb0cff7",
      "to": "0x9cd2b0a732dd5e023a5539921e0fd1c30e198dba",
      "contractAddress": null,
      "daFootprintGasScalar": "0x190",
      "l1BaseFeeScalar": "0x7d0",
      "l1BlobBaseFee": "0x1",
      "l1BlobBaseFeeScalar": "0xdbba0",
      "l1Fee": "0xe6",
      "l1GasPrice": "0xa",
      "l1GasUsed": "0xbd1"
    },
    {
      "status": "0x1",
      "cumulativeGasUsed": "0x94b43",
      "logs": [
        {
          "address": "0x00b036b58a818b1bc34d502d3fe730db729e62ac",
          "topics": [
            "0x40e9cecb9f5f1f1c5b9c97dec2917b7ee92e57ba5563708daca94dd84ad7112f",
            "0xc0ac8571814cbcd40a92e08108250971af6b21b121898dc7ddbaeee3c6b25a0b",
            "0x0000000000000000000000009cd2b0a732dd5e023a5539921e0fd1c30e198dba"
          ],
          "data": "0xffffffffffffffffffffffffffffffffffffffffffffffff7538dcfb7618000000000000000000000000000000000000000000000000000068e6806a05fcc9d10000000000000000000000000000000000000000d570a75645c090cc382d6b890000000000000000000000000000000000000000000000056bc75e2d63100000fffffffffffffffffffffffffffffffffffffffffffffffffffffffffffff1cb0000000000000000000000000000000000000000000000000000000000000bb8",
          "blockHash": "0x0d8abe52ebfda62f8b0ba0d5e37d7ddaff58d5dc3a702c4f418c4592d8328c48",
          "blockNumber": "0x2c92058",
          "blockTimestamp": "0x69b6cda4",
          "transactionHash": "0x2eabffc1e728d832427ec445e8bdc24b0b2cca7a3000d9e28ab28a6ed0efb462",
          "transactionIndex": "0x6",
          "logIndex": "0x4",
          "removed": false
        },
        {
          "address": "0xde08e00a44bbb424efdb7ce7cdbd437581cdf9d5",
          "topics": [
            "0xddf252ad1be2c89b69c2b068fc378daa952ba7f163c4a11628f55a4df523b3ef",
            "0x00000000000000000000000000b036b58a818b1bc34d502d3fe730db729e62ac",
            "0x000000000000000000000000c64a3ac9ba9c3d69bec599abe4910ac17ca61dbf"
          ],
          "data": "0x000000000000000000000000000000000000000000000000053eb99ee6b30a17",
          "blockHash": "0x0d8abe52ebfda62f8b0ba0d5e37d7ddaff58d5dc3a702c4f418c4592d8328c48",
          "blockNumber": "0x2c92058",
          "blockTimestamp": "0x69b6cda4",
          "transactionHash": "0x2eabffc1e728d832427ec445e8bdc24b0b2cca7a3000d9e28ab28a6ed0efb462",
          "transactionIndex": "0x6",
          "logIndex": "0x5",
          "removed": false
        },
        {
          "address": "0xde08e00a44bbb424efdb7ce7cdbd437581cdf9d5",
          "topics": [
            "0xddf252ad1be2c89b69c2b068fc378daa952ba7f163c4a11628f55a4df523b3ef",
            "0x000000000000000000000000c64a3ac9ba9c3d69bec599abe4910ac17ca61dbf",
            "0x0000000000000000000000004b992f2fbf714c0fcbb23bac5130ace48cad00cd"
          ],
          "data": "0x000000000000000000000000000000000000000000000000008645c31711e768",
          "blockHash": "0x0d8abe52ebfda62f8b0ba0d5e37d7ddaff58d5dc3a702c4f418c4592d8328c48",
          "blockNumber": "0x2c92058",
          "blockTimestamp": "0x69b6cda4",
          "transactionHash": "0x2eabffc1e728d832427ec445e8bdc24b0b2cca7a3000d9e28ab28a6ed0efb462",
          "transactionIndex": "0x6",
          "logIndex": "0x6",
          "removed": false
        },
        {
          "address": "0xc64a3ac9ba9c3d69bec599abe4910ac17ca61dbf",
          "topics": [
            "0xb6f59e901022ff40ab92779378b2a40353b844fbe50bf360b3419f157f9460f4",
            "0xc0ac8571814cbcd40a92e08108250971af6b21b121898dc7ddbaeee3c6b25a0b"
          ],
          "data": "0x000000000000000000000000000000000000000000000000053eb99ee6b30a17000000000000000000000000de08e00a44bbb424efdb7ce7cdbd437581cdf9d5",
          "blockHash": "0x0d8abe52ebfda62f8b0ba0d5e37d7ddaff58d5dc3a702c4f418c4592d8328c48",
          "blockNumber": "0x2c92058",
          "blockTimestamp": "0x69b6cda4",
          "transactionHash": "0x2eabffc1e728d832427ec445e8bdc24b0b2cca7a3000d9e28ab28a6ed0efb462",
          "transactionIndex": "0x6",
          "logIndex": "0x7",
          "removed": false
        },
        {
          "address": "0x3fdf7f893e7e8aabc9829c9080058e7d06ee40c4",
          "topics": [
            "0xb6f59e901022ff40ab92779378b2a40353b844fbe50bf360b3419f157f9460f4",
            "0xc0ac8571814cbcd40a92e08108250971af6b21b121898dc7ddbaeee3c6b25a0b"
          ],
          "data": "0x000000000000000000000000000000000000000000000000053eb99ee6b30a17000000000000000000000000de08e00a44bbb424efdb7ce7cdbd437581cdf9d5",
          "blockHash": "0x0d8abe52ebfda62f8b0ba0d5e37d7ddaff58d5dc3a702c4f418c4592d8328c48",
          "blockNumber": "0x2c92058",
          "blockTimestamp": "0x69b6cda4",
          "transactionHash": "0x2eabffc1e728d832427ec445e8bdc24b0b2cca7a3000d9e28ab28a6ed0efb462",
          "transactionIndex": "0x6",
          "logIndex": "0x8",
          "removed": false
        },
        {
          "address": "0x453a3fdbccc2476eaaa13c01cb17761eec9a0d28",
          "topics": [
            "0xddf252ad1be2c89b69c2b068fc378daa952ba7f163c4a11628f55a4df523b3ef",
            "0x000000000000000000000000e05fcc23807536bee418f142d19fa0d21bb0cff7",
            "0x00000000000000000000000000b036b58a818b1bc34d502d3fe730db729e62ac"
          ],
          "data": "0x0000000000000000000000000000000000000000000000008ac7230489e80000",
          "blockHash": "0x0d8abe52ebfda62f8b0ba0d5e37d7ddaff58d5dc3a702c4f418c4592d8328c48",
          "blockNumber": "0x2c92058",
          "blockTimestamp": "0x69b6cda4",
          "transactionHash": "0x2eabffc1e728d832427ec445e8bdc24b0b2cca7a3000d9e28ab28a6ed0efb462",
          "transactionIndex": "0x6",
          "logIndex": "0x9",
          "removed": false
        },
        {
          "address": "0xde08e00a44bbb424efdb7ce7cdbd437581cdf9d5",
          "topics": [
            "0xddf252ad1be2c89b69c2b068fc378daa952ba7f163c4a11628f55a4df523b3ef",
            "0x00000000000000000000000000b036b58a818b1bc34d502d3fe730db729e62ac",
            "0x000000000000000000000000e05fcc23807536bee418f142d19fa0d21bb0cff7"
          ],
          "data": "0x00000000000000000000000000000000000000000000000063a7c6cb1f49bfba",
          "blockHash": "0x0d8abe52ebfda62f8b0ba0d5e37d7ddaff58d5dc3a702c4f418c4592d8328c48",
          "blockNumber": "0x2c92058",
          "blockTimestamp": "0x69b6cda4",
          "transactionHash": "0x2eabffc1e728d832427ec445e8bdc24b0b2cca7a3000d9e28ab28a6ed0efb462",
          "transactionIndex": "0x6",
          "logIndex": "0xa",
          "removed": false
        }
      ],
      "logsBloom": "0x00000000040000000400000000000000000000404000000000000000000000000080000000000800008004000000000000000002051000000000000000000000000000000000000000000008000000100200000000000020000102000080000000000001000200000000000000024000020000000000800000000010000000008000000400000000000000000008000000000000000000000000000000000000000000000000000000000000000000000000080080000020000000000000400000000002000000000000000000000000000000000000400000000000000000080000000000000000004000000000000000000000000002000000000002100010",
      "type": "0x2",
      "transactionHash": "0x2eabffc1e728d832427ec445e8bdc24b0b2cca7a3000d9e28ab28a6ed0efb462",
      "transactionIndex": "0x6",
      "blockHash": "0x0d8abe52ebfda62f8b0ba0d5e37d7ddaff58d5dc3a702c4f418c4592d8328c48",
      "blockNumber": "0x2c92058",
      "gasUsed": "0x280b5",
      "effectiveGasPrice": "0x7a121",
      "blobGasUsed": "0x12750",
      "from": "0xe05fcc23807536bee418f142d19fa0d21bb0cff7",
      "to": "0x9cd2b0a732dd5e023a5539921e0fd1c30e198dba",
      "contractAddress": null,
      "daFootprintGasScalar": "0x190",
      "l1BaseFeeScalar": "0x7d0",
      "l1BlobBaseFee": "0x1",
      "l1BlobBaseFeeScalar": "0xdbba0",
      "l1Fee": "0xe6",
      "l1GasPrice": "0xa",
      "l1GasUsed": "0xbd1"
    },
    {
      "status": "0x1",
      "cumulativeGasUsed": "0xabe4c",
      "logs": [
        {
          "address": "0xde08e00a44bbb424efdb7ce7cdbd437581cdf9d5",
          "topics": [
            "0x8c5be1e5ebec7d5bd14f71427d1e84f3dd0314c0f7b2291e5b200ac8c7c3b925",
            "0x000000000000000000000000c64a3ac9ba9c3d69bec599abe4910ac17ca61dbf",
            "0x0000000000000000000000002705b31114e379f273c3ce7acb18a5e9517fe3bc"
          ],
          "data": "0x000000000000000000000000000000000000000000000000002386f26fc10000",
          "blockHash": "0xab6d3ee1b51447a624da82cf7c8c0e7411123e44e2d0f809f8f76bd9ecd61eca",
          "blockNumber": "0x2c9205b",
          "blockTimestamp": "0x69b6cda7",
          "transactionHash": "0x08843db5f4b7a6f0d12214daa9ad075ad6661cff36efe4f6991c4ea073a7604e",
          "transactionIndex": "0x5",
          "logIndex": "0x3",
          "removed": false
        },
        {
          "address": "0xde08e00a44bbb424efdb7ce7cdbd437581cdf9d5",
          "topics": [
            "0xddf252ad1be2c89b69c2b068fc378daa952ba7f163c4a11628f55a4df523b3ef",
            "0x000000000000000000000000c64a3ac9ba9c3d69bec599abe4910ac17ca61dbf",
            "0x0000000000000000000000002705b31114e379f273c3ce7acb18a5e9517fe3bc"
          ],
          "data": "0x000000000000000000000000000000000000000000000000002386f26fc10000",
          "blockHash": "0xab6d3ee1b51447a624da82cf7c8c0e7411123e44e2d0f809f8f76bd9ecd61eca",
          "blockNumber": "0x2c9205b",
          "blockTimestamp": "0x69b6cda7",
          "transactionHash": "0x08843db5f4b7a6f0d12214daa9ad075ad6661cff36efe4f6991c4ea073a7604e",
          "transactionIndex": "0x5",
          "logIndex": "0x4",
          "removed": false
        },
        {
          "address": "0x5bbe893b91e2166d15926c3dba5d0f513e323264",
          "topics": [
            "0xddf252ad1be2c89b69c2b068fc378daa952ba7f163c4a11628f55a4df523b3ef",
            "0x0000000000000000000000000000000000000000000000000000000000000000",
            "0x0000000000000000000000002705b31114e379f273c3ce7acb18a5e9517fe3bc",
            "0x0000000000000000000000000000000000000000000000000000000000000001"
          ],
          "data": "0x",
          "blockHash": "0xab6d3ee1b51447a624da82cf7c8c0e7411123e44e2d0f809f8f76bd9ecd61eca",
          "blockNumber": "0x2c9205b",
          "blockTimestamp": "0x69b6cda7",
          "transactionHash": "0x08843db5f4b7a6f0d12214daa9ad075ad6661cff36efe4f6991c4ea073a7604e",
          "transactionIndex": "0x5",
          "logIndex": "0x5",
          "removed": false
        },
        {
          "address": "0x5bbe893b91e2166d15926c3dba5d0f513e323264",
          "topics": [
            "0xddf252ad1be2c89b69c2b068fc378daa952ba7f163c4a11628f55a4df523b3ef",
            "0x0000000000000000000000002705b31114e379f273c3ce7acb18a5e9517fe3bc",
            "0x0000000000000000000000005b101fe55e4256b43403de8520fa6d606d7031e7",
            "0x0000000000000000000000000000000000000000000000000000000000000001"
          ],
          "data": "0x",
          "blockHash": "0xab6d3ee1b51447a624da82cf7c8c0e7411123e44e2d0f809f8f76bd9ecd61eca",
          "blockNumber": "0x2c9205b",
          "blockTimestamp": "0x69b6cda7",
          "transactionHash": "0x08843db5f4b7a6f0d12214daa9ad075ad6661cff36efe4f6991c4ea073a7604e",
          "transactionIndex": "0x5",
          "logIndex": "0x6",
          "removed": false
        },
        {
          "address": "0x2705b31114e379f273c3ce7acb18a5e9517fe3bc",
          "topics": [
            "0x84a34755616a04d6e547597ec5933d7ca8cf181bb354026be7e93e147edf0ab7",
            "0x000000000000000000000000c64a3ac9ba9c3d69bec599abe4910ac17ca61dbf",
            "0x0000000000000000000000005b101fe55e4256b43403de8520fa6d606d7031e7",
            "0x0000000000000000000000000000000000000000000000000000000000000001"
          ],
          "data": "0x000000000000000000000000000000000000000000000000002386f26fc10000",
          "blockHash": "0xab6d3ee1b51447a624da82cf7c8c0e7411123e44e2d0f809f8f76bd9ecd61eca",
          "blockNumber": "0x2c9205b",
          "blockTimestamp": "0x69b6cda7",
          "transactionHash": "0x08843db5f4b7a6f0d12214daa9ad075ad6661cff36efe4f6991c4ea073a7604e",
          "transactionIndex": "0x5",
          "logIndex": "0x7",
          "removed": false
        },
        {
          "address": "0x5b101fe55e4256b43403de8520fa6d606d7031e7",
          "topics": [
            "0x8b410bfb90b4ae1c8e7e688b87fbbedcf5443bfbb08c805d58963d8f906f4390",
            "0xc0ac8571814cbcd40a92e08108250971af6b21b121898dc7ddbaeee3c6b25a0b",
            "0x0000000000000000000000005bbe893b91e2166d15926c3dba5d0f513e323264"
          ],
          "data": "0x0000000000000000000000000000000000000000000000000000000000000001000000000000000000000000000000000000000000000000002386f26fc10000",
          "blockHash": "0xab6d3ee1b51447a624da82cf7c8c0e7411123e44e2d0f809f8f76bd9ecd61eca",
          "blockNumber": "0x2c9205b",
          "blockTimestamp": "0x69b6cda7",
          "transactionHash": "0x08843db5f4b7a6f0d12214daa9ad075ad6661cff36efe4f6991c4ea073a7604e",
          "transactionIndex": "0x5",
          "logIndex": "0x8",
          "removed": false
        },
        {
          "address": "0xc64a3ac9ba9c3d69bec599abe4910ac17ca61dbf",
          "topics": [
            "0xd36555ff44f1db67b481d561c0158d8544dd80030cc6a4135609b077be38c8ab",
            "0xc0ac8571814cbcd40a92e08108250971af6b21b121898dc7ddbaeee3c6b25a0b",
            "0x0000000000000000000000005bbe893b91e2166d15926c3dba5d0f513e323264",
            "0x0000000000000000000000000000000000000000000000000000000000000001"
          ],
          "data": "0x000000000000000000000000000000000000000000000000002386f26fc10000",
          "blockHash": "0xab6d3ee1b51447a624da82cf7c8c0e7411123e44e2d0f809f8f76bd9ecd61eca",
          "blockNumber": "0x2c9205b",
          "blockTimestamp": "0x69b6cda7",
          "transactionHash": "0x08843db5f4b7a6f0d12214daa9ad075ad6661cff36efe4f6991c4ea073a7604e",
          "transactionIndex": "0x5",
          "logIndex": "0x9",
          "removed": false
        }
      ],
      "logsBloom": "0x10200000040000000400000000000000000000000000000000000000000000000000000008000008000000000000000000000000010400000000000000240000000000000000000000000008000000000000000000840000000000000080008000000001020000000000000000020800020100000000800000800010100000008000000400000000000000000000000009000000000000000000000000001000020000000000000000010000000000400000000080000000100800000000000001000002000000000000000080000000800000000000400802000000000060000010000000000000000000000000000000000000000100000000000002000020",
      "type": "0x2",
      "transactionHash": "0x08843db5f4b7a6f0d12214daa9ad075ad6661cff36efe4f6991c4ea073a7604e",
      "transactionIndex": "0x5",
      "blockHash": "0xab6d3ee1b51447a624da82cf7c8c0e7411123e44e2d0f809f8f76bd9ecd61eca",
      "blockNumber": "0x2c9205b",
      "gasUsed": "0x563f0",
      "effectiveGasPrice": "0x7a121",
      "blobGasUsed": "0x9c40",
      "from": "0xe05fcc23807536bee418f142d19fa0d21bb0cff7",
      "to": "0xc64a3ac9ba9c3d69bec599abe4910ac17ca61dbf",
      "contractAddress": null,
      "daFootprintGasScalar": "0x190",
      "l1BaseFeeScalar": "0x7d0",
      "l1BlobBaseFee": "0x1",
      "l1BlobBaseFeeScalar": "0xdbba0",
      "l1Fee": "0x7a",
      "l1GasPrice": "0xa",
      "l1GasUsed": "0x640"
    },
    {
      "status": "0x1",
      "cumulativeGasUsed": "0x364e4",
      "logs": [
        {
          "address": "0xc6f1f11579ebde2a16d0564aa795bacdbc744e83",
          "topics": [
            "0xddf252ad1be2c89b69c2b068fc378daa952ba7f163c4a11628f55a4df523b3ef",
            "0x000000000000000000000000e05fcc23807536bee418f142d19fa0d21bb0cff7",
            "0x0000000000000000000000000000000000000000000000000000000000000000"
          ],
          "data": "0x0000000000000000000000000000000000000000000000008ac7230489e80000",
          "blockHash": "0x2ebfd07ea9cec2da9e08bc36a3bafa51cd2b822d329dfc42f4d7471a2c509daa",
          "blockNumber": "0x2c9205e",
          "blockTimestamp": "0x69b6cdaa",
          "transactionHash": "0xb6deb01ed1e1a38f9c64223859ace3853c36d409d9180ca9c166603743ad4f98",
          "transactionIndex": "0x3",
          "logIndex": "0x1",
          "removed": false
        },
        {
          "address": "0xde08e00a44bbb424efdb7ce7cdbd437581cdf9d5",
          "topics": [
            "0xddf252ad1be2c89b69c2b068fc378daa952ba7f163c4a11628f55a4df523b3ef",
            "0x000000000000000000000000c64a3ac9ba9c3d69bec599abe4910ac17ca61dbf",
            "0x000000000000000000000000e05fcc23807536bee418f142d19fa0d21bb0cff7"
          ],
          "data": "0x0000000000000000000000000000000000000000000000008fe64efac4ab2f14",
          "blockHash": "0x2ebfd07ea9cec2da9e08bc36a3bafa51cd2b822d329dfc42f4d7471a2c509daa",
          "blockNumber": "0x2c9205e",
          "blockTimestamp": "0x69b6cdaa",
          "transactionHash": "0xb6deb01ed1e1a38f9c64223859ace3853c36d409d9180ca9c166603743ad4f98",
          "transactionIndex": "0x3",
          "logIndex": "0x2",
          "removed": false
        },
        {
          "address": "0xc64a3ac9ba9c3d69bec599abe4910ac17ca61dbf",
          "topics": [
            "0x8038d1806af22a919dcd5b2a4c313824e515ceb65343ff568379f92a1f323010",
            "0x000000000000000000000000e05fcc23807536bee418f142d19fa0d21bb0cff7"
          ],
          "data": "0x0000000000000000000000000000000000000000000000008ac7230489e800000000000000000000000000000000000000000000000000008fe64efac4ab2f14",
          "blockHash": "0x2ebfd07ea9cec2da9e08bc36a3bafa51cd2b822d329dfc42f4d7471a2c509daa",
          "blockNumber": "0x2c9205e",
          "blockTimestamp": "0x69b6cdaa",
          "transactionHash": "0xb6deb01ed1e1a38f9c64223859ace3853c36d409d9180ca9c166603743ad4f98",
          "transactionIndex": "0x3",
          "logIndex": "0x3",
          "removed": false
        }
      ],
      "logsBloom": "0x00000000040000000400000000000000000000000000000800000000000000000000000020000800000000000000000000000000000000000000000000000000000000000000000000000008000000000200000080000000000000040080000000000001020000000000000000020800022000000000800000000010000000000000000000000000000000000000000000000000000000000000000040000000000000000000000000000000000000000000000080000000000000000000400000000002000000000000000000000000000000000000000000000000000020000000000000000000000000000000000000000000000000000000000002000000",
      "type": "0x2",
      "transactionHash": "0xb6deb01ed1e1a38f9c64223859ace3853c36d409d9180ca9c166603743ad4f98",
      "transactionIndex": "0x3",
      "blockHash": "0x2ebfd07ea9cec2da9e08bc36a3bafa51cd2b822d329dfc42f4d7471a2c509daa",
      "blockNumber": "0x2c9205e",
      "gasUsed": "0xeaec",
      "effectiveGasPrice": "0x7a121",
      "blobGasUsed": "0x9c40",
      "from": "0xe05fcc23807536bee418f142d19fa0d21bb0cff7",
      "to": "0xc64a3ac9ba9c3d69bec599abe4910ac17ca61dbf",
      "contractAddress": null,
      "daFootprintGasScalar": "0x190",
      "l1BaseFeeScalar": "0x7d0",
      "l1BlobBaseFee": "0x1",
      "l1BlobBaseFeeScalar": "0xdbba0",
      "l1Fee": "0x7a",
      "l1GasPrice": "0xa",
      "l1GasUsed": "0x640"
    }
  ],
  "libraries": [],
  "pending": [],
  "returns": {},
  "timestamp": 1773587881924,
  "chain": 1301,
  "commit": "cd79bd1"
}